{
	"data": {
		"bytecode": {
			"linkReferences": {},
			"object": "60a06040523073ffffffffffffffffffffffffffffffffffffffff1660809073ffffffffffffffffffffffffffffffffffffffff16815250348015610042575f5ffd5b5061005161005660201b60201c565b6101d1565b5f61006561015460201b60201c565b9050805f0160089054906101000a900460ff16156100af576040517ff92ee8a900000000000000000000000000000000000000000000000000000000815260040160405180910390fd5b67ffffffffffffffff8016815f015f9054906101000a900467ffffffffffffffff1667ffffffffffffffff16146101515767ffffffffffffffff815f015f6101000a81548167ffffffffffffffff021916908367ffffffffffffffff1602179055507fc7f505b2f371ae2175ee4913f4499e1f2633a7b5936321eed1cdaeb6115181d267ffffffffffffffff60405161014891906101b8565b60405180910390a15b50565b5f5f61016461016d60201b60201c565b90508091505090565b5f7ff0c57e16840df040f15088dc2f81fe391c3923bec73e23a9662efc9c229c6a005f1b905090565b5f67ffffffffffffffff82169050919050565b6101b281610196565b82525050565b5f6020820190506101cb5f8301846101a9565b92915050565b6080516142366101f75f395f8181611a6d01528181611ac20152611c7c01526142365ff3fe6080604052600436106101ed575f3560e01c80635c975abb1161010c57806395d89b411161009f578063cae9ca511161006e578063cae9ca51146106f1578063d505accf1461072d578063d8fbe99414610755578063dd62ed3e14610791578063f2fde38b146107cd576101ed565b806395d89b4114610625578063a9059cbb1461064f578063ad3cb1cc1461068b578063c1d34b89146106b5576101ed565b80637ecebe00116100db5780637ecebe00146105795780638456cb59146105b557806384b0196e146105cb5780638da5cb5b146105fb576101ed565b80635c975abb146104d557806370a08231146104ff578063715018a61461053b57806379cc679014610551576101ed565b80633644e5151161018457806342966c681161015357806342966c681461043f578063485cc955146104675780634f1ef2861461048f57806352d1902d146104ab576101ed565b80633644e5151461039b5780633f4ba83a146103c55780634000aea0146103db57806340c10f1914610417576101ed565b806318160ddd116101c057806318160ddd146102cf57806323b872dd146102f9578063313ce567146103355780633177029f1461035f576101ed565b806301ffc9a7146101f157806306fdde031461022d578063095ea7b3146102575780631296ee6214610293575b5f5ffd5b3480156101fc575f5ffd5b50610217600480360381019061021291906130a7565b6107f5565b60405161022491906130ec565b60405180910390f35b348015610238575f5ffd5b5061024161086e565b60405161024e9190613175565b60405180910390f35b348015610262575f5ffd5b5061027d60048036038101906102789190613222565b61090c565b60405161028a91906130ec565b60405180910390f35b34801561029e575f5ffd5b506102b960048036038101906102b49190613222565b61092e565b6040516102c691906130ec565b60405180910390f35b3480156102da575f5ffd5b506102e3610950565b6040516102f0919061326f565b60405180910390f35b348015610304575f5ffd5b5061031f600480360381019061031a9190613288565b610967565b60405161032c91906130ec565b60405180910390f35b348015610340575f5ffd5b50610349610995565b60405161035691906132f3565b60405180910390f35b34801561036a575f5ffd5b5061038560048036038101906103809190613222565b61099d565b60405161039291906130ec565b60405180910390f35b3480156103a6575f5ffd5b506103af6109bf565b6040516103bc9190613324565b60405180910390f35b3480156103d0575f5ffd5b506103d96109cd565b005b3480156103e6575f5ffd5b5061040160048036038101906103fc9190613469565b6109df565b60405161040e91906130ec565b60405180910390f35b348015610422575f5ffd5b5061043d60048036038101906104389190613222565b610a53565b005b34801561044a575f5ffd5b50610465600480360381019061046091906134d5565b610a69565b005b348015610472575f5ffd5b5061048d60048036038101906104889190613500565b610a7d565b005b6104a960048036038101906104a4919061353e565b610cfc565b005b3480156104b6575f5ffd5b506104bf610d1b565b6040516104cc9190613324565b60405180910390f35b3480156104e0575f5ffd5b506104e9610d4c565b6040516104f691906130ec565b60405180910390f35b34801561050a575f5ffd5b5061052560048036038101906105209190613598565b610d6e565b604051610532919061326f565b60405180910390f35b348015610546575f5ffd5b5061054f610dc1565b005b34801561055c575f5ffd5b5061057760048036038101906105729190613222565b610dd4565b005b348015610584575f5ffd5b5061059f600480360381019061059a9190613598565b610df4565b6040516105ac919061326f565b60405180910390f35b3480156105c0575f5ffd5b506105c9610e05565b005b3480156105d6575f5ffd5b506105df610e17565b6040516105f297969594939291906136c3565b60405180910390f35b348015610606575f5ffd5b5061060f610f20565b60405161061c9190613745565b60405180910390f35b348015610630575f5ffd5b50610639610f55565b6040516106469190613175565b60405180910390f35b34801561065a575f5ffd5b5061067560048036038101906106709190613222565b610ff3565b60405161068291906130ec565b60405180910390f35b348015610696575f5ffd5b5061069f611015565b6040516106ac9190613175565b60405180910390f35b3480156106c0575f5ffd5b506106db60048036038101906106d6919061375e565b61104e565b6040516106e891906130ec565b60405180910390f35b3480156106fc575f5ffd5b5061071760048036038101906107129190613469565b6110bf565b60405161072491906130ec565b60405180910390f35b348015610738575f5ffd5b50610753600480360381019061074e9190613832565b61112b565b005b348015610760575f5ffd5b5061077b60048036038101906107769190613288565b611270565b60405161078891906130ec565b60405180910390f35b34801561079c575f5ffd5b506107b760048036038101906107b29190613500565b611294565b6040516107c4919061326f565b60405180910390f35b3480156107d8575f5ffd5b506107f360048036038101906107ee9190613598565b611324565b005b5f7fb0202a11000000000000000000000000000000000000000000000000000000007bffffffffffffffffffffffffffffffffffffffffffffffffffffffff1916827bffffffffffffffffffffffffffffffffffffffffffffffffffffffff191614806108675750610866826113a8565b5b9050919050565b60605f610879611411565b905080600301805461088a906138fc565b80601f01602080910402602001604051908101604052809291908181526020018280546108b6906138fc565b80156109015780601f106108d857610100808354040283529160200191610901565b820191905f5260205f20905b8154815290600101906020018083116108e457829003601f168201915b505050505091505090565b5f5f610916611438565b905061092381858561143f565b600191505092915050565b5f610948838360405180602001604052805f8152506109df565b905092915050565b5f5f61095a611411565b9050806002015491505090565b5f5f610971611438565b905061097e858285611451565b6109898585856114e4565b60019150509392505050565b5f6012905090565b5f6109b7838360405180602001604052805f8152506110bf565b905092915050565b5f6109c86115d4565b905090565b6109d56115e2565b6109dd611669565b565b5f6109ea8484610ff3565b610a2d5783836040517f231b03ae000000000000000000000000000000000000000000000000000000008152600401610a2492919061392c565b60405180910390fd5b610a48610a38611438565b610a40611438565b8686866116d7565b600190509392505050565b610a5b6115e2565b610a6582826118be565b5050565b610a7a610a74611438565b8261193d565b50565b5f610a866119bc565b90505f815f0160089054906101000a900460ff161590505f825f015f9054906101000a900467ffffffffffffffff1690505f5f8267ffffffffffffffff16148015610ace5750825b90505f60018367ffffffffffffffff16148015610b0157505f3073ffffffffffffffffffffffffffffffffffffffff163b145b905081158015610b0f575080155b15610b46576040517ff92ee8a900000000000000000000000000000000000000000000000000000000815260040160405180910390fd5b6001855f015f6101000a81548167ffffffffffffffff021916908367ffffffffffffffff1602179055508315610b93576001855f0160086101000a81548160ff0219169083151502179055505b610c076040518060400160405280600981526020017f537566666f6361746500000000000000000000000000000000000000000000008152506040518060400160405280600381526020017f574d5300000000000000000000000000000000000000000000000000000000008152506119cf565b610c0f6119e5565b610c176119ef565b610c20866119f9565b610c28611a0d565b610c666040518060400160405280600981526020017f537566666f636174650000000000000000000000000000000000000000000000815250611a17565b610c6e611a61565b610c9987610c7a610995565b600a610c869190613aaf565b620f4240610c949190613af9565b6118be565b8315610cf3575f855f0160086101000a81548160ff0219169083151502179055507fc7f505b2f371ae2175ee4913f4499e1f2633a7b5936321eed1cdaeb6115181d26001604051610cea9190613b8f565b60405180910390a15b50505050505050565b610d04611a6b565b610d0d82611b51565b610d178282611b5c565b5050565b5f610d24611c7a565b7f360894a13ba1a3210667c828492db98dca3e2076cc3735a920a3ca505d382bbc5f1b905090565b5f5f610d56611d01565b9050805f015f9054906101000a900460ff1691505090565b5f5f610d78611411565b9050805f015f8473ffffffffffffffffffffffffffffffffffffffff1673ffffffffffffffffffffffffffffffffffffffff1681526020019081526020015f2054915050919050565b610dc96115e2565b610dd25f611d28565b565b610de682610de0611438565b83611451565b610df0828261193d565b5050565b5f610dfe82611df9565b9050919050565b610e0d6115e2565b610e15611e4c565b565b5f6060805f5f5f60605f610e29611ebb565b90505f5f1b815f0154148015610e4457505f5f1b8160010154145b610e83576040517f08c379a0000000000000000000000000000000000000000000000000000000008152600401610e7a90613bf2565b60405180910390fd5b610e8b611ee2565b610e93611f80565b46305f5f1b5f67ffffffffffffffff811115610eb257610eb1613345565b5b604051908082528060200260200182016040528015610ee05781602001602082028036833780820191505090505b507f0f0000000000000000000000000000000000000000000000000000000000000095949392919097509750975097509750975097505090919293949596565b5f5f610f2a61201e565b9050805f015f9054906101000a900473ffffffffffffffffffffffffffffffffffffffff1691505090565b60605f610f60611411565b9050806004018054610f71906138fc565b80601f0160208091040260200160405190810160405280929190818152602001828054610f9d906138fc565b8015610fe85780601f10610fbf57610100808354040283529160200191610fe8565b820191905f5260205f20905b815481529060010190602001808311610fcb57829003601f168201915b505050505091505090565b5f5f610ffd611438565b905061100a8185856114e4565b600191505092915050565b6040518060400160405280600581526020017f352e302e3000000000000000000000000000000000000000000000000000000081525081565b5f61105a858585610967565b61109f578484846040517fb56855e600000000000000000000000000000000000000000000000000000000815260040161109693929190613c10565b60405180910390fd5b6110b36110aa611438565b868686866116d7565b60019050949350505050565b5f6110ca848461090c565b61110d5783836040517f50e555c400000000000000000000000000000000000000000000000000000000815260040161110492919061392c565b60405180910390fd5b611120611118611438565b858585612045565b600190509392505050565b8342111561117057836040517f62791302000000000000000000000000000000000000000000000000000000008152600401611167919061326f565b60405180910390fd5b5f7f6e71edae12b1b97f4d1f60370fef10105fa2faae0126114a169c64845d6126c988888861119e8c612229565b896040516020016111b496959493929190613c45565b6040516020818303038152906040528051906020012090505f6111d682612289565b90505f6111e5828787876122a2565b90508973ffffffffffffffffffffffffffffffffffffffff168173ffffffffffffffffffffffffffffffffffffffff161461125957808a6040517f4b800e46000000000000000000000000000000000000000000000000000000008152600401611250929190613ca4565b60405180910390fd5b6112648a8a8a61143f565b50505050505050505050565b5f61128b84848460405180602001604052805f81525061104e565b90509392505050565b5f5f61129e611411565b9050806001015f8573ffffffffffffffffffffffffffffffffffffffff1673ffffffffffffffffffffffffffffffffffffffff1681526020019081526020015f205f8473ffffffffffffffffffffffffffffffffffffffff1673ffffffffffffffffffffffffffffffffffffffff1681526020019081526020015f205491505092915050565b61132c6115e2565b5f73ffffffffffffffffffffffffffffffffffffffff168173ffffffffffffffffffffffffffffffffffffffff160361139c575f6040517f1e4fbdf70000000000000000000000000000000000000000000000000000000081526004016113939190613745565b60405180910390fd5b6113a581611d28565b50565b5f7f01ffc9a7000000000000000000000000000000000000000000000000000000007bffffffffffffffffffffffffffffffffffffffffffffffffffffffff1916827bffffffffffffffffffffffffffffffffffffffffffffffffffffffff1916149050919050565b5f7f52c63247e1f47db19d5ce0460030c497f067ca4cebf71ba98eeadabe20bace00905090565b5f33905090565b61144c83838360016122d0565b505050565b5f61145c8484611294565b90507fffffffffffffffffffffffffffffffffffffffffffffffffffffffffffffffff8110156114de57818110156114cf578281836040517ffb8f41b20000000000000000000000000000000000000000000000000000000081526004016114c693929190613ccb565b60405180910390fd5b6114dd84848484035f6122d0565b5b50505050565b5f73ffffffffffffffffffffffffffffffffffffffff168373ffffffffffffffffffffffffffffffffffffffff1603611554575f6040517f96c6fd1e00000000000000000000000000000000000000000000000000000000815260040161154b9190613745565b60405180910390fd5b5f73ffffffffffffffffffffffffffffffffffffffff168273ffffffffffffffffffffffffffffffffffffffff16036115c4575f6040517fec442f050000000000000000000000000000000000000000000000000000000081526004016115bb9190613745565b60405180910390fd5b6115cf8383836124ad565b505050565b5f6115dd6124bd565b905090565b6115ea611438565b73ffffffffffffffffffffffffffffffffffffffff16611608610f20565b73ffffffffffffffffffffffffffffffffffffffff16146116675761162b611438565b6040517f118cdaa700000000000000000000000000000000000000000000000000000000815260040161165e9190613745565b60405180910390fd5b565b611671612520565b5f61167a611d01565b90505f815f015f6101000a81548160ff0219169083151502179055507f5db9ee0a495bf2e6ff9c91a7834c1ba4fdd244a5e8aa4e537bd38aeae4b073aa6116bf611438565b6040516116cc9190613745565b60405180910390a150565b5f8373ffffffffffffffffffffffffffffffffffffffff163b0361173257826040517f8a96cd9c0000000000000000000000000000000000000000000000000000000081526004016117299190613745565b60405180910390fd5b8273ffffffffffffffffffffffffffffffffffffffff166388a7ca5c868685856040518563ffffffff1660e01b81526004016117719493929190613d52565b6020604051808303815f875af19250505080156117ac57506040513d601f19601f820116820180604052508101906117a99190613db0565b60015b61182d573d805f81146117da576040519150601f19603f3d011682016040523d82523d5f602084013e6117df565b606091505b505f81510361182557836040517f8a96cd9c00000000000000000000000000000000000000000000000000000000815260040161181c9190613745565b60405180910390fd5b805181602001fd5b6388a7ca5c60e01b7bffffffffffffffffffffffffffffffffffffffffffffffffffffffff1916817bffffffffffffffffffffffffffffffffffffffffffffffffffffffff1916146118b657836040517f8a96cd9c0000000000000000000000000000000000000000000000000000000081526004016118ad9190613745565b60405180910390fd5b505050505050565b5f73ffffffffffffffffffffffffffffffffffffffff168273ffffffffffffffffffffffffffffffffffffffff160361192e575f6040517fec442f050000000000000000000000000000000000000000000000000000000081526004016119259190613745565b60405180910390fd5b6119395f83836124ad565b5050565b5f73ffffffffffffffffffffffffffffffffffffffff168273ffffffffffffffffffffffffffffffffffffffff16036119ad575f6040517f96c6fd1e0000000000000000000000000000000000000000000000000000000081526004016119a49190613745565b60405180910390fd5b6119b8825f836124ad565b5050565b5f5f6119c6612560565b90508091505090565b6119d7612589565b6119e182826125c9565b5050565b6119ed612589565b565b6119f7612589565b565b611a01612589565b611a0a81612605565b50565b611a15612589565b565b611a1f612589565b611a5e816040518060400160405280600181526020017f3100000000000000000000000000000000000000000000000000000000000000815250612689565b50565b611a69612589565b565b7f000000000000000000000000000000000000000000000000000000000000000073ffffffffffffffffffffffffffffffffffffffff163073ffffffffffffffffffffffffffffffffffffffff161480611b1857507f000000000000000000000000000000000000000000000000000000000000000073ffffffffffffffffffffffffffffffffffffffff16611aff6126da565b73ffffffffffffffffffffffffffffffffffffffff1614155b15611b4f576040517fe07c8dba00000000000000000000000000000000000000000000000000000000815260040160405180910390fd5b565b611b596115e2565b50565b8173ffffffffffffffffffffffffffffffffffffffff166352d1902d6040518163ffffffff1660e01b8152600401602060405180830381865afa925050508015611bc457506040513d601f19601f82011682018060405250810190611bc19190613def565b60015b611c0557816040517f4c9c8ce3000000000000000000000000000000000000000000000000000000008152600401611bfc9190613745565b60405180910390fd5b7f360894a13ba1a3210667c828492db98dca3e2076cc3735a920a3ca505d382bbc5f1b8114611c6b57806040517faa1d49a4000000000000000000000000000000000000000000000000000000008152600401611c629190613324565b60405180910390fd5b611c75838361272d565b505050565b7f000000000000000000000000000000000000000000000000000000000000000073ffffffffffffffffffffffffffffffffffffffff163073ffffffffffffffffffffffffffffffffffffffff1614611cff576040517fe07c8dba00000000000000000000000000000000000000000000000000000000815260040160405180910390fd5b565b5f7fcd5ed15c6e187e77e9aee88184c21f4f2182ab5827cb3b7e07fbedcd63f03300905090565b5f611d3161201e565b90505f815f015f9054906101000a900473ffffffffffffffffffffffffffffffffffffffff16905082825f015f6101000a81548173ffffffffffffffffffffffffffffffffffffffff021916908373ffffffffffffffffffffffffffffffffffffffff1602179055508273ffffffffffffffffffffffffffffffffffffffff168173ffffffffffffffffffffffffffffffffffffffff167f8be0079c531659141344cd1fd0a4f28419497f9722a3daafe3b4186f6b6457e060405160405180910390a3505050565b5f5f611e0361279f565b9050805f015f8473ffffffffffffffffffffffffffffffffffffffff1673ffffffffffffffffffffffffffffffffffffffff1681526020019081526020015f2054915050919050565b611e546127c6565b5f611e5d611d01565b90506001815f015f6101000a81548160ff0219169083151502179055507f62e78cea01bee320cd4e420270b5ea74000d11b0c9f74754ebdbfc544b05a258611ea3611438565b604051611eb09190613745565b60405180910390a150565b5f7fa16a46d94261c7517cc8ff89f61c0ce93598e3c849801011dee649a6a557d100905090565b60605f611eed611ebb565b9050806002018054611efe906138fc565b80601f0160208091040260200160405190810160405280929190818152602001828054611f2a906138fc565b8015611f755780601f10611f4c57610100808354040283529160200191611f75565b820191905f5260205f20905b815481529060010190602001808311611f5857829003601f168201915b505050505091505090565b60605f611f8b611ebb565b9050806003018054611f9c906138fc565b80601f0160208091040260200160405190810160405280929190818152602001828054611fc8906138fc565b80156120135780601f10611fea57610100808354040283529160200191612013565b820191905f5260205f20905b815481529060010190602001808311611ff657829003601f168201915b505050505091505090565b5f7f9016d09d72d40fdae2fd8ceac6b6234c7706214fd39c1cd1e609a0528c199300905090565b5f8373ffffffffffffffffffffffffffffffffffffffff163b036120a057826040517fdeb6d3ed0000000000000000000000000000000000000000000000000000000081526004016120979190613745565b60405180910390fd5b8273ffffffffffffffffffffffffffffffffffffffff16637b04a2d08584846040518463ffffffff1660e01b81526004016120dd93929190613e1a565b6020604051808303815f875af192505050801561211857506040513d601f19601f820116820180604052508101906121159190613db0565b60015b612199573d805f8114612146576040519150601f19603f3d011682016040523d82523d5f602084013e61214b565b606091505b505f81510361219157836040517fdeb6d3ed0000000000000000000000000000000000000000000000000000000081526004016121889190613745565b60405180910390fd5b805181602001fd5b637b04a2d060e01b7bffffffffffffffffffffffffffffffffffffffffffffffffffffffff1916817bffffffffffffffffffffffffffffffffffffffffffffffffffffffff19161461222257836040517fdeb6d3ed0000000000000000000000000000000000000000000000000000000081526004016122199190613745565b60405180910390fd5b5050505050565b5f5f61223361279f565b9050805f015f8473ffffffffffffffffffffffffffffffffffffffff1673ffffffffffffffffffffffffffffffffffffffff1681526020019081526020015f205f81548092919060010191905055915050919050565b5f61229b6122956115d4565b83612807565b9050919050565b5f5f5f5f6122b288888888612847565b9250925092506122c2828261292e565b829350505050949350505050565b5f6122d9611411565b90505f73ffffffffffffffffffffffffffffffffffffffff168573ffffffffffffffffffffffffffffffffffffffff160361234b575f6040517fe602df050000000000000000000000000000000000000000000000000000000081526004016123429190613745565b60405180910390fd5b5f73ffffffffffffffffffffffffffffffffffffffff168473ffffffffffffffffffffffffffffffffffffffff16036123bb575f6040517f94280d620000000000000000000000000000000000000000000000000000000081526004016123b29190613745565b60405180910390fd5b82816001015f8773ffffffffffffffffffffffffffffffffffffffff1673ffffffffffffffffffffffffffffffffffffffff1681526020019081526020015f205f8673ffffffffffffffffffffffffffffffffffffffff1673ffffffffffffffffffffffffffffffffffffffff1681526020019081526020015f208190555081156124a6578373ffffffffffffffffffffffffffffffffffffffff168573ffffffffffffffffffffffffffffffffffffffff167f8c5be1e5ebec7d5bd14f71427d1e84f3dd0314c0f7b2291e5b200ac8c7c3b9258560405161249d919061326f565b60405180910390a35b5050505050565b6124b8838383612a90565b505050565b5f7f8b73c3c69bb8fe3d512ecc4cf759cc79239f7b179b0ffacaa9a75d522b39400f6124e7612aa8565b6124ef612b1e565b4630604051602001612505959493929190613e56565b60405160208183030381529060405280519060200120905090565b612528610d4c565b61255e576040517f8dfc202b00000000000000000000000000000000000000000000000000000000815260040160405180910390fd5b565b5f7ff0c57e16840df040f15088dc2f81fe391c3923bec73e23a9662efc9c229c6a005f1b905090565b612591612b95565b6125c7576040517fd7e6bcf800000000000000000000000000000000000000000000000000000000815260040160405180910390fd5b565b6125d1612589565b5f6125da611411565b9050828160030190816125ed919061403e565b50818160040190816125ff919061403e565b50505050565b61260d612589565b5f73ffffffffffffffffffffffffffffffffffffffff168173ffffffffffffffffffffffffffffffffffffffff160361267d575f6040517f1e4fbdf70000000000000000000000000000000000000000000000000000000081526004016126749190613745565b60405180910390fd5b61268681611d28565b50565b612691612589565b5f61269a611ebb565b9050828160020190816126ad919061403e565b50818160030190816126bf919061403e565b505f5f1b815f01819055505f5f1b8160010181905550505050565b5f6127067f360894a13ba1a3210667c828492db98dca3e2076cc3735a920a3ca505d382bbc5f1b612bb3565b5f015f9054906101000a900473ffffffffffffffffffffffffffffffffffffffff16905090565b61273682612bbc565b8173ffffffffffffffffffffffffffffffffffffffff167fbc7cd75a20ee27fd9adebab32041f755214dbc6bffa90cc0225b39da2e5c2d3b60405160405180910390a25f815111156127925761278c8282612c85565b5061279b565b61279a612d05565b5b5050565b5f7f5ab42ced628888259c08ac98db1eb0cf702fc1501344311d8b100cd1bfe4bb00905090565b6127ce610d4c565b15612805576040517fd93c066500000000000000000000000000000000000000000000000000000000815260040160405180910390fd5b565b5f6040517f190100000000000000000000000000000000000000000000000000000000000081528360028201528260228201526042812091505092915050565b5f5f5f7f7fffffffffffffffffffffffffffffff5d576e7357a4501ddfe92f46681b20a0845f1c1115612883575f600385925092509250612924565b5f6001888888886040515f81526020016040526040516128a6949392919061410d565b6020604051602081039080840390855afa1580156128c6573d5f5f3e3d5ffd5b5050506020604051035190505f73ffffffffffffffffffffffffffffffffffffffff168173ffffffffffffffffffffffffffffffffffffffff1603612917575f60015f5f1b93509350935050612924565b805f5f5f1b935093509350505b9450945094915050565b5f600381111561294157612940614150565b5b82600381111561295457612953614150565b5b0315612a8c576001600381111561296e5761296d614150565b5b82600381111561298157612980614150565b5b036129b8576040517ff645eedf00000000000000000000000000000000000000000000000000000000815260040160405180910390fd5b600260038111156129cc576129cb614150565b5b8260038111156129df576129de614150565b5b03612a2357805f1c6040517ffce698f7000000000000000000000000000000000000000000000000000000008152600401612a1a919061326f565b60405180910390fd5b600380811115612a3657612a35614150565b5b826003811115612a4957612a48614150565b5b03612a8b57806040517fd78bce0c000000000000000000000000000000000000000000000000000000008152600401612a829190613324565b60405180910390fd5b5b5050565b612a986127c6565b612aa3838383612d41565b505050565b5f5f612ab2611ebb565b90505f612abd611ee2565b90505f81511115612ad957808051906020012092505050612b1b565b5f825f015490505f5f1b8114612af457809350505050612b1b565b7fc5d2460186f7233c927e7db2dcc703c0e500b653ca82273b7bfad8045d85a47093505050505b90565b5f5f612b28611ebb565b90505f612b33611f80565b90505f81511115612b4f57808051906020012092505050612b92565b5f826001015490505f5f1b8114612b6b57809350505050612b92565b7fc5d2460186f7233c927e7db2dcc703c0e500b653ca82273b7bfad8045d85a47093505050505b90565b5f612b9e6119bc565b5f0160089054906101000a900460ff16905090565b5f819050919050565b5f8173ffffffffffffffffffffffffffffffffffffffff163b03612c1757806040517f4c9c8ce3000000000000000000000000000000000000000000000000000000008152600401612c0e9190613745565b60405180910390fd5b80612c437f360894a13ba1a3210667c828492db98dca3e2076cc3735a920a3ca505d382bbc5f1b612bb3565b5f015f6101000a81548173ffffffffffffffffffffffffffffffffffffffff021916908373ffffffffffffffffffffffffffffffffffffffff16021790555050565b60605f5f8473ffffffffffffffffffffffffffffffffffffffff1684604051612cae91906141b7565b5f60405180830381855af49150503d805f8114612ce6576040519150601f19603f3d011682016040523d82523d5f602084013e612ceb565b606091505b5091509150612cfb858383612f70565b9250505092915050565b5f341115612d3f576040517fb398979f00000000000000000000000000000000000000000000000000000000815260040160405180910390fd5b565b5f612d4a611411565b90505f73ffffffffffffffffffffffffffffffffffffffff168473ffffffffffffffffffffffffffffffffffffffff1603612d9e5781816002015f828254612d9291906141cd565b92505081905550612e70565b5f815f015f8673ffffffffffffffffffffffffffffffffffffffff1673ffffffffffffffffffffffffffffffffffffffff1681526020019081526020015f2054905082811015612e29578481846040517fe450d38c000000000000000000000000000000000000000000000000000000008152600401612e2093929190613ccb565b60405180910390fd5b828103825f015f8773ffffffffffffffffffffffffffffffffffffffff1673ffffffffffffffffffffffffffffffffffffffff1681526020019081526020015f2081905550505b5f73ffffffffffffffffffffffffffffffffffffffff168373ffffffffffffffffffffffffffffffffffffffff1603612eb95781816002015f8282540392505081905550612f05565b81815f015f8573ffffffffffffffffffffffffffffffffffffffff1673ffffffffffffffffffffffffffffffffffffffff1681526020019081526020015f205f82825401925050819055505b8273ffffffffffffffffffffffffffffffffffffffff168473ffffffffffffffffffffffffffffffffffffffff167fddf252ad1be2c89b69c2b068fc378daa952ba7f163c4a11628f55a4df523b3ef84604051612f62919061326f565b60405180910390a350505050565b606082612f8557612f8082612ffd565b612ff5565b5f8251148015612fab57505f8473ffffffffffffffffffffffffffffffffffffffff163b145b15612fed57836040517f9996b315000000000000000000000000000000000000000000000000000000008152600401612fe49190613745565b60405180910390fd5b819050612ff6565b5b9392505050565b5f8151111561300f5780518082602001fd5b6040517fd6bda27500000000000000000000000000000000000000000000000000000000815260040160405180910390fd5b5f604051905090565b5f5ffd5b5f5ffd5b5f7fffffffff0000000000000000000000000000000000000000000000000000000082169050919050565b61308681613052565b8114613090575f5ffd5b50565b5f813590506130a18161307d565b92915050565b5f602082840312156130bc576130bb61304a565b5b5f6130c984828501613093565b91505092915050565b5f8115159050919050565b6130e6816130d2565b82525050565b5f6020820190506130ff5f8301846130dd565b92915050565b5f81519050919050565b5f82825260208201905092915050565b8281835e5f83830152505050565b5f601f19601f8301169050919050565b5f61314782613105565b613151818561310f565b935061316181856020860161311f565b61316a8161312d565b840191505092915050565b5f6020820190508181035f83015261318d818461313d565b905092915050565b5f73ffffffffffffffffffffffffffffffffffffffff82169050919050565b5f6131be82613195565b9050919050565b6131ce816131b4565b81146131d8575f5ffd5b50565b5f813590506131e9816131c5565b92915050565b5f819050919050565b613201816131ef565b811461320b575f5ffd5b50565b5f8135905061321c816131f8565b92915050565b5f5f604083850312156132385761323761304a565b5b5f613245858286016131db565b92505060206132568582860161320e565b9150509250929050565b613269816131ef565b82525050565b5f6020820190506132825f830184613260565b92915050565b5f5f5f6060848603121561329f5761329e61304a565b5b5f6132ac868287016131db565b93505060206132bd868287016131db565b92505060406132ce8682870161320e565b9150509250925092565b5f60ff82169050919050565b6132ed816132d8565b82525050565b5f6020820190506133065f8301846132e4565b92915050565b5f819050919050565b61331e8161330c565b82525050565b5f6020820190506133375f830184613315565b92915050565b5f5ffd5b5f5ffd5b7f4e487b71000000000000000000000000000000000000000000000000000000005f52604160045260245ffd5b61337b8261312d565b810181811067ffffffffffffffff8211171561339a57613399613345565b5b80604052505050565b5f6133ac613041565b90506133b88282613372565b919050565b5f67ffffffffffffffff8211156133d7576133d6613345565b5b6133e08261312d565b9050602081019050919050565b828183375f83830152505050565b5f61340d613408846133bd565b6133a3565b90508281526020810184848401111561342957613428613341565b5b6134348482856133ed565b509392505050565b5f82601f8301126134505761344f61333d565b5b81356134608482602086016133fb565b91505092915050565b5f5f5f606084860312156134805761347f61304a565b5b5f61348d868287016131db565b935050602061349e8682870161320e565b925050604084013567ffffffffffffffff8111156134bf576134be61304e565b5b6134cb8682870161343c565b9150509250925092565b5f602082840312156134ea576134e961304a565b5b5f6134f78482850161320e565b91505092915050565b5f5f604083850312156135165761351561304a565b5b5f613523858286016131db565b9250506020613534858286016131db565b9150509250929050565b5f5f604083850312156135545761355361304a565b5b5f613561858286016131db565b925050602083013567ffffffffffffffff8111156135825761358161304e565b5b61358e8582860161343c565b9150509250929050565b5f602082840312156135ad576135ac61304a565b5b5f6135ba848285016131db565b91505092915050565b5f7fff0000000000000000000000000000000000000000000000000000000000000082169050919050565b6135f7816135c3565b82525050565b613606816131b4565b82525050565b5f81519050919050565b5f82825260208201905092915050565b5f819050602082019050919050565b61363e816131ef565b82525050565b5f61364f8383613635565b60208301905092915050565b5f602082019050919050565b5f6136718261360c565b61367b8185613616565b935061368683613626565b805f5b838110156136b657815161369d8882613644565b97506136a88361365b565b925050600181019050613689565b5085935050505092915050565b5f60e0820190506136d65f83018a6135ee565b81810360208301526136e8818961313d565b905081810360408301526136fc818861313d565b905061370b6060830187613260565b61371860808301866135fd565b61372560a0830185613315565b81810360c08301526137378184613667565b905098975050505050505050565b5f6020820190506137585f8301846135fd565b92915050565b5f5f5f5f608085870312156137765761377561304a565b5b5f613783878288016131db565b9450506020613794878288016131db565b93505060406137a58782880161320e565b925050606085013567ffffffffffffffff8111156137c6576137c561304e565b5b6137d28782880161343c565b91505092959194509250565b6137e7816132d8565b81146137f1575f5ffd5b50565b5f81359050613802816137de565b92915050565b6138118161330c565b811461381b575f5ffd5b50565b5f8135905061382c81613808565b92915050565b5f5f5f5f5f5f5f60e0888a03121561384d5761384c61304a565b5b5f61385a8a828b016131db565b975050602061386b8a828b016131db565b965050604061387c8a828b0161320e565b955050606061388d8a828b0161320e565b945050608061389e8a828b016137f4565b93505060a06138af8a828b0161381e565b92505060c06138c08a828b0161381e565b91505092959891949750929550565b7f4e487b71000000000000000000000000000000000000000000000000000000005f52602260045260245ffd5b5f600282049050600182168061391357607f821691505b602082108103613926576139256138cf565b5b50919050565b5f60408201905061393f5f8301856135fd565b61394c6020830184613260565b9392505050565b7f4e487b71000000000000000000000000000000000000000000000000000000005f52601160045260245ffd5b5f8160011c9050919050565b5f5f8291508390505b60018511156139d5578086048111156139b1576139b0613953565b5b60018516156139c05780820291505b80810290506139ce85613980565b9450613995565b94509492505050565b5f826139ed5760019050613aa8565b816139fa575f9050613aa8565b8160018114613a105760028114613a1a57613a49565b6001915050613aa8565b60ff841115613a2c57613a2b613953565b5b8360020a915084821115613a4357613a42613953565b5b50613aa8565b5060208310610133831016604e8410600b8410161715613a7e5782820a905083811115613a7957613a78613953565b5b613aa8565b613a8b848484600161398c565b92509050818404811115613aa257613aa1613953565b5b81810290505b9392505050565b5f613ab9826131ef565b9150613ac4836132d8565b9250613af17fffffffffffffffffffffffffffffffffffffffffffffffffffffffffffffffff84846139de565b905092915050565b5f613b03826131ef565b9150613b0e836131ef565b9250828202613b1c816131ef565b91508282048414831517613b3357613b32613953565b5b5092915050565b5f819050919050565b5f67ffffffffffffffff82169050919050565b5f819050919050565b5f613b79613b74613b6f84613b3a565b613b56565b613b43565b9050919050565b613b8981613b5f565b82525050565b5f602082019050613ba25f830184613b80565b92915050565b7f4549503731323a20556e696e697469616c697a656400000000000000000000005f82015250565b5f613bdc60158361310f565b9150613be782613ba8565b602082019050919050565b5f6020820190508181035f830152613c0981613bd0565b9050919050565b5f606082019050613c235f8301866135fd565b613c3060208301856135fd565b613c3d6040830184613260565b949350505050565b5f60c082019050613c585f830189613315565b613c6560208301886135fd565b613c7260408301876135fd565b613c7f6060830186613260565b613c8c6080830185613260565b613c9960a0830184613260565b979650505050505050565b5f604082019050613cb75f8301856135fd565b613cc460208301846135fd565b9392505050565b5f606082019050613cde5f8301866135fd565b613ceb6020830185613260565b613cf86040830184613260565b949350505050565b5f81519050919050565b5f82825260208201905092915050565b5f613d2482613d00565b613d2e8185613d0a565b9350613d3e81856020860161311f565b613d478161312d565b840191505092915050565b5f608082019050613d655f8301876135fd565b613d7260208301866135fd565b613d7f6040830185613260565b8181036060830152613d918184613d1a565b905095945050505050565b5f81519050613daa8161307d565b92915050565b5f60208284031215613dc557613dc461304a565b5b5f613dd284828501613d9c565b91505092915050565b5f81519050613de981613808565b92915050565b5f60208284031215613e0457613e0361304a565b5b5f613e1184828501613ddb565b91505092915050565b5f606082019050613e2d5f8301866135fd565b613e3a6020830185613260565b8181036040830152613e4c8184613d1a565b9050949350505050565b5f60a082019050613e695f830188613315565b613e766020830187613315565b613e836040830186613315565b613e906060830185613260565b613e9d60808301846135fd565b9695505050505050565b5f819050815f5260205f209050919050565b5f6020601f8301049050919050565b5f82821b905092915050565b5f60088302613f037fffffffffffffffffffffffffffffffffffffffffffffffffffffffffffffffff82613ec8565b613f0d8683613ec8565b95508019841693508086168417925050509392505050565b5f613f3f613f3a613f35846131ef565b613b56565b6131ef565b9050919050565b5f819050919050565b613f5883613f25565b613f6c613f6482613f46565b848454613ed4565b825550505050565b5f5f905090565b613f83613f74565b613f8e818484613f4f565b505050565b5b81811015613fb157613fa65f82613f7b565b600181019050613f94565b5050565b601f821115613ff657613fc781613ea7565b613fd084613eb9565b81016020851015613fdf578190505b613ff3613feb85613eb9565b830182613f93565b50505b505050565b5f82821c905092915050565b5f6140165f1984600802613ffb565b1980831691505092915050565b5f61402e8383614007565b9150826002028217905092915050565b61404782613105565b67ffffffffffffffff8111156140605761405f613345565b5b61406a82546138fc565b614075828285613fb5565b5f60209050601f8311600181146140a6575f8415614094578287015190505b61409e8582614023565b865550614105565b601f1984166140b486613ea7565b5f5b828110156140db578489015182556001820191506020850194506020810190506140b6565b868310156140f857848901516140f4601f891682614007565b8355505b6001600288020188555050505b505050505050565b5f6080820190506141205f830187613315565b61412d60208301866132e4565b61413a6040830185613315565b6141476060830184613315565b95945050505050565b7f4e487b71000000000000000000000000000000000000000000000000000000005f52602160045260245ffd5b5f81905092915050565b5f61419182613d00565b61419b818561417d565b93506141ab81856020860161311f565b80840191505092915050565b5f6141c28284614187565b915081905092915050565b5f6141d7826131ef565b91506141e2836131ef565b92508282019050808211156141fa576141f9613953565b5b9291505056fea26469706673582212206e7e786718971cff7f640b15a5b0465a2b7a83c5319cf521ef132dcaad47c2bb64736f6c634300081e0033",
			"opcodes": "PUSH1 0xA0 PUSH1 0x40 MSTORE ADDRESS PUSH20 0xFFFFFFFFFFFFFFFFFFFFFFFFFFFFFFFFFFFFFFFF AND PUSH1 0x80 SWAP1 PUSH20 0xFFFFFFFFFFFFFFFFFFFFFFFFFFFFFFFFFFFFFFFF AND DUP2 MSTORE POP CALLVALUE DUP1 ISZERO PUSH2 0x42 JUMPI PUSH0 PUSH0 REVERT JUMPDEST POP PUSH2 0x51 PUSH2 0x56 PUSH1 0x20 SHL PUSH1 0x20 SHR JUMP JUMPDEST PUSH2 0x1D1 JUMP JUMPDEST PUSH0 PUSH2 0x65 PUSH2 0x154 PUSH1 0x20 SHL PUSH1 0x20 SHR JUMP JUMPDEST SWAP1 POP DUP1 PUSH0 ADD PUSH1 0x8 SWAP1 SLOAD SWAP1 PUSH2 0x100 EXP SWAP1 DIV PUSH1 0xFF AND ISZERO PUSH2 0xAF JUMPI PUSH1 0x40 MLOAD PUSH32 0xF92EE8A900000000000000000000000000000000000000000000000000000000 DUP2 MSTORE PUSH1 0x4 ADD PUSH1 0x40 MLOAD DUP1 SWAP2 SUB SWAP1 REVERT JUMPDEST PUSH8 0xFFFFFFFFFFFFFFFF DUP1 AND DUP2 PUSH0 ADD PUSH0 SWAP1 SLOAD SWAP1 PUSH2 0x100 EXP SWAP1 DIV PUSH8 0xFFFFFFFFFFFFFFFF AND PUSH8 0xFFFFFFFFFFFFFFFF AND EQ PUSH2 0x151 JUMPI PUSH8 0xFFFFFFFFFFFFFFFF DUP2 PUSH0 ADD PUSH0 PUSH2 0x100 EXP DUP2 SLOAD DUP2 PUSH8 0xFFFFFFFFFFFFFFFF MUL NOT AND SWAP1 DUP4 PUSH8 0xFFFFFFFFFFFFFFFF AND MUL OR SWAP1 SSTORE POP PUSH32 0xC7F505B2F371AE2175EE4913F4499E1F2633A7B5936321EED1CDAEB6115181D2 PUSH8 0xFFFFFFFFFFFFFFFF PUSH1 0x40 MLOAD PUSH2 0x148 SWAP2 SWAP1 PUSH2 0x1B8 JUMP JUMPDEST PUSH1 0x40 MLOAD DUP1 SWAP2 SUB SWAP1 LOG1 JUMPDEST POP JUMP JUMPDEST PUSH0 PUSH0 PUSH2 0x164 PUSH2 0x16D PUSH1 0x20 SHL PUSH1 0x20 SHR JUMP JUMPDEST SWAP1 POP DUP1 SWAP2 POP POP SWAP1 JUMP JUMPDEST PUSH0 PUSH32 0xF0C57E16840DF040F15088DC2F81FE391C3923BEC73E23A9662EFC9C229C6A00 PUSH0 SHL SWAP1 POP SWAP1 JUMP JUMPDEST PUSH0 PUSH8 0xFFFFFFFFFFFFFFFF DUP3 AND SWAP1 POP SWAP2 SWAP1 POP JUMP JUMPDEST PUSH2 0x1B2 DUP2 PUSH2 0x196 JUMP JUMPDEST DUP3 MSTORE POP POP JUMP JUMPDEST PUSH0 PUSH1 0x20 DUP3 ADD SWAP1 POP PUSH2 0x1CB PUSH0 DUP4 ADD DUP5 PUSH2 0x1A9 JUMP JUMPDEST SWAP3 SWAP2 POP POP JUMP JUMPDEST PUSH1 0x80 MLOAD PUSH2 0x4236 PUSH2 0x1F7 PUSH0 CODECOPY PUSH0 DUP2 DUP2 PUSH2 0x1A6D ADD MSTORE DUP2 DUP2 PUSH2 0x1AC2 ADD MSTORE PUSH2 0x1C7C ADD MSTORE PUSH2 0x4236 PUSH0 RETURN INVALID PUSH1 0x80 PUSH1 0x40 MSTORE PUSH1 0x4 CALLDATASIZE LT PUSH2 0x1ED JUMPI PUSH0 CALLDATALOAD PUSH1 0xE0 SHR DUP1 PUSH4 0x5C975ABB GT PUSH2 0x10C JUMPI DUP1 PUSH4 0x95D89B41 GT PUSH2 0x9F JUMPI DUP1 PUSH4 0xCAE9CA51 GT PUSH2 0x6E JUMPI DUP1 PUSH4 0xCAE9CA51 EQ PUSH2 0x6F1 JUMPI DUP1 PUSH4 0xD505ACCF EQ PUSH2 0x72D JUMPI DUP1 PUSH4 0xD8FBE994 EQ PUSH2 0x755 JUMPI DUP1 PUSH4 0xDD62ED3E EQ PUSH2 0x791 JUMPI DUP1 PUSH4 0xF2FDE38B EQ PUSH2 0x7CD JUMPI PUSH2 0x1ED JUMP JUMPDEST DUP1 PUSH4 0x95D89B41 EQ PUSH2 0x625 JUMPI DUP1 PUSH4 0xA9059CBB EQ PUSH2 0x64F JUMPI DUP1 PUSH4 0xAD3CB1CC EQ PUSH2 0x68B JUMPI DUP1 PUSH4 0xC1D34B89 EQ PUSH2 0x6B5 JUMPI PUSH2 0x1ED JUMP JUMPDEST DUP1 PUSH4 0x7ECEBE00 GT PUSH2 0xDB JUMPI DUP1 PUSH4 0x7ECEBE00 EQ PUSH2 0x579 JUMPI DUP1 PUSH4 0x8456CB59 EQ PUSH2 0x5B5 JUMPI DUP1 PUSH4 0x84B0196E EQ PUSH2 0x5CB JUMPI DUP1 PUSH4 0x8DA5CB5B EQ PUSH2 0x5FB JUMPI PUSH2 0x1ED JUMP JUMPDEST DUP1 PUSH4 0x5C975ABB EQ PUSH2 0x4D5 JUMPI DUP1 PUSH4 0x70A08231 EQ PUSH2 0x4FF JUMPI DUP1 PUSH4 0x715018A6 EQ PUSH2 0x53B JUMPI DUP1 PUSH4 0x79CC6790 EQ PUSH2 0x551 JUMPI PUSH2 0x1ED JUMP JUMPDEST DUP1 PUSH4 0x3644E515 GT PUSH2 0x184 JUMPI DUP1 PUSH4 0x42966C68 GT PUSH2 0x153 JUMPI DUP1 PUSH4 0x42966C68 EQ PUSH2 0x43F JUMPI DUP1 PUSH4 0x485CC955 EQ PUSH2 0x467 JUMPI DUP1 PUSH4 0x4F1EF286 EQ PUSH2 0x48F JUMPI DUP1 PUSH4 0x52D1902D EQ PUSH2 0x4AB JUMPI PUSH2 0x1ED JUMP JUMPDEST DUP1 PUSH4 0x3644E515 EQ PUSH2 0x39B JUMPI DUP1 PUSH4 0x3F4BA83A EQ PUSH2 0x3C5 JUMPI DUP1 PUSH4 0x4000AEA0 EQ PUSH2 0x3DB JUMPI DUP1 PUSH4 0x40C10F19 EQ PUSH2 0x417 JUMPI PUSH2 0x1ED JUMP JUMPDEST DUP1 PUSH4 0x18160DDD GT PUSH2 0x1C0 JUMPI DUP1 PUSH4 0x18160DDD EQ PUSH2 0x2CF JUMPI DUP1 PUSH4 0x23B872DD EQ PUSH2 0x2F9 JUMPI DUP1 PUSH4 0x313CE567 EQ PUSH2 0x335 JUMPI DUP1 PUSH4 0x3177029F EQ PUSH2 0x35F JUMPI PUSH2 0x1ED JUMP JUMPDEST DUP1 PUSH4 0x1FFC9A7 EQ PUSH2 0x1F1 JUMPI DUP1 PUSH4 0x6FDDE03 EQ PUSH2 0x22D JUMPI DUP1 PUSH4 0x95EA7B3 EQ PUSH2 0x257 JUMPI DUP1 PUSH4 0x1296EE62 EQ PUSH2 0x293 JUMPI JUMPDEST PUSH0 PUSH0 REVERT JUMPDEST CALLVALUE DUP1 ISZERO PUSH2 0x1FC JUMPI PUSH0 PUSH0 REVERT JUMPDEST POP PUSH2 0x217 PUSH1 0x4 DUP1 CALLDATASIZE SUB DUP2 ADD SWAP1 PUSH2 0x212 SWAP2 SWAP1 PUSH2 0x30A7 JUMP JUMPDEST PUSH2 0x7F5 JUMP JUMPDEST PUSH1 0x40 MLOAD PUSH2 0x224 SWAP2 SWAP1 PUSH2 0x30EC JUMP JUMPDEST PUSH1 0x40 MLOAD DUP1 SWAP2 SUB SWAP1 RETURN JUMPDEST CALLVALUE DUP1 ISZERO PUSH2 0x238 JUMPI PUSH0 PUSH0 REVERT JUMPDEST POP PUSH2 0x241 PUSH2 0x86E JUMP JUMPDEST PUSH1 0x40 MLOAD PUSH2 0x24E SWAP2 SWAP1 PUSH2 0x3175 JUMP JUMPDEST PUSH1 0x40 MLOAD DUP1 SWAP2 SUB SWAP1 RETURN JUMPDEST CALLVALUE DUP1 ISZERO PUSH2 0x262 JUMPI PUSH0 PUSH0 REVERT JUMPDEST POP PUSH2 0x27D PUSH1 0x4 DUP1 CALLDATASIZE SUB DUP2 ADD SWAP1 PUSH2 0x278 SWAP2 SWAP1 PUSH2 0x3222 JUMP JUMPDEST PUSH2 0x90C JUMP JUMPDEST PUSH1 0x40 MLOAD PUSH2 0x28A SWAP2 SWAP1 PUSH2 0x30EC JUMP JUMPDEST PUSH1 0x40 MLOAD DUP1 SWAP2 SUB SWAP1 RETURN JUMPDEST CALLVALUE DUP1 ISZERO PUSH2 0x29E JUMPI PUSH0 PUSH0 REVERT JUMPDEST POP PUSH2 0x2B9 PUSH1 0x4 DUP1 CALLDATASIZE SUB DUP2 ADD SWAP1 PUSH2 0x2B4 SWAP2 SWAP1 PUSH2 0x3222 JUMP JUMPDEST PUSH2 0x92E JUMP JUMPDEST PUSH1 0x40 MLOAD PUSH2 0x2C6 SWAP2 SWAP1 PUSH2 0x30EC JUMP JUMPDEST PUSH1 0x40 MLOAD DUP1 SWAP2 SUB SWAP1 RETURN JUMPDEST CALLVALUE DUP1 ISZERO PUSH2 0x2DA JUMPI PUSH0 PUSH0 REVERT JUMPDEST POP PUSH2 0x2E3 PUSH2 0x950 JUMP JUMPDEST PUSH1 0x40 MLOAD PUSH2 0x2F0 SWAP2 SWAP1 PUSH2 0x326F JUMP JUMPDEST PUSH1 0x40 MLOAD DUP1 SWAP2 SUB SWAP1 RETURN JUMPDEST CALLVALUE DUP1 ISZERO PUSH2 0x304 JUMPI PUSH0 PUSH0 REVERT JUMPDEST POP PUSH2 0x31F PUSH1 0x4 DUP1 CALLDATASIZE SUB DUP2 ADD SWAP1 PUSH2 0x31A SWAP2 SWAP1 PUSH2 0x3288 JUMP JUMPDEST PUSH2 0x967 JUMP JUMPDEST PUSH1 0x40 MLOAD PUSH2 0x32C SWAP2 SWAP1 PUSH2 0x30EC JUMP JUMPDEST PUSH1 0x40 MLOAD DUP1 SWAP2 SUB SWAP1 RETURN JUMPDEST CALLVALUE DUP1 ISZERO PUSH2 0x340 JUMPI PUSH0 PUSH0 REVERT JUMPDEST POP PUSH2 0x349 PUSH2 0x995 JUMP JUMPDEST PUSH1 0x40 MLOAD PUSH2 0x356 SWAP2 SWAP1 PUSH2 0x32F3 JUMP JUMPDEST PUSH1 0x40 MLOAD DUP1 SWAP2 SUB SWAP1 RETURN JUMPDEST CALLVALUE DUP1 ISZERO PUSH2 0x36A JUMPI PUSH0 PUSH0 REVERT JUMPDEST POP PUSH2 0x385 PUSH1 0x4 DUP1 CALLDATASIZE SUB DUP2 ADD SWAP1 PUSH2 0x380 SWAP2 SWAP1 PUSH2 0x3222 JUMP JUMPDEST PUSH2 0x99D JUMP JUMPDEST PUSH1 0x40 MLOAD PUSH2 0x392 SWAP2 SWAP1 PUSH2 0x30EC JUMP JUMPDEST PUSH1 0x40 MLOAD DUP1 SWAP2 SUB SWAP1 RETURN JUMPDEST CALLVALUE DUP1 ISZERO PUSH2 0x3A6 JUMPI PUSH0 PUSH0 REVERT JUMPDEST POP PUSH2 0x3AF PUSH2 0x9BF JUMP JUMPDEST PUSH1 0x40 MLOAD PUSH2 0x3BC SWAP2 SWAP1 PUSH2 0x3324 JUMP JUMPDEST PUSH1 0x40 MLOAD DUP1 SWAP2 SUB SWAP1 RETURN JUMPDEST CALLVALUE DUP1 ISZERO PUSH2 0x3D0 JUMPI PUSH0 PUSH0 REVERT JUMPDEST POP PUSH2 0x3D9 PUSH2 0x9CD JUMP JUMPDEST STOP JUMPDEST CALLVALUE DUP1 ISZERO PUSH2 0x3E6 JUMPI PUSH0 PUSH0 REVERT JUMPDEST POP PUSH2 0x401 PUSH1 0x4 DUP1 CALLDATASIZE SUB DUP2 ADD SWAP1 PUSH2 0x3FC SWAP2 SWAP1 PUSH2 0x3469 JUMP JUMPDEST PUSH2 0x9DF JUMP JUMPDEST PUSH1 0x40 MLOAD PUSH2 0x40E SWAP2 SWAP1 PUSH2 0x30EC JUMP JUMPDEST PUSH1 0x40 MLOAD DUP1 SWAP2 SUB SWAP1 RETURN JUMPDEST CALLVALUE DUP1 ISZERO PUSH2 0x422 JUMPI PUSH0 PUSH0 REVERT JUMPDEST POP PUSH2 0x43D PUSH1 0x4 DUP1 CALLDATASIZE SUB DUP2 ADD SWAP1 PUSH2 0x438 SWAP2 SWAP1 PUSH2 0x3222 JUMP JUMPDEST PUSH2 0xA53 JUMP JUMPDEST STOP JUMPDEST CALLVALUE DUP1 ISZERO PUSH2 0x44A JUMPI PUSH0 PUSH0 REVERT JUMPDEST POP PUSH2 0x465 PUSH1 0x4 DUP1 CALLDATASIZE SUB DUP2 ADD SWAP1 PUSH2 0x460 SWAP2 SWAP1 PUSH2 0x34D5 JUMP JUMPDEST PUSH2 0xA69 JUMP JUMPDEST STOP JUMPDEST CALLVALUE DUP1 ISZERO PUSH2 0x472 JUMPI PUSH0 PUSH0 REVERT JUMPDEST POP PUSH2 0x48D PUSH1 0x4 DUP1 CALLDATASIZE SUB DUP2 ADD SWAP1 PUSH2 0x488 SWAP2 SWAP1 PUSH2 0x3500 JUMP JUMPDEST PUSH2 0xA7D JUMP JUMPDEST STOP JUMPDEST PUSH2 0x4A9 PUSH1 0x4 DUP1 CALLDATASIZE SUB DUP2 ADD SWAP1 PUSH2 0x4A4 SWAP2 SWAP1 PUSH2 0x353E JUMP JUMPDEST PUSH2 0xCFC JUMP JUMPDEST STOP JUMPDEST CALLVALUE DUP1 ISZERO PUSH2 0x4B6 JUMPI PUSH0 PUSH0 REVERT JUMPDEST POP PUSH2 0x4BF PUSH2 0xD1B JUMP JUMPDEST PUSH1 0x40 MLOAD PUSH2 0x4CC SWAP2 SWAP1 PUSH2 0x3324 JUMP JUMPDEST PUSH1 0x40 MLOAD DUP1 SWAP2 SUB SWAP1 RETURN JUMPDEST CALLVALUE DUP1 ISZERO PUSH2 0x4E0 JUMPI PUSH0 PUSH0 REVERT JUMPDEST POP PUSH2 0x4E9 PUSH2 0xD4C JUMP JUMPDEST PUSH1 0x40 MLOAD PUSH2 0x4F6 SWAP2 SWAP1 PUSH2 0x30EC JUMP JUMPDEST PUSH1 0x40 MLOAD DUP1 SWAP2 SUB SWAP1 RETURN JUMPDEST CALLVALUE DUP1 ISZERO PUSH2 0x50A JUMPI PUSH0 PUSH0 REVERT JUMPDEST POP PUSH2 0x525 PUSH1 0x4 DUP1 CALLDATASIZE SUB DUP2 ADD SWAP1 PUSH2 0x520 SWAP2 SWAP1 PUSH2 0x3598 JUMP JUMPDEST PUSH2 0xD6E JUMP JUMPDEST PUSH1 0x40 MLOAD PUSH2 0x532 SWAP2 SWAP1 PUSH2 0x326F JUMP JUMPDEST PUSH1 0x40 MLOAD DUP1 SWAP2 SUB SWAP1 RETURN JUMPDEST CALLVALUE DUP1 ISZERO PUSH2 0x546 JUMPI PUSH0 PUSH0 REVERT JUMPDEST POP PUSH2 0x54F PUSH2 0xDC1 JUMP JUMPDEST STOP JUMPDEST CALLVALUE DUP1 ISZERO PUSH2 0x55C JUMPI PUSH0 PUSH0 REVERT JUMPDEST POP PUSH2 0x577 PUSH1 0x4 DUP1 CALLDATASIZE SUB DUP2 ADD SWAP1 PUSH2 0x572 SWAP2 SWAP1 PUSH2 0x3222 JUMP JUMPDEST PUSH2 0xDD4 JUMP JUMPDEST STOP JUMPDEST CALLVALUE DUP1 ISZERO PUSH2 0x584 JUMPI PUSH0 PUSH0 REVERT JUMPDEST POP PUSH2 0x59F PUSH1 0x4 DUP1 CALLDATASIZE SUB DUP2 ADD SWAP1 PUSH2 0x59A SWAP2 SWAP1 PUSH2 0x3598 JUMP JUMPDEST PUSH2 0xDF4 JUMP JUMPDEST PUSH1 0x40 MLOAD PUSH2 0x5AC SWAP2 SWAP1 PUSH2 0x326F JUMP JUMPDEST PUSH1 0x40 MLOAD DUP1 SWAP2 SUB SWAP1 RETURN JUMPDEST CALLVALUE DUP1 ISZERO PUSH2 0x5C0 JUMPI PUSH0 PUSH0 REVERT JUMPDEST POP PUSH2 0x5C9 PUSH2 0xE05 JUMP JUMPDEST STOP JUMPDEST CALLVALUE DUP1 ISZERO PUSH2 0x5D6 JUMPI PUSH0 PUSH0 REVERT JUMPDEST POP PUSH2 0x5DF PUSH2 0xE17 JUMP JUMPDEST PUSH1 0x40 MLOAD PUSH2 0x5F2 SWAP8 SWAP7 SWAP6 SWAP5 SWAP4 SWAP3 SWAP2 SWAP1 PUSH2 0x36C3 JUMP JUMPDEST PUSH1 0x40 MLOAD DUP1 SWAP2 SUB SWAP1 RETURN JUMPDEST CALLVALUE DUP1 ISZERO PUSH2 0x606 JUMPI PUSH0 PUSH0 REVERT JUMPDEST POP PUSH2 0x60F PUSH2 0xF20 JUMP JUMPDEST PUSH1 0x40 MLOAD PUSH2 0x61C SWAP2 SWAP1 PUSH2 0x3745 JUMP JUMPDEST PUSH1 0x40 MLOAD DUP1 SWAP2 SUB SWAP1 RETURN JUMPDEST CALLVALUE DUP1 ISZERO PUSH2 0x630 JUMPI PUSH0 PUSH0 REVERT JUMPDEST POP PUSH2 0x639 PUSH2 0xF55 JUMP JUMPDEST PUSH1 0x40 MLOAD PUSH2 0x646 SWAP2 SWAP1 PUSH2 0x3175 JUMP JUMPDEST PUSH1 0x40 MLOAD DUP1 SWAP2 SUB SWAP1 RETURN JUMPDEST CALLVALUE DUP1 ISZERO PUSH2 0x65A JUMPI PUSH0 PUSH0 REVERT JUMPDEST POP PUSH2 0x675 PUSH1 0x4 DUP1 CALLDATASIZE SUB DUP2 ADD SWAP1 PUSH2 0x670 SWAP2 SWAP1 PUSH2 0x3222 JUMP JUMPDEST PUSH2 0xFF3 JUMP JUMPDEST PUSH1 0x40 MLOAD PUSH2 0x682 SWAP2 SWAP1 PUSH2 0x30EC JUMP JUMPDEST PUSH1 0x40 MLOAD DUP1 SWAP2 SUB SWAP1 RETURN JUMPDEST CALLVALUE DUP1 ISZERO PUSH2 0x696 JUMPI PUSH0 PUSH0 REVERT JUMPDEST POP PUSH2 0x69F PUSH2 0x1015 JUMP JUMPDEST PUSH1 0x40 MLOAD PUSH2 0x6AC SWAP2 SWAP1 PUSH2 0x3175 JUMP JUMPDEST PUSH1 0x40 MLOAD DUP1 SWAP2 SUB SWAP1 RETURN JUMPDEST CALLVALUE DUP1 ISZERO PUSH2 0x6C0 JUMPI PUSH0 PUSH0 REVERT JUMPDEST POP PUSH2 0x6DB PUSH1 0x4 DUP1 CALLDATASIZE SUB DUP2 ADD SWAP1 PUSH2 0x6D6 SWAP2 SWAP1 PUSH2 0x375E JUMP JUMPDEST PUSH2 0x104E JUMP JUMPDEST PUSH1 0x40 MLOAD PUSH2 0x6E8 SWAP2 SWAP1 PUSH2 0x30EC JUMP JUMPDEST PUSH1 0x40 MLOAD DUP1 SWAP2 SUB SWAP1 RETURN JUMPDEST CALLVALUE DUP1 ISZERO PUSH2 0x6FC JUMPI PUSH0 PUSH0 REVERT JUMPDEST POP PUSH2 0x717 PUSH1 0x4 DUP1 CALLDATASIZE SUB DUP2 ADD SWAP1 PUSH2 0x712 SWAP2 SWAP1 PUSH2 0x3469 JUMP JUMPDEST PUSH2 0x10BF JUMP JUMPDEST PUSH1 0x40 MLOAD PUSH2 0x724 SWAP2 SWAP1 PUSH2 0x30EC JUMP JUMPDEST PUSH1 0x40 MLOAD DUP1 SWAP2 SUB SWAP1 RETURN JUMPDEST CALLVALUE DUP1 ISZERO PUSH2 0x738 JUMPI PUSH0 PUSH0 REVERT JUMPDEST POP PUSH2 0x753 PUSH1 0x4 DUP1 CALLDATASIZE SUB DUP2 ADD SWAP1 PUSH2 0x74E SWAP2 SWAP1 PUSH2 0x3832 JUMP JUMPDEST PUSH2 0x112B JUMP JUMPDEST STOP JUMPDEST CALLVALUE DUP1 ISZERO PUSH2 0x760 JUMPI PUSH0 PUSH0 REVERT JUMPDEST POP PUSH2 0x77B PUSH1 0x4 DUP1 CALLDATASIZE SUB DUP2 ADD SWAP1 PUSH2 0x776 SWAP2 SWAP1 PUSH2 0x3288 JUMP JUMPDEST PUSH2 0x1270 JUMP JUMPDEST PUSH1 0x40 MLOAD PUSH2 0x788 SWAP2 SWAP1 PUSH2 0x30EC JUMP JUMPDEST PUSH1 0x40 MLOAD DUP1 SWAP2 SUB SWAP1 RETURN JUMPDEST CALLVALUE DUP1 ISZERO PUSH2 0x79C JUMPI PUSH0 PUSH0 REVERT JUMPDEST POP PUSH2 0x7B7 PUSH1 0x4 DUP1 CALLDATASIZE SUB DUP2 ADD SWAP1 PUSH2 0x7B2 SWAP2 SWAP1 PUSH2 0x3500 JUMP JUMPDEST PUSH2 0x1294 JUMP JUMPDEST PUSH1 0x40 MLOAD PUSH2 0x7C4 SWAP2 SWAP1 PUSH2 0x326F JUMP JUMPDEST PUSH1 0x40 MLOAD DUP1 SWAP2 SUB SWAP1 RETURN JUMPDEST CALLVALUE DUP1 ISZERO PUSH2 0x7D8 JUMPI PUSH0 PUSH0 REVERT JUMPDEST POP PUSH2 0x7F3 PUSH1 0x4 DUP1 CALLDATASIZE SUB DUP2 ADD SWAP1 PUSH2 0x7EE SWAP2 SWAP1 PUSH2 0x3598 JUMP JUMPDEST PUSH2 0x1324 JUMP JUMPDEST STOP JUMPDEST PUSH0 PUSH32 0xB0202A1100000000000000000000000000000000000000000000000000000000 PUSH28 0xFFFFFFFFFFFFFFFFFFFFFFFFFFFFFFFFFFFFFFFFFFFFFFFFFFFFFFFF NOT AND DUP3 PUSH28 0xFFFFFFFFFFFFFFFFFFFFFFFFFFFFFFFFFFFFFFFFFFFFFFFFFFFFFFFF NOT AND EQ DUP1 PUSH2 0x867 JUMPI POP PUSH2 0x866 DUP3 PUSH2 0x13A8 JUMP JUMPDEST JUMPDEST SWAP1 POP SWAP2 SWAP1 POP JUMP JUMPDEST PUSH1 0x60 PUSH0 PUSH2 0x879 PUSH2 0x1411 JUMP JUMPDEST SWAP1 POP DUP1 PUSH1 0x3 ADD DUP1 SLOAD PUSH2 0x88A SWAP1 PUSH2 0x38FC JUMP JUMPDEST DUP1 PUSH1 0x1F ADD PUSH1 0x20 DUP1 SWAP2 DIV MUL PUSH1 0x20 ADD PUSH1 0x40 MLOAD SWAP1 DUP2 ADD PUSH1 0x40 MSTORE DUP1 SWAP3 SWAP2 SWAP1 DUP2 DUP2 MSTORE PUSH1 0x20 ADD DUP3 DUP1 SLOAD PUSH2 0x8B6 SWAP1 PUSH2 0x38FC JUMP JUMPDEST DUP1 ISZERO PUSH2 0x901 JUMPI DUP1 PUSH1 0x1F LT PUSH2 0x8D8 JUMPI PUSH2 0x100 DUP1 DUP4 SLOAD DIV MUL DUP4 MSTORE SWAP2 PUSH1 0x20 ADD SWAP2 PUSH2 0x901 JUMP JUMPDEST DUP3 ADD SWAP2 SWAP1 PUSH0 MSTORE PUSH1 0x20 PUSH0 KECCAK256 SWAP1 JUMPDEST DUP2 SLOAD DUP2 MSTORE SWAP1 PUSH1 0x1 ADD SWAP1 PUSH1 0x20 ADD DUP1 DUP4 GT PUSH2 0x8E4 JUMPI DUP3 SWAP1 SUB PUSH1 0x1F AND DUP3 ADD SWAP2 JUMPDEST POP POP POP POP POP SWAP2 POP POP SWAP1 JUMP JUMPDEST PUSH0 PUSH0 PUSH2 0x916 PUSH2 0x1438 JUMP JUMPDEST SWAP1 POP PUSH2 0x923 DUP2 DUP6 DUP6 PUSH2 0x143F JUMP JUMPDEST PUSH1 0x1 SWAP2 POP POP SWAP3 SWAP2 POP POP JUMP JUMPDEST PUSH0 PUSH2 0x948 DUP4 DUP4 PUSH1 0x40 MLOAD DUP1 PUSH1 0x20 ADD PUSH1 0x40 MSTORE DUP1 PUSH0 DUP2 MSTORE POP PUSH2 0x9DF JUMP JUMPDEST SWAP1 POP SWAP3 SWAP2 POP POP JUMP JUMPDEST PUSH0 PUSH0 PUSH2 0x95A PUSH2 0x1411 JUMP JUMPDEST SWAP1 POP DUP1 PUSH1 0x2 ADD SLOAD SWAP2 POP POP SWAP1 JUMP JUMPDEST PUSH0 PUSH0 PUSH2 0x971 PUSH2 0x1438 JUMP JUMPDEST SWAP1 POP PUSH2 0x97E DUP6 DUP3 DUP6 PUSH2 0x1451 JUMP JUMPDEST PUSH2 0x989 DUP6 DUP6 DUP6 PUSH2 0x14E4 JUMP JUMPDEST PUSH1 0x1 SWAP2 POP POP SWAP4 SWAP3 POP POP POP JUMP JUMPDEST PUSH0 PUSH1 0x12 SWAP1 POP SWAP1 JUMP JUMPDEST PUSH0 PUSH2 0x9B7 DUP4 DUP4 PUSH1 0x40 MLOAD DUP1 PUSH1 0x20 ADD PUSH1 0x40 MSTORE DUP1 PUSH0 DUP2 MSTORE POP PUSH2 0x10BF JUMP JUMPDEST SWAP1 POP SWAP3 SWAP2 POP POP JUMP JUMPDEST PUSH0 PUSH2 0x9C8 PUSH2 0x15D4 JUMP JUMPDEST SWAP1 POP SWAP1 JUMP JUMPDEST PUSH2 0x9D5 PUSH2 0x15E2 JUMP JUMPDEST PUSH2 0x9DD PUSH2 0x1669 JUMP JUMPDEST JUMP JUMPDEST PUSH0 PUSH2 0x9EA DUP5 DUP5 PUSH2 0xFF3 JUMP JUMPDEST PUSH2 0xA2D JUMPI DUP4 DUP4 PUSH1 0x40 MLOAD PUSH32 0x231B03AE00000000000000000000000000000000000000000000000000000000 DUP2 MSTORE PUSH1 0x4 ADD PUSH2 0xA24 SWAP3 SWAP2 SWAP1 PUSH2 0x392C JUMP JUMPDEST PUSH1 0x40 MLOAD DUP1 SWAP2 SUB SWAP1 REVERT JUMPDEST PUSH2 0xA48 PUSH2 0xA38 PUSH2 0x1438 JUMP JUMPDEST PUSH2 0xA40 PUSH2 0x1438 JUMP JUMPDEST DUP7 DUP7 DUP7 PUSH2 0x16D7 JUMP JUMPDEST PUSH1 0x1 SWAP1 POP SWAP4 SWAP3 POP POP POP JUMP JUMPDEST PUSH2 0xA5B PUSH2 0x15E2 JUMP JUMPDEST PUSH2 0xA65 DUP3 DUP3 PUSH2 0x18BE JUMP JUMPDEST POP POP JUMP JUMPDEST PUSH2 0xA7A PUSH2 0xA74 PUSH2 0x1438 JUMP JUMPDEST DUP3 PUSH2 0x193D JUMP JUMPDEST POP JUMP JUMPDEST PUSH0 PUSH2 0xA86 PUSH2 0x19BC JUMP JUMPDEST SWAP1 POP PUSH0 DUP2 PUSH0 ADD PUSH1 0x8 SWAP1 SLOAD SWAP1 PUSH2 0x100 EXP SWAP1 DIV PUSH1 0xFF AND ISZERO SWAP1 POP PUSH0 DUP3 PUSH0 ADD PUSH0 SWAP1 SLOAD SWAP1 PUSH2 0x100 EXP SWAP1 DIV PUSH8 0xFFFFFFFFFFFFFFFF AND SWAP1 POP PUSH0 PUSH0 DUP3 PUSH8 0xFFFFFFFFFFFFFFFF AND EQ DUP1 ISZERO PUSH2 0xACE JUMPI POP DUP3 JUMPDEST SWAP1 POP PUSH0 PUSH1 0x1 DUP4 PUSH8 0xFFFFFFFFFFFFFFFF AND EQ DUP1 ISZERO PUSH2 0xB01 JUMPI POP PUSH0 ADDRESS PUSH20 0xFFFFFFFFFFFFFFFFFFFFFFFFFFFFFFFFFFFFFFFF AND EXTCODESIZE EQ JUMPDEST SWAP1 POP DUP2 ISZERO DUP1 ISZERO PUSH2 0xB0F JUMPI POP DUP1 ISZERO JUMPDEST ISZERO PUSH2 0xB46 JUMPI PUSH1 0x40 MLOAD PUSH32 0xF92EE8A900000000000000000000000000000000000000000000000000000000 DUP2 MSTORE PUSH1 0x4 ADD PUSH1 0x40 MLOAD DUP1 SWAP2 SUB SWAP1 REVERT JUMPDEST PUSH1 0x1 DUP6 PUSH0 ADD PUSH0 PUSH2 0x100 EXP DUP2 SLOAD DUP2 PUSH8 0xFFFFFFFFFFFFFFFF MUL NOT AND SWAP1 DUP4 PUSH8 0xFFFFFFFFFFFFFFFF AND MUL OR SWAP1 SSTORE POP DUP4 ISZERO PUSH2 0xB93 JUMPI PUSH1 0x1 DUP6 PUSH0 ADD PUSH1 0x8 PUSH2 0x100 EXP DUP2 SLOAD DUP2 PUSH1 0xFF MUL NOT AND SWAP1 DUP4 ISZERO ISZERO MUL OR SWAP1 SSTORE POP JUMPDEST PUSH2 0xC07 PUSH1 0x40 MLOAD DUP1 PUSH1 0x40 ADD PUSH1 0x40 MSTORE DUP1 PUSH1 0x9 DUP2 MSTORE PUSH1 0x20 ADD PUSH32 0x537566666F636174650000000000000000000000000000000000000000000000 DUP2 MSTORE POP PUSH1 0x40 MLOAD DUP1 PUSH1 0x40 ADD PUSH1 0x40 MSTORE DUP1 PUSH1 0x3 DUP2 MSTORE PUSH1 0x20 ADD PUSH32 0x574D530000000000000000000000000000000000000000000000000000000000 DUP2 MSTORE POP PUSH2 0x19CF JUMP JUMPDEST PUSH2 0xC0F PUSH2 0x19E5 JUMP JUMPDEST PUSH2 0xC17 PUSH2 0x19EF JUMP JUMPDEST PUSH2 0xC20 DUP7 PUSH2 0x19F9 JUMP JUMPDEST PUSH2 0xC28 PUSH2 0x1A0D JUMP JUMPDEST PUSH2 0xC66 PUSH1 0x40 MLOAD DUP1 PUSH1 0x40 ADD PUSH1 0x40 MSTORE DUP1 PUSH1 0x9 DUP2 MSTORE PUSH1 0x20 ADD PUSH32 0x537566666F636174650000000000000000000000000000000000000000000000 DUP2 MSTORE POP PUSH2 0x1A17 JUMP JUMPDEST PUSH2 0xC6E PUSH2 0x1A61 JUMP JUMPDEST PUSH2 0xC99 DUP8 PUSH2 0xC7A PUSH2 0x995 JUMP JUMPDEST PUSH1 0xA PUSH2 0xC86 SWAP2 SWAP1 PUSH2 0x3AAF JUMP JUMPDEST PUSH3 0xF4240 PUSH2 0xC94 SWAP2 SWAP1 PUSH2 0x3AF9 JUMP JUMPDEST PUSH2 0x18BE JUMP JUMPDEST DUP4 ISZERO PUSH2 0xCF3 JUMPI PUSH0 DUP6 PUSH0 ADD PUSH1 0x8 PUSH2 0x100 EXP DUP2 SLOAD DUP2 PUSH1 0xFF MUL NOT AND SWAP1 DUP4 ISZERO ISZERO MUL OR SWAP1 SSTORE POP PUSH32 0xC7F505B2F371AE2175EE4913F4499E1F2633A7B5936321EED1CDAEB6115181D2 PUSH1 0x1 PUSH1 0x40 MLOAD PUSH2 0xCEA SWAP2 SWAP1 PUSH2 0x3B8F JUMP JUMPDEST PUSH1 0x40 MLOAD DUP1 SWAP2 SUB SWAP1 LOG1 JUMPDEST POP POP POP POP POP POP POP JUMP JUMPDEST PUSH2 0xD04 PUSH2 0x1A6B JUMP JUMPDEST PUSH2 0xD0D DUP3 PUSH2 0x1B51 JUMP JUMPDEST PUSH2 0xD17 DUP3 DUP3 PUSH2 0x1B5C JUMP JUMPDEST POP POP JUMP JUMPDEST PUSH0 PUSH2 0xD24 PUSH2 0x1C7A JUMP JUMPDEST PUSH32 0x360894A13BA1A3210667C828492DB98DCA3E2076CC3735A920A3CA505D382BBC PUSH0 SHL SWAP1 POP SWAP1 JUMP JUMPDEST PUSH0 PUSH0 PUSH2 0xD56 PUSH2 0x1D01 JUMP JUMPDEST SWAP1 POP DUP1 PUSH0 ADD PUSH0 SWAP1 SLOAD SWAP1 PUSH2 0x100 EXP SWAP1 DIV PUSH1 0xFF AND SWAP2 POP POP SWAP1 JUMP JUMPDEST PUSH0 PUSH0 PUSH2 0xD78 PUSH2 0x1411 JUMP JUMPDEST SWAP1 POP DUP1 PUSH0 ADD PUSH0 DUP5 PUSH20 0xFFFFFFFFFFFFFFFFFFFFFFFFFFFFFFFFFFFFFFFF AND PUSH20 0xFFFFFFFFFFFFFFFFFFFFFFFFFFFFFFFFFFFFFFFF AND DUP2 MSTORE PUSH1 0x20 ADD SWAP1 DUP2 MSTORE PUSH1 0x20 ADD PUSH0 KECCAK256 SLOAD SWAP2 POP POP SWAP2 SWAP1 POP JUMP JUMPDEST PUSH2 0xDC9 PUSH2 0x15E2 JUMP JUMPDEST PUSH2 0xDD2 PUSH0 PUSH2 0x1D28 JUMP JUMPDEST JUMP JUMPDEST PUSH2 0xDE6 DUP3 PUSH2 0xDE0 PUSH2 0x1438 JUMP JUMPDEST DUP4 PUSH2 0x1451 JUMP JUMPDEST PUSH2 0xDF0 DUP3 DUP3 PUSH2 0x193D JUMP JUMPDEST POP POP JUMP JUMPDEST PUSH0 PUSH2 0xDFE DUP3 PUSH2 0x1DF9 JUMP JUMPDEST SWAP1 POP SWAP2 SWAP1 POP JUMP JUMPDEST PUSH2 0xE0D PUSH2 0x15E2 JUMP JUMPDEST PUSH2 0xE15 PUSH2 0x1E4C JUMP JUMPDEST JUMP JUMPDEST PUSH0 PUSH1 0x60 DUP1 PUSH0 PUSH0 PUSH0 PUSH1 0x60 PUSH0 PUSH2 0xE29 PUSH2 0x1EBB JUMP JUMPDEST SWAP1 POP PUSH0 PUSH0 SHL DUP2 PUSH0 ADD SLOAD EQ DUP1 ISZERO PUSH2 0xE44 JUMPI POP PUSH0 PUSH0 SHL DUP2 PUSH1 0x1 ADD SLOAD EQ JUMPDEST PUSH2 0xE83 JUMPI PUSH1 0x40 MLOAD PUSH32 0x8C379A000000000000000000000000000000000000000000000000000000000 DUP2 MSTORE PUSH1 0x4 ADD PUSH2 0xE7A SWAP1 PUSH2 0x3BF2 JUMP JUMPDEST PUSH1 0x40 MLOAD DUP1 SWAP2 SUB SWAP1 REVERT JUMPDEST PUSH2 0xE8B PUSH2 0x1EE2 JUMP JUMPDEST PUSH2 0xE93 PUSH2 0x1F80 JUMP JUMPDEST CHAINID ADDRESS PUSH0 PUSH0 SHL PUSH0 PUSH8 0xFFFFFFFFFFFFFFFF DUP2 GT ISZERO PUSH2 0xEB2 JUMPI PUSH2 0xEB1 PUSH2 0x3345 JUMP JUMPDEST JUMPDEST PUSH1 0x40 MLOAD SWAP1 DUP1 DUP3 MSTORE DUP1 PUSH1 0x20 MUL PUSH1 0x20 ADD DUP3 ADD PUSH1 0x40 MSTORE DUP1 ISZERO PUSH2 0xEE0 JUMPI DUP2 PUSH1 0x20 ADD PUSH1 0x20 DUP3 MUL DUP1 CALLDATASIZE DUP4 CALLDATACOPY DUP1 DUP3 ADD SWAP2 POP POP SWAP1 POP JUMPDEST POP PUSH32 0xF00000000000000000000000000000000000000000000000000000000000000 SWAP6 SWAP5 SWAP4 SWAP3 SWAP2 SWAP1 SWAP8 POP SWAP8 POP SWAP8 POP SWAP8 POP SWAP8 POP SWAP8 POP SWAP8 POP POP SWAP1 SWAP2 SWAP3 SWAP4 SWAP5 SWAP6 SWAP7 JUMP JUMPDEST PUSH0 PUSH0 PUSH2 0xF2A PUSH2 0x201E JUMP JUMPDEST SWAP1 POP DUP1 PUSH0 ADD PUSH0 SWAP1 SLOAD SWAP1 PUSH2 0x100 EXP SWAP1 DIV PUSH20 0xFFFFFFFFFFFFFFFFFFFFFFFFFFFFFFFFFFFFFFFF AND SWAP2 POP POP SWAP1 JUMP JUMPDEST PUSH1 0x60 PUSH0 PUSH2 0xF60 PUSH2 0x1411 JUMP JUMPDEST SWAP1 POP DUP1 PUSH1 0x4 ADD DUP1 SLOAD PUSH2 0xF71 SWAP1 PUSH2 0x38FC JUMP JUMPDEST DUP1 PUSH1 0x1F ADD PUSH1 0x20 DUP1 SWAP2 DIV MUL PUSH1 0x20 ADD PUSH1 0x40 MLOAD SWAP1 DUP2 ADD PUSH1 0x40 MSTORE DUP1 SWAP3 SWAP2 SWAP1 DUP2 DUP2 MSTORE PUSH1 0x20 ADD DUP3 DUP1 SLOAD PUSH2 0xF9D SWAP1 PUSH2 0x38FC JUMP JUMPDEST DUP1 ISZERO PUSH2 0xFE8 JUMPI DUP1 PUSH1 0x1F LT PUSH2 0xFBF JUMPI PUSH2 0x100 DUP1 DUP4 SLOAD DIV MUL DUP4 MSTORE SWAP2 PUSH1 0x20 ADD SWAP2 PUSH2 0xFE8 JUMP JUMPDEST DUP3 ADD SWAP2 SWAP1 PUSH0 MSTORE PUSH1 0x20 PUSH0 KECCAK256 SWAP1 JUMPDEST DUP2 SLOAD DUP2 MSTORE SWAP1 PUSH1 0x1 ADD SWAP1 PUSH1 0x20 ADD DUP1 DUP4 GT PUSH2 0xFCB JUMPI DUP3 SWAP1 SUB PUSH1 0x1F AND DUP3 ADD SWAP2 JUMPDEST POP POP POP POP POP SWAP2 POP POP SWAP1 JUMP JUMPDEST PUSH0 PUSH0 PUSH2 0xFFD PUSH2 0x1438 JUMP JUMPDEST SWAP1 POP PUSH2 0x100A DUP2 DUP6 DUP6 PUSH2 0x14E4 JUMP JUMPDEST PUSH1 0x1 SWAP2 POP POP SWAP3 SWAP2 POP POP JUMP JUMPDEST PUSH1 0x40 MLOAD DUP1 PUSH1 0x40 ADD PUSH1 0x40 MSTORE DUP1 PUSH1 0x5 DUP2 MSTORE PUSH1 0x20 ADD PUSH32 0x352E302E30000000000000000000000000000000000000000000000000000000 DUP2 MSTORE POP DUP2 JUMP JUMPDEST PUSH0 PUSH2 0x105A DUP6 DUP6 DUP6 PUSH2 0x967 JUMP JUMPDEST PUSH2 0x109F JUMPI DUP5 DUP5 DUP5 PUSH1 0x40 MLOAD PUSH32 0xB56855E600000000000000000000000000000000000000000000000000000000 DUP2 MSTORE PUSH1 0x4 ADD PUSH2 0x1096 SWAP4 SWAP3 SWAP2 SWAP1 PUSH2 0x3C10 JUMP JUMPDEST PUSH1 0x40 MLOAD DUP1 SWAP2 SUB SWAP1 REVERT JUMPDEST PUSH2 0x10B3 PUSH2 0x10AA PUSH2 0x1438 JUMP JUMPDEST DUP7 DUP7 DUP7 DUP7 PUSH2 0x16D7 JUMP JUMPDEST PUSH1 0x1 SWAP1 POP SWAP5 SWAP4 POP POP POP POP JUMP JUMPDEST PUSH0 PUSH2 0x10CA DUP5 DUP5 PUSH2 0x90C JUMP JUMPDEST PUSH2 0x110D JUMPI DUP4 DUP4 PUSH1 0x40 MLOAD PUSH32 0x50E555C400000000000000000000000000000000000000000000000000000000 DUP2 MSTORE PUSH1 0x4 ADD PUSH2 0x1104 SWAP3 SWAP2 SWAP1 PUSH2 0x392C JUMP JUMPDEST PUSH1 0x40 MLOAD DUP1 SWAP2 SUB SWAP1 REVERT JUMPDEST PUSH2 0x1120 PUSH2 0x1118 PUSH2 0x1438 JUMP JUMPDEST DUP6 DUP6 DUP6 PUSH2 0x2045 JUMP JUMPDEST PUSH1 0x1 SWAP1 POP SWAP4 SWAP3 POP POP POP JUMP JUMPDEST DUP4 TIMESTAMP GT ISZERO PUSH2 0x1170 JUMPI DUP4 PUSH1 0x40 MLOAD PUSH32 0x6279130200000000000000000000000000000000000000000000000000000000 DUP2 MSTORE PUSH1 0x4 ADD PUSH2 0x1167 SWAP2 SWAP1 PUSH2 0x326F JUMP JUMPDEST PUSH1 0x40 MLOAD DUP1 SWAP2 SUB SWAP1 REVERT JUMPDEST PUSH0 PUSH32 0x6E71EDAE12B1B97F4D1F60370FEF10105FA2FAAE0126114A169C64845D6126C9 DUP9 DUP9 DUP9 PUSH2 0x119E DUP13 PUSH2 0x2229 JUMP JUMPDEST DUP10 PUSH1 0x40 MLOAD PUSH1 0x20 ADD PUSH2 0x11B4 SWAP7 SWAP6 SWAP5 SWAP4 SWAP3 SWAP2 SWAP1 PUSH2 0x3C45 JUMP JUMPDEST PUSH1 0x40 MLOAD PUSH1 0x20 DUP2 DUP4 SUB SUB DUP2 MSTORE SWAP1 PUSH1 0x40 MSTORE DUP1 MLOAD SWAP1 PUSH1 0x20 ADD KECCAK256 SWAP1 POP PUSH0 PUSH2 0x11D6 DUP3 PUSH2 0x2289 JUMP JUMPDEST SWAP1 POP PUSH0 PUSH2 0x11E5 DUP3 DUP8 DUP8 DUP8 PUSH2 0x22A2 JUMP JUMPDEST SWAP1 POP DUP10 PUSH20 0xFFFFFFFFFFFFFFFFFFFFFFFFFFFFFFFFFFFFFFFF AND DUP2 PUSH20 0xFFFFFFFFFFFFFFFFFFFFFFFFFFFFFFFFFFFFFFFF AND EQ PUSH2 0x1259 JUMPI DUP1 DUP11 PUSH1 0x40 MLOAD PUSH32 0x4B800E4600000000000000000000000000000000000000000000000000000000 DUP2 MSTORE PUSH1 0x4 ADD PUSH2 0x1250 SWAP3 SWAP2 SWAP1 PUSH2 0x3CA4 JUMP JUMPDEST PUSH1 0x40 MLOAD DUP1 SWAP2 SUB SWAP1 REVERT JUMPDEST PUSH2 0x1264 DUP11 DUP11 DUP11 PUSH2 0x143F JUMP JUMPDEST POP POP POP POP POP POP POP POP POP POP JUMP JUMPDEST PUSH0 PUSH2 0x128B DUP5 DUP5 DUP5 PUSH1 0x40 MLOAD DUP1 PUSH1 0x20 ADD PUSH1 0x40 MSTORE DUP1 PUSH0 DUP2 MSTORE POP PUSH2 0x104E JUMP JUMPDEST SWAP1 POP SWAP4 SWAP3 POP POP POP JUMP JUMPDEST PUSH0 PUSH0 PUSH2 0x129E PUSH2 0x1411 JUMP JUMPDEST SWAP1 POP DUP1 PUSH1 0x1 ADD PUSH0 DUP6 PUSH20 0xFFFFFFFFFFFFFFFFFFFFFFFFFFFFFFFFFFFFFFFF AND PUSH20 0xFFFFFFFFFFFFFFFFFFFFFFFFFFFFFFFFFFFFFFFF AND DUP2 MSTORE PUSH1 0x20 ADD SWAP1 DUP2 MSTORE PUSH1 0x20 ADD PUSH0 KECCAK256 PUSH0 DUP5 PUSH20 0xFFFFFFFFFFFFFFFFFFFFFFFFFFFFFFFFFFFFFFFF AND PUSH20 0xFFFFFFFFFFFFFFFFFFFFFFFFFFFFFFFFFFFFFFFF AND DUP2 MSTORE PUSH1 0x20 ADD SWAP1 DUP2 MSTORE PUSH1 0x20 ADD PUSH0 KECCAK256 SLOAD SWAP2 POP POP SWAP3 SWAP2 POP POP JUMP JUMPDEST PUSH2 0x132C PUSH2 0x15E2 JUMP JUMPDEST PUSH0 PUSH20 0xFFFFFFFFFFFFFFFFFFFFFFFFFFFFFFFFFFFFFFFF AND DUP2 PUSH20 0xFFFFFFFFFFFFFFFFFFFFFFFFFFFFFFFFFFFFFFFF AND SUB PUSH2 0x139C JUMPI PUSH0 PUSH1 0x40 MLOAD PUSH32 0x1E4FBDF700000000000000000000000000000000000000000000000000000000 DUP2 MSTORE PUSH1 0x4 ADD PUSH2 0x1393 SWAP2 SWAP1 PUSH2 0x3745 JUMP JUMPDEST PUSH1 0x40 MLOAD DUP1 SWAP2 SUB SWAP1 REVERT JUMPDEST PUSH2 0x13A5 DUP2 PUSH2 0x1D28 JUMP JUMPDEST POP JUMP JUMPDEST PUSH0 PUSH32 0x1FFC9A700000000000000000000000000000000000000000000000000000000 PUSH28 0xFFFFFFFFFFFFFFFFFFFFFFFFFFFFFFFFFFFFFFFFFFFFFFFFFFFFFFFF NOT AND DUP3 PUSH28 0xFFFFFFFFFFFFFFFFFFFFFFFFFFFFFFFFFFFFFFFFFFFFFFFFFFFFFFFF NOT AND EQ SWAP1 POP SWAP2 SWAP1 POP JUMP JUMPDEST PUSH0 PUSH32 0x52C63247E1F47DB19D5CE0460030C497F067CA4CEBF71BA98EEADABE20BACE00 SWAP1 POP SWAP1 JUMP JUMPDEST PUSH0 CALLER SWAP1 POP SWAP1 JUMP JUMPDEST PUSH2 0x144C DUP4 DUP4 DUP4 PUSH1 0x1 PUSH2 0x22D0 JUMP JUMPDEST POP POP POP JUMP JUMPDEST PUSH0 PUSH2 0x145C DUP5 DUP5 PUSH2 0x1294 JUMP JUMPDEST SWAP1 POP PUSH32 0xFFFFFFFFFFFFFFFFFFFFFFFFFFFFFFFFFFFFFFFFFFFFFFFFFFFFFFFFFFFFFFFF DUP2 LT ISZERO PUSH2 0x14DE JUMPI DUP2 DUP2 LT ISZERO PUSH2 0x14CF JUMPI DUP3 DUP2 DUP4 PUSH1 0x40 MLOAD PUSH32 0xFB8F41B200000000000000000000000000000000000000000000000000000000 DUP2 MSTORE PUSH1 0x4 ADD PUSH2 0x14C6 SWAP4 SWAP3 SWAP2 SWAP1 PUSH2 0x3CCB JUMP JUMPDEST PUSH1 0x40 MLOAD DUP1 SWAP2 SUB SWAP1 REVERT JUMPDEST PUSH2 0x14DD DUP5 DUP5 DUP5 DUP5 SUB PUSH0 PUSH2 0x22D0 JUMP JUMPDEST JUMPDEST POP POP POP POP JUMP JUMPDEST PUSH0 PUSH20 0xFFFFFFFFFFFFFFFFFFFFFFFFFFFFFFFFFFFFFFFF AND DUP4 PUSH20 0xFFFFFFFFFFFFFFFFFFFFFFFFFFFFFFFFFFFFFFFF AND SUB PUSH2 0x1554 JUMPI PUSH0 PUSH1 0x40 MLOAD PUSH32 0x96C6FD1E00000000000000000000000000000000000000000000000000000000 DUP2 MSTORE PUSH1 0x4 ADD PUSH2 0x154B SWAP2 SWAP1 PUSH2 0x3745 JUMP JUMPDEST PUSH1 0x40 MLOAD DUP1 SWAP2 SUB SWAP1 REVERT JUMPDEST PUSH0 PUSH20 0xFFFFFFFFFFFFFFFFFFFFFFFFFFFFFFFFFFFFFFFF AND DUP3 PUSH20 0xFFFFFFFFFFFFFFFFFFFFFFFFFFFFFFFFFFFFFFFF AND SUB PUSH2 0x15C4 JUMPI PUSH0 PUSH1 0x40 MLOAD PUSH32 0xEC442F0500000000000000000000000000000000000000000000000000000000 DUP2 MSTORE PUSH1 0x4 ADD PUSH2 0x15BB SWAP2 SWAP1 PUSH2 0x3745 JUMP JUMPDEST PUSH1 0x40 MLOAD DUP1 SWAP2 SUB SWAP1 REVERT JUMPDEST PUSH2 0x15CF DUP4 DUP4 DUP4 PUSH2 0x24AD JUMP JUMPDEST POP POP POP JUMP JUMPDEST PUSH0 PUSH2 0x15DD PUSH2 0x24BD JUMP JUMPDEST SWAP1 POP SWAP1 JUMP JUMPDEST PUSH2 0x15EA PUSH2 0x1438 JUMP JUMPDEST PUSH20 0xFFFFFFFFFFFFFFFFFFFFFFFFFFFFFFFFFFFFFFFF AND PUSH2 0x1608 PUSH2 0xF20 JUMP JUMPDEST PUSH20 0xFFFFFFFFFFFFFFFFFFFFFFFFFFFFFFFFFFFFFFFF AND EQ PUSH2 0x1667 JUMPI PUSH2 0x162B PUSH2 0x1438 JUMP JUMPDEST PUSH1 0x40 MLOAD PUSH32 0x118CDAA700000000000000000000000000000000000000000000000000000000 DUP2 MSTORE PUSH1 0x4 ADD PUSH2 0x165E SWAP2 SWAP1 PUSH2 0x3745 JUMP JUMPDEST PUSH1 0x40 MLOAD DUP1 SWAP2 SUB SWAP1 REVERT JUMPDEST JUMP JUMPDEST PUSH2 0x1671 PUSH2 0x2520 JUMP JUMPDEST PUSH0 PUSH2 0x167A PUSH2 0x1D01 JUMP JUMPDEST SWAP1 POP PUSH0 DUP2 PUSH0 ADD PUSH0 PUSH2 0x100 EXP DUP2 SLOAD DUP2 PUSH1 0xFF MUL NOT AND SWAP1 DUP4 ISZERO ISZERO MUL OR SWAP1 SSTORE POP PUSH32 0x5DB9EE0A495BF2E6FF9C91A7834C1BA4FDD244A5E8AA4E537BD38AEAE4B073AA PUSH2 0x16BF PUSH2 0x1438 JUMP JUMPDEST PUSH1 0x40 MLOAD PUSH2 0x16CC SWAP2 SWAP1 PUSH2 0x3745 JUMP JUMPDEST PUSH1 0x40 MLOAD DUP1 SWAP2 SUB SWAP1 LOG1 POP JUMP JUMPDEST PUSH0 DUP4 PUSH20 0xFFFFFFFFFFFFFFFFFFFFFFFFFFFFFFFFFFFFFFFF AND EXTCODESIZE SUB PUSH2 0x1732 JUMPI DUP3 PUSH1 0x40 MLOAD PUSH32 0x8A96CD9C00000000000000000000000000000000000000000000000000000000 DUP2 MSTORE PUSH1 0x4 ADD PUSH2 0x1729 SWAP2 SWAP1 PUSH2 0x3745 JUMP JUMPDEST PUSH1 0x40 MLOAD DUP1 SWAP2 SUB SWAP1 REVERT JUMPDEST DUP3 PUSH20 0xFFFFFFFFFFFFFFFFFFFFFFFFFFFFFFFFFFFFFFFF AND PUSH4 0x88A7CA5C DUP7 DUP7 DUP6 DUP6 PUSH1 0x40 MLOAD DUP6 PUSH4 0xFFFFFFFF AND PUSH1 0xE0 SHL DUP2 MSTORE PUSH1 0x4 ADD PUSH2 0x1771 SWAP5 SWAP4 SWAP3 SWAP2 SWAP1 PUSH2 0x3D52 JUMP JUMPDEST PUSH1 0x20 PUSH1 0x40 MLOAD DUP1 DUP4 SUB DUP2 PUSH0 DUP8 GAS CALL SWAP3 POP POP POP DUP1 ISZERO PUSH2 0x17AC JUMPI POP PUSH1 0x40 MLOAD RETURNDATASIZE PUSH1 0x1F NOT PUSH1 0x1F DUP3 ADD AND DUP3 ADD DUP1 PUSH1 0x40 MSTORE POP DUP2 ADD SWAP1 PUSH2 0x17A9 SWAP2 SWAP1 PUSH2 0x3DB0 JUMP JUMPDEST PUSH1 0x1 JUMPDEST PUSH2 0x182D JUMPI RETURNDATASIZE DUP1 PUSH0 DUP2 EQ PUSH2 0x17DA JUMPI PUSH1 0x40 MLOAD SWAP2 POP PUSH1 0x1F NOT PUSH1 0x3F RETURNDATASIZE ADD AND DUP3 ADD PUSH1 0x40 MSTORE RETURNDATASIZE DUP3 MSTORE RETURNDATASIZE PUSH0 PUSH1 0x20 DUP5 ADD RETURNDATACOPY PUSH2 0x17DF JUMP JUMPDEST PUSH1 0x60 SWAP2 POP JUMPDEST POP PUSH0 DUP2 MLOAD SUB PUSH2 0x1825 JUMPI DUP4 PUSH1 0x40 MLOAD PUSH32 0x8A96CD9C00000000000000000000000000000000000000000000000000000000 DUP2 MSTORE PUSH1 0x4 ADD PUSH2 0x181C SWAP2 SWAP1 PUSH2 0x3745 JUMP JUMPDEST PUSH1 0x40 MLOAD DUP1 SWAP2 SUB SWAP1 REVERT JUMPDEST DUP1 MLOAD DUP2 PUSH1 0x20 ADD REVERT JUMPDEST PUSH4 0x88A7CA5C PUSH1 0xE0 SHL PUSH28 0xFFFFFFFFFFFFFFFFFFFFFFFFFFFFFFFFFFFFFFFFFFFFFFFFFFFFFFFF NOT AND DUP2 PUSH28 0xFFFFFFFFFFFFFFFFFFFFFFFFFFFFFFFFFFFFFFFFFFFFFFFFFFFFFFFF NOT AND EQ PUSH2 0x18B6 JUMPI DUP4 PUSH1 0x40 MLOAD PUSH32 0x8A96CD9C00000000000000000000000000000000000000000000000000000000 DUP2 MSTORE PUSH1 0x4 ADD PUSH2 0x18AD SWAP2 SWAP1 PUSH2 0x3745 JUMP JUMPDEST PUSH1 0x40 MLOAD DUP1 SWAP2 SUB SWAP1 REVERT JUMPDEST POP POP POP POP POP POP JUMP JUMPDEST PUSH0 PUSH20 0xFFFFFFFFFFFFFFFFFFFFFFFFFFFFFFFFFFFFFFFF AND DUP3 PUSH20 0xFFFFFFFFFFFFFFFFFFFFFFFFFFFFFFFFFFFFFFFF AND SUB PUSH2 0x192E JUMPI PUSH0 PUSH1 0x40 MLOAD PUSH32 0xEC442F0500000000000000000000000000000000000000000000000000000000 DUP2 MSTORE PUSH1 0x4 ADD PUSH2 0x1925 SWAP2 SWAP1 PUSH2 0x3745 JUMP JUMPDEST PUSH1 0x40 MLOAD DUP1 SWAP2 SUB SWAP1 REVERT JUMPDEST PUSH2 0x1939 PUSH0 DUP4 DUP4 PUSH2 0x24AD JUMP JUMPDEST POP POP JUMP JUMPDEST PUSH0 PUSH20 0xFFFFFFFFFFFFFFFFFFFFFFFFFFFFFFFFFFFFFFFF AND DUP3 PUSH20 0xFFFFFFFFFFFFFFFFFFFFFFFFFFFFFFFFFFFFFFFF AND SUB PUSH2 0x19AD JUMPI PUSH0 PUSH1 0x40 MLOAD PUSH32 0x96C6FD1E00000000000000000000000000000000000000000000000000000000 DUP2 MSTORE PUSH1 0x4 ADD PUSH2 0x19A4 SWAP2 SWAP1 PUSH2 0x3745 JUMP JUMPDEST PUSH1 0x40 MLOAD DUP1 SWAP2 SUB SWAP1 REVERT JUMPDEST PUSH2 0x19B8 DUP3 PUSH0 DUP4 PUSH2 0x24AD JUMP JUMPDEST POP POP JUMP JUMPDEST PUSH0 PUSH0 PUSH2 0x19C6 PUSH2 0x2560 JUMP JUMPDEST SWAP1 POP DUP1 SWAP2 POP POP SWAP1 JUMP JUMPDEST PUSH2 0x19D7 PUSH2 0x2589 JUMP JUMPDEST PUSH2 0x19E1 DUP3 DUP3 PUSH2 0x25C9 JUMP JUMPDEST POP POP JUMP JUMPDEST PUSH2 0x19ED PUSH2 0x2589 JUMP JUMPDEST JUMP JUMPDEST PUSH2 0x19F7 PUSH2 0x2589 JUMP JUMPDEST JUMP JUMPDEST PUSH2 0x1A01 PUSH2 0x2589 JUMP JUMPDEST PUSH2 0x1A0A DUP2 PUSH2 0x2605 JUMP JUMPDEST POP JUMP JUMPDEST PUSH2 0x1A15 PUSH2 0x2589 JUMP JUMPDEST JUMP JUMPDEST PUSH2 0x1A1F PUSH2 0x2589 JUMP JUMPDEST PUSH2 0x1A5E DUP2 PUSH1 0x40 MLOAD DUP1 PUSH1 0x40 ADD PUSH1 0x40 MSTORE DUP1 PUSH1 0x1 DUP2 MSTORE PUSH1 0x20 ADD PUSH32 0x3100000000000000000000000000000000000000000000000000000000000000 DUP2 MSTORE POP PUSH2 0x2689 JUMP JUMPDEST POP JUMP JUMPDEST PUSH2 0x1A69 PUSH2 0x2589 JUMP JUMPDEST JUMP JUMPDEST PUSH32 0x0 PUSH20 0xFFFFFFFFFFFFFFFFFFFFFFFFFFFFFFFFFFFFFFFF AND ADDRESS PUSH20 0xFFFFFFFFFFFFFFFFFFFFFFFFFFFFFFFFFFFFFFFF AND EQ DUP1 PUSH2 0x1B18 JUMPI POP PUSH32 0x0 PUSH20 0xFFFFFFFFFFFFFFFFFFFFFFFFFFFFFFFFFFFFFFFF AND PUSH2 0x1AFF PUSH2 0x26DA JUMP JUMPDEST PUSH20 0xFFFFFFFFFFFFFFFFFFFFFFFFFFFFFFFFFFFFFFFF AND EQ ISZERO JUMPDEST ISZERO PUSH2 0x1B4F JUMPI PUSH1 0x40 MLOAD PUSH32 0xE07C8DBA00000000000000000000000000000000000000000000000000000000 DUP2 MSTORE PUSH1 0x4 ADD PUSH1 0x40 MLOAD DUP1 SWAP2 SUB SWAP1 REVERT JUMPDEST JUMP JUMPDEST PUSH2 0x1B59 PUSH2 0x15E2 JUMP JUMPDEST POP JUMP JUMPDEST DUP2 PUSH20 0xFFFFFFFFFFFFFFFFFFFFFFFFFFFFFFFFFFFFFFFF AND PUSH4 0x52D1902D PUSH1 0x40 MLOAD DUP2 PUSH4 0xFFFFFFFF AND PUSH1 0xE0 SHL DUP2 MSTORE PUSH1 0x4 ADD PUSH1 0x20 PUSH1 0x40 MLOAD DUP1 DUP4 SUB DUP2 DUP7 GAS STATICCALL SWAP3 POP POP POP DUP1 ISZERO PUSH2 0x1BC4 JUMPI POP PUSH1 0x40 MLOAD RETURNDATASIZE PUSH1 0x1F NOT PUSH1 0x1F DUP3 ADD AND DUP3 ADD DUP1 PUSH1 0x40 MSTORE POP DUP2 ADD SWAP1 PUSH2 0x1BC1 SWAP2 SWAP1 PUSH2 0x3DEF JUMP JUMPDEST PUSH1 0x1 JUMPDEST PUSH2 0x1C05 JUMPI DUP2 PUSH1 0x40 MLOAD PUSH32 0x4C9C8CE300000000000000000000000000000000000000000000000000000000 DUP2 MSTORE PUSH1 0x4 ADD PUSH2 0x1BFC SWAP2 SWAP1 PUSH2 0x3745 JUMP JUMPDEST PUSH1 0x40 MLOAD DUP1 SWAP2 SUB SWAP1 REVERT JUMPDEST PUSH32 0x360894A13BA1A3210667C828492DB98DCA3E2076CC3735A920A3CA505D382BBC PUSH0 SHL DUP2 EQ PUSH2 0x1C6B JUMPI DUP1 PUSH1 0x40 MLOAD PUSH32 0xAA1D49A400000000000000000000000000000000000000000000000000000000 DUP2 MSTORE PUSH1 0x4 ADD PUSH2 0x1C62 SWAP2 SWAP1 PUSH2 0x3324 JUMP JUMPDEST PUSH1 0x40 MLOAD DUP1 SWAP2 SUB SWAP1 REVERT JUMPDEST PUSH2 0x1C75 DUP4 DUP4 PUSH2 0x272D JUMP JUMPDEST POP POP POP JUMP JUMPDEST PUSH32 0x0 PUSH20 0xFFFFFFFFFFFFFFFFFFFFFFFFFFFFFFFFFFFFFFFF AND ADDRESS PUSH20 0xFFFFFFFFFFFFFFFFFFFFFFFFFFFFFFFFFFFFFFFF AND EQ PUSH2 0x1CFF JUMPI PUSH1 0x40 MLOAD PUSH32 0xE07C8DBA00000000000000000000000000000000000000000000000000000000 DUP2 MSTORE PUSH1 0x4 ADD PUSH1 0x40 MLOAD DUP1 SWAP2 SUB SWAP1 REVERT JUMPDEST JUMP JUMPDEST PUSH0 PUSH32 0xCD5ED15C6E187E77E9AEE88184C21F4F2182AB5827CB3B7E07FBEDCD63F03300 SWAP1 POP SWAP1 JUMP JUMPDEST PUSH0 PUSH2 0x1D31 PUSH2 0x201E JUMP JUMPDEST SWAP1 POP PUSH0 DUP2 PUSH0 ADD PUSH0 SWAP1 SLOAD SWAP1 PUSH2 0x100 EXP SWAP1 DIV PUSH20 0xFFFFFFFFFFFFFFFFFFFFFFFFFFFFFFFFFFFFFFFF AND SWAP1 POP DUP3 DUP3 PUSH0 ADD PUSH0 PUSH2 0x100 EXP DUP2 SLOAD DUP2 PUSH20 0xFFFFFFFFFFFFFFFFFFFFFFFFFFFFFFFFFFFFFFFF MUL NOT AND SWAP1 DUP4 PUSH20 0xFFFFFFFFFFFFFFFFFFFFFFFFFFFFFFFFFFFFFFFF AND MUL OR SWAP1 SSTORE POP DUP3 PUSH20 0xFFFFFFFFFFFFFFFFFFFFFFFFFFFFFFFFFFFFFFFF AND DUP2 PUSH20 0xFFFFFFFFFFFFFFFFFFFFFFFFFFFFFFFFFFFFFFFF AND PUSH32 0x8BE0079C531659141344CD1FD0A4F28419497F9722A3DAAFE3B4186F6B6457E0 PUSH1 0x40 MLOAD PUSH1 0x40 MLOAD DUP1 SWAP2 SUB SWAP1 LOG3 POP POP POP JUMP JUMPDEST PUSH0 PUSH0 PUSH2 0x1E03 PUSH2 0x279F JUMP JUMPDEST SWAP1 POP DUP1 PUSH0 ADD PUSH0 DUP5 PUSH20 0xFFFFFFFFFFFFFFFFFFFFFFFFFFFFFFFFFFFFFFFF AND PUSH20 0xFFFFFFFFFFFFFFFFFFFFFFFFFFFFFFFFFFFFFFFF AND DUP2 MSTORE PUSH1 0x20 ADD SWAP1 DUP2 MSTORE PUSH1 0x20 ADD PUSH0 KECCAK256 SLOAD SWAP2 POP POP SWAP2 SWAP1 POP JUMP JUMPDEST PUSH2 0x1E54 PUSH2 0x27C6 JUMP JUMPDEST PUSH0 PUSH2 0x1E5D PUSH2 0x1D01 JUMP JUMPDEST SWAP1 POP PUSH1 0x1 DUP2 PUSH0 ADD PUSH0 PUSH2 0x100 EXP DUP2 SLOAD DUP2 PUSH1 0xFF MUL NOT AND SWAP1 DUP4 ISZERO ISZERO MUL OR SWAP1 SSTORE POP PUSH32 0x62E78CEA01BEE320CD4E420270B5EA74000D11B0C9F74754EBDBFC544B05A258 PUSH2 0x1EA3 PUSH2 0x1438 JUMP JUMPDEST PUSH1 0x40 MLOAD PUSH2 0x1EB0 SWAP2 SWAP1 PUSH2 0x3745 JUMP JUMPDEST PUSH1 0x40 MLOAD DUP1 SWAP2 SUB SWAP1 LOG1 POP JUMP JUMPDEST PUSH0 PUSH32 0xA16A46D94261C7517CC8FF89F61C0CE93598E3C849801011DEE649A6A557D100 SWAP1 POP SWAP1 JUMP JUMPDEST PUSH1 0x60 PUSH0 PUSH2 0x1EED PUSH2 0x1EBB JUMP JUMPDEST SWAP1 POP DUP1 PUSH1 0x2 ADD DUP1 SLOAD PUSH2 0x1EFE SWAP1 PUSH2 0x38FC JUMP JUMPDEST DUP1 PUSH1 0x1F ADD PUSH1 0x20 DUP1 SWAP2 DIV MUL PUSH1 0x20 ADD PUSH1 0x40 MLOAD SWAP1 DUP2 ADD PUSH1 0x40 MSTORE DUP1 SWAP3 SWAP2 SWAP1 DUP2 DUP2 MSTORE PUSH1 0x20 ADD DUP3 DUP1 SLOAD PUSH2 0x1F2A SWAP1 PUSH2 0x38FC JUMP JUMPDEST DUP1 ISZERO PUSH2 0x1F75 JUMPI DUP1 PUSH1 0x1F LT PUSH2 0x1F4C JUMPI PUSH2 0x100 DUP1 DUP4 SLOAD DIV MUL DUP4 MSTORE SWAP2 PUSH1 0x20 ADD SWAP2 PUSH2 0x1F75 JUMP JUMPDEST DUP3 ADD SWAP2 SWAP1 PUSH0 MSTORE PUSH1 0x20 PUSH0 KECCAK256 SWAP1 JUMPDEST DUP2 SLOAD DUP2 MSTORE SWAP1 PUSH1 0x1 ADD SWAP1 PUSH1 0x20 ADD DUP1 DUP4 GT PUSH2 0x1F58 JUMPI DUP3 SWAP1 SUB PUSH1 0x1F AND DUP3 ADD SWAP2 JUMPDEST POP POP POP POP POP SWAP2 POP POP SWAP1 JUMP JUMPDEST PUSH1 0x60 PUSH0 PUSH2 0x1F8B PUSH2 0x1EBB JUMP JUMPDEST SWAP1 POP DUP1 PUSH1 0x3 ADD DUP1 SLOAD PUSH2 0x1F9C SWAP1 PUSH2 0x38FC JUMP JUMPDEST DUP1 PUSH1 0x1F ADD PUSH1 0x20 DUP1 SWAP2 DIV MUL PUSH1 0x20 ADD PUSH1 0x40 MLOAD SWAP1 DUP2 ADD PUSH1 0x40 MSTORE DUP1 SWAP3 SWAP2 SWAP1 DUP2 DUP2 MSTORE PUSH1 0x20 ADD DUP3 DUP1 SLOAD PUSH2 0x1FC8 SWAP1 PUSH2 0x38FC JUMP JUMPDEST DUP1 ISZERO PUSH2 0x2013 JUMPI DUP1 PUSH1 0x1F LT PUSH2 0x1FEA JUMPI PUSH2 0x100 DUP1 DUP4 SLOAD DIV MUL DUP4 MSTORE SWAP2 PUSH1 0x20 ADD SWAP2 PUSH2 0x2013 JUMP JUMPDEST DUP3 ADD SWAP2 SWAP1 PUSH0 MSTORE PUSH1 0x20 PUSH0 KECCAK256 SWAP1 JUMPDEST DUP2 SLOAD DUP2 MSTORE SWAP1 PUSH1 0x1 ADD SWAP1 PUSH1 0x20 ADD DUP1 DUP4 GT PUSH2 0x1FF6 JUMPI DUP3 SWAP1 SUB PUSH1 0x1F AND DUP3 ADD SWAP2 JUMPDEST POP POP POP POP POP SWAP2 POP POP SWAP1 JUMP JUMPDEST PUSH0 PUSH32 0x9016D09D72D40FDAE2FD8CEAC6B6234C7706214FD39C1CD1E609A0528C199300 SWAP1 POP SWAP1 JUMP JUMPDEST PUSH0 DUP4 PUSH20 0xFFFFFFFFFFFFFFFFFFFFFFFFFFFFFFFFFFFFFFFF AND EXTCODESIZE SUB PUSH2 0x20A0 JUMPI DUP3 PUSH1 0x40 MLOAD PUSH32 0xDEB6D3ED00000000000000000000000000000000000000000000000000000000 DUP2 MSTORE PUSH1 0x4 ADD PUSH2 0x2097 SWAP2 SWAP1 PUSH2 0x3745 JUMP JUMPDEST PUSH1 0x40 MLOAD DUP1 SWAP2 SUB SWAP1 REVERT JUMPDEST DUP3 PUSH20 0xFFFFFFFFFFFFFFFFFFFFFFFFFFFFFFFFFFFFFFFF AND PUSH4 0x7B04A2D0 DUP6 DUP5 DUP5 PUSH1 0x40 MLOAD DUP5 PUSH4 0xFFFFFFFF AND PUSH1 0xE0 SHL DUP2 MSTORE PUSH1 0x4 ADD PUSH2 0x20DD SWAP4 SWAP3 SWAP2 SWAP1 PUSH2 0x3E1A JUMP JUMPDEST PUSH1 0x20 PUSH1 0x40 MLOAD DUP1 DUP4 SUB DUP2 PUSH0 DUP8 GAS CALL SWAP3 POP POP POP DUP1 ISZERO PUSH2 0x2118 JUMPI POP PUSH1 0x40 MLOAD RETURNDATASIZE PUSH1 0x1F NOT PUSH1 0x1F DUP3 ADD AND DUP3 ADD DUP1 PUSH1 0x40 MSTORE POP DUP2 ADD SWAP1 PUSH2 0x2115 SWAP2 SWAP1 PUSH2 0x3DB0 JUMP JUMPDEST PUSH1 0x1 JUMPDEST PUSH2 0x2199 JUMPI RETURNDATASIZE DUP1 PUSH0 DUP2 EQ PUSH2 0x2146 JUMPI PUSH1 0x40 MLOAD SWAP2 POP PUSH1 0x1F NOT PUSH1 0x3F RETURNDATASIZE ADD AND DUP3 ADD PUSH1 0x40 MSTORE RETURNDATASIZE DUP3 MSTORE RETURNDATASIZE PUSH0 PUSH1 0x20 DUP5 ADD RETURNDATACOPY PUSH2 0x214B JUMP JUMPDEST PUSH1 0x60 SWAP2 POP JUMPDEST POP PUSH0 DUP2 MLOAD SUB PUSH2 0x2191 JUMPI DUP4 PUSH1 0x40 MLOAD PUSH32 0xDEB6D3ED00000000000000000000000000000000000000000000000000000000 DUP2 MSTORE PUSH1 0x4 ADD PUSH2 0x2188 SWAP2 SWAP1 PUSH2 0x3745 JUMP JUMPDEST PUSH1 0x40 MLOAD DUP1 SWAP2 SUB SWAP1 REVERT JUMPDEST DUP1 MLOAD DUP2 PUSH1 0x20 ADD REVERT JUMPDEST PUSH4 0x7B04A2D0 PUSH1 0xE0 SHL PUSH28 0xFFFFFFFFFFFFFFFFFFFFFFFFFFFFFFFFFFFFFFFFFFFFFFFFFFFFFFFF NOT AND DUP2 PUSH28 0xFFFFFFFFFFFFFFFFFFFFFFFFFFFFFFFFFFFFFFFFFFFFFFFFFFFFFFFF NOT AND EQ PUSH2 0x2222 JUMPI DUP4 PUSH1 0x40 MLOAD PUSH32 0xDEB6D3ED00000000000000000000000000000000000000000000000000000000 DUP2 MSTORE PUSH1 0x4 ADD PUSH2 0x2219 SWAP2 SWAP1 PUSH2 0x3745 JUMP JUMPDEST PUSH1 0x40 MLOAD DUP1 SWAP2 SUB SWAP1 REVERT JUMPDEST POP POP POP POP POP JUMP JUMPDEST PUSH0 PUSH0 PUSH2 0x2233 PUSH2 0x279F JUMP JUMPDEST SWAP1 POP DUP1 PUSH0 ADD PUSH0 DUP5 PUSH20 0xFFFFFFFFFFFFFFFFFFFFFFFFFFFFFFFFFFFFFFFF AND PUSH20 0xFFFFFFFFFFFFFFFFFFFFFFFFFFFFFFFFFFFFFFFF AND DUP2 MSTORE PUSH1 0x20 ADD SWAP1 DUP2 MSTORE PUSH1 0x20 ADD PUSH0 KECCAK256 PUSH0 DUP2 SLOAD DUP1 SWAP3 SWAP2 SWAP1 PUSH1 0x1 ADD SWAP2 SWAP1 POP SSTORE SWAP2 POP POP SWAP2 SWAP1 POP JUMP JUMPDEST PUSH0 PUSH2 0x229B PUSH2 0x2295 PUSH2 0x15D4 JUMP JUMPDEST DUP4 PUSH2 0x2807 JUMP JUMPDEST SWAP1 POP SWAP2 SWAP1 POP JUMP JUMPDEST PUSH0 PUSH0 PUSH0 PUSH0 PUSH2 0x22B2 DUP9 DUP9 DUP9 DUP9 PUSH2 0x2847 JUMP JUMPDEST SWAP3 POP SWAP3 POP SWAP3 POP PUSH2 0x22C2 DUP3 DUP3 PUSH2 0x292E JUMP JUMPDEST DUP3 SWAP4 POP POP POP POP SWAP5 SWAP4 POP POP POP POP JUMP JUMPDEST PUSH0 PUSH2 0x22D9 PUSH2 0x1411 JUMP JUMPDEST SWAP1 POP PUSH0 PUSH20 0xFFFFFFFFFFFFFFFFFFFFFFFFFFFFFFFFFFFFFFFF AND DUP6 PUSH20 0xFFFFFFFFFFFFFFFFFFFFFFFFFFFFFFFFFFFFFFFF AND SUB PUSH2 0x234B JUMPI PUSH0 PUSH1 0x40 MLOAD PUSH32 0xE602DF0500000000000000000000000000000000000000000000000000000000 DUP2 MSTORE PUSH1 0x4 ADD PUSH2 0x2342 SWAP2 SWAP1 PUSH2 0x3745 JUMP JUMPDEST PUSH1 0x40 MLOAD DUP1 SWAP2 SUB SWAP1 REVERT JUMPDEST PUSH0 PUSH20 0xFFFFFFFFFFFFFFFFFFFFFFFFFFFFFFFFFFFFFFFF AND DUP5 PUSH20 0xFFFFFFFFFFFFFFFFFFFFFFFFFFFFFFFFFFFFFFFF AND SUB PUSH2 0x23BB JUMPI PUSH0 PUSH1 0x40 MLOAD PUSH32 0x94280D6200000000000000000000000000000000000000000000000000000000 DUP2 MSTORE PUSH1 0x4 ADD PUSH2 0x23B2 SWAP2 SWAP1 PUSH2 0x3745 JUMP JUMPDEST PUSH1 0x40 MLOAD DUP1 SWAP2 SUB SWAP1 REVERT JUMPDEST DUP3 DUP2 PUSH1 0x1 ADD PUSH0 DUP8 PUSH20 0xFFFFFFFFFFFFFFFFFFFFFFFFFFFFFFFFFFFFFFFF AND PUSH20 0xFFFFFFFFFFFFFFFFFFFFFFFFFFFFFFFFFFFFFFFF AND DUP2 MSTORE PUSH1 0x20 ADD SWAP1 DUP2 MSTORE PUSH1 0x20 ADD PUSH0 KECCAK256 PUSH0 DUP7 PUSH20 0xFFFFFFFFFFFFFFFFFFFFFFFFFFFFFFFFFFFFFFFF AND PUSH20 0xFFFFFFFFFFFFFFFFFFFFFFFFFFFFFFFFFFFFFFFF AND DUP2 MSTORE PUSH1 0x20 ADD SWAP1 DUP2 MSTORE PUSH1 0x20 ADD PUSH0 KECCAK256 DUP2 SWAP1 SSTORE POP DUP2 ISZERO PUSH2 0x24A6 JUMPI DUP4 PUSH20 0xFFFFFFFFFFFFFFFFFFFFFFFFFFFFFFFFFFFFFFFF AND DUP6 PUSH20 0xFFFFFFFFFFFFFFFFFFFFFFFFFFFFFFFFFFFFFFFF AND PUSH32 0x8C5BE1E5EBEC7D5BD14F71427D1E84F3DD0314C0F7B2291E5B200AC8C7C3B925 DUP6 PUSH1 0x40 MLOAD PUSH2 0x249D SWAP2 SWAP1 PUSH2 0x326F JUMP JUMPDEST PUSH1 0x40 MLOAD DUP1 SWAP2 SUB SWAP1 LOG3 JUMPDEST POP POP POP POP POP JUMP JUMPDEST PUSH2 0x24B8 DUP4 DUP4 DUP4 PUSH2 0x2A90 JUMP JUMPDEST POP POP POP JUMP JUMPDEST PUSH0 PUSH32 0x8B73C3C69BB8FE3D512ECC4CF759CC79239F7B179B0FFACAA9A75D522B39400F PUSH2 0x24E7 PUSH2 0x2AA8 JUMP JUMPDEST PUSH2 0x24EF PUSH2 0x2B1E JUMP JUMPDEST CHAINID ADDRESS PUSH1 0x40 MLOAD PUSH1 0x20 ADD PUSH2 0x2505 SWAP6 SWAP5 SWAP4 SWAP3 SWAP2 SWAP1 PUSH2 0x3E56 JUMP JUMPDEST PUSH1 0x40 MLOAD PUSH1 0x20 DUP2 DUP4 SUB SUB DUP2 MSTORE SWAP1 PUSH1 0x40 MSTORE DUP1 MLOAD SWAP1 PUSH1 0x20 ADD KECCAK256 SWAP1 POP SWAP1 JUMP JUMPDEST PUSH2 0x2528 PUSH2 0xD4C JUMP JUMPDEST PUSH2 0x255E JUMPI PUSH1 0x40 MLOAD PUSH32 0x8DFC202B00000000000000000000000000000000000000000000000000000000 DUP2 MSTORE PUSH1 0x4 ADD PUSH1 0x40 MLOAD DUP1 SWAP2 SUB SWAP1 REVERT JUMPDEST JUMP JUMPDEST PUSH0 PUSH32 0xF0C57E16840DF040F15088DC2F81FE391C3923BEC73E23A9662EFC9C229C6A00 PUSH0 SHL SWAP1 POP SWAP1 JUMP JUMPDEST PUSH2 0x2591 PUSH2 0x2B95 JUMP JUMPDEST PUSH2 0x25C7 JUMPI PUSH1 0x40 MLOAD PUSH32 0xD7E6BCF800000000000000000000000000000000000000000000000000000000 DUP2 MSTORE PUSH1 0x4 ADD PUSH1 0x40 MLOAD DUP1 SWAP2 SUB SWAP1 REVERT JUMPDEST JUMP JUMPDEST PUSH2 0x25D1 PUSH2 0x2589 JUMP JUMPDEST PUSH0 PUSH2 0x25DA PUSH2 0x1411 JUMP JUMPDEST SWAP1 POP DUP3 DUP2 PUSH1 0x3 ADD SWAP1 DUP2 PUSH2 0x25ED SWAP2 SWAP1 PUSH2 0x403E JUMP JUMPDEST POP DUP2 DUP2 PUSH1 0x4 ADD SWAP1 DUP2 PUSH2 0x25FF SWAP2 SWAP1 PUSH2 0x403E JUMP JUMPDEST POP POP POP POP JUMP JUMPDEST PUSH2 0x260D PUSH2 0x2589 JUMP JUMPDEST PUSH0 PUSH20 0xFFFFFFFFFFFFFFFFFFFFFFFFFFFFFFFFFFFFFFFF AND DUP2 PUSH20 0xFFFFFFFFFFFFFFFFFFFFFFFFFFFFFFFFFFFFFFFF AND SUB PUSH2 0x267D JUMPI PUSH0 PUSH1 0x40 MLOAD PUSH32 0x1E4FBDF700000000000000000000000000000000000000000000000000000000 DUP2 MSTORE PUSH1 0x4 ADD PUSH2 0x2674 SWAP2 SWAP1 PUSH2 0x3745 JUMP JUMPDEST PUSH1 0x40 MLOAD DUP1 SWAP2 SUB SWAP1 REVERT JUMPDEST PUSH2 0x2686 DUP2 PUSH2 0x1D28 JUMP JUMPDEST POP JUMP JUMPDEST PUSH2 0x2691 PUSH2 0x2589 JUMP JUMPDEST PUSH0 PUSH2 0x269A PUSH2 0x1EBB JUMP JUMPDEST SWAP1 POP DUP3 DUP2 PUSH1 0x2 ADD SWAP1 DUP2 PUSH2 0x26AD SWAP2 SWAP1 PUSH2 0x403E JUMP JUMPDEST POP DUP2 DUP2 PUSH1 0x3 ADD SWAP1 DUP2 PUSH2 0x26BF SWAP2 SWAP1 PUSH2 0x403E JUMP JUMPDEST POP PUSH0 PUSH0 SHL DUP2 PUSH0 ADD DUP2 SWAP1 SSTORE POP PUSH0 PUSH0 SHL DUP2 PUSH1 0x1 ADD DUP2 SWAP1 SSTORE POP POP POP POP JUMP JUMPDEST PUSH0 PUSH2 0x2706 PUSH32 0x360894A13BA1A3210667C828492DB98DCA3E2076CC3735A920A3CA505D382BBC PUSH0 SHL PUSH2 0x2BB3 JUMP JUMPDEST PUSH0 ADD PUSH0 SWAP1 SLOAD SWAP1 PUSH2 0x100 EXP SWAP1 DIV PUSH20 0xFFFFFFFFFFFFFFFFFFFFFFFFFFFFFFFFFFFFFFFF AND SWAP1 POP SWAP1 JUMP JUMPDEST PUSH2 0x2736 DUP3 PUSH2 0x2BBC JUMP JUMPDEST DUP2 PUSH20 0xFFFFFFFFFFFFFFFFFFFFFFFFFFFFFFFFFFFFFFFF AND PUSH32 0xBC7CD75A20EE27FD9ADEBAB32041F755214DBC6BFFA90CC0225B39DA2E5C2D3B PUSH1 0x40 MLOAD PUSH1 0x40 MLOAD DUP1 SWAP2 SUB SWAP1 LOG2 PUSH0 DUP2 MLOAD GT ISZERO PUSH2 0x2792 JUMPI PUSH2 0x278C DUP3 DUP3 PUSH2 0x2C85 JUMP JUMPDEST POP PUSH2 0x279B JUMP JUMPDEST PUSH2 0x279A PUSH2 0x2D05 JUMP JUMPDEST JUMPDEST POP POP JUMP JUMPDEST PUSH0 PUSH32 0x5AB42CED628888259C08AC98DB1EB0CF702FC1501344311D8B100CD1BFE4BB00 SWAP1 POP SWAP1 JUMP JUMPDEST PUSH2 0x27CE PUSH2 0xD4C JUMP JUMPDEST ISZERO PUSH2 0x2805 JUMPI PUSH1 0x40 MLOAD PUSH32 0xD93C066500000000000000000000000000000000000000000000000000000000 DUP2 MSTORE PUSH1 0x4 ADD PUSH1 0x40 MLOAD DUP1 SWAP2 SUB SWAP1 REVERT JUMPDEST JUMP JUMPDEST PUSH0 PUSH1 0x40 MLOAD PUSH32 0x1901000000000000000000000000000000000000000000000000000000000000 DUP2 MSTORE DUP4 PUSH1 0x2 DUP3 ADD MSTORE DUP3 PUSH1 0x22 DUP3 ADD MSTORE PUSH1 0x42 DUP2 KECCAK256 SWAP2 POP POP SWAP3 SWAP2 POP POP JUMP JUMPDEST PUSH0 PUSH0 PUSH0 PUSH32 0x7FFFFFFFFFFFFFFFFFFFFFFFFFFFFFFF5D576E7357A4501DDFE92F46681B20A0 DUP5 PUSH0 SHR GT ISZERO PUSH2 0x2883 JUMPI PUSH0 PUSH1 0x3 DUP6 SWAP3 POP SWAP3 POP SWAP3 POP PUSH2 0x2924 JUMP JUMPDEST PUSH0 PUSH1 0x1 DUP9 DUP9 DUP9 DUP9 PUSH1 0x40 MLOAD PUSH0 DUP2 MSTORE PUSH1 0x20 ADD PUSH1 0x40 MSTORE PUSH1 0x40 MLOAD PUSH2 0x28A6 SWAP5 SWAP4 SWAP3 SWAP2 SWAP1 PUSH2 0x410D JUMP JUMPDEST PUSH1 0x20 PUSH1 0x40 MLOAD PUSH1 0x20 DUP2 SUB SWAP1 DUP1 DUP5 SUB SWAP1 DUP6 GAS STATICCALL ISZERO DUP1 ISZERO PUSH2 0x28C6 JUMPI RETURNDATASIZE PUSH0 PUSH0 RETURNDATACOPY RETURNDATASIZE PUSH0 REVERT JUMPDEST POP POP POP PUSH1 0x20 PUSH1 0x40 MLOAD SUB MLOAD SWAP1 POP PUSH0 PUSH20 0xFFFFFFFFFFFFFFFFFFFFFFFFFFFFFFFFFFFFFFFF AND DUP2 PUSH20 0xFFFFFFFFFFFFFFFFFFFFFFFFFFFFFFFFFFFFFFFF AND SUB PUSH2 0x2917 JUMPI PUSH0 PUSH1 0x1 PUSH0 PUSH0 SHL SWAP4 POP SWAP4 POP SWAP4 POP POP PUSH2 0x2924 JUMP JUMPDEST DUP1 PUSH0 PUSH0 PUSH0 SHL SWAP4 POP SWAP4 POP SWAP4 POP POP JUMPDEST SWAP5 POP SWAP5 POP SWAP5 SWAP2 POP POP JUMP JUMPDEST PUSH0 PUSH1 0x3 DUP2 GT ISZERO PUSH2 0x2941 JUMPI PUSH2 0x2940 PUSH2 0x4150 JUMP JUMPDEST JUMPDEST DUP3 PUSH1 0x3 DUP2 GT ISZERO PUSH2 0x2954 JUMPI PUSH2 0x2953 PUSH2 0x4150 JUMP JUMPDEST JUMPDEST SUB ISZERO PUSH2 0x2A8C JUMPI PUSH1 0x1 PUSH1 0x3 DUP2 GT ISZERO PUSH2 0x296E JUMPI PUSH2 0x296D PUSH2 0x4150 JUMP JUMPDEST JUMPDEST DUP3 PUSH1 0x3 DUP2 GT ISZERO PUSH2 0x2981 JUMPI PUSH2 0x2980 PUSH2 0x4150 JUMP JUMPDEST JUMPDEST SUB PUSH2 0x29B8 JUMPI PUSH1 0x40 MLOAD PUSH32 0xF645EEDF00000000000000000000000000000000000000000000000000000000 DUP2 MSTORE PUSH1 0x4 ADD PUSH1 0x40 MLOAD DUP1 SWAP2 SUB SWAP1 REVERT JUMPDEST PUSH1 0x2 PUSH1 0x3 DUP2 GT ISZERO PUSH2 0x29CC JUMPI PUSH2 0x29CB PUSH2 0x4150 JUMP JUMPDEST JUMPDEST DUP3 PUSH1 0x3 DUP2 GT ISZERO PUSH2 0x29DF JUMPI PUSH2 0x29DE PUSH2 0x4150 JUMP JUMPDEST JUMPDEST SUB PUSH2 0x2A23 JUMPI DUP1 PUSH0 SHR PUSH1 0x40 MLOAD PUSH32 0xFCE698F700000000000000000000000000000000000000000000000000000000 DUP2 MSTORE PUSH1 0x4 ADD PUSH2 0x2A1A SWAP2 SWAP1 PUSH2 0x326F JUMP JUMPDEST PUSH1 0x40 MLOAD DUP1 SWAP2 SUB SWAP1 REVERT JUMPDEST PUSH1 0x3 DUP1 DUP2 GT ISZERO PUSH2 0x2A36 JUMPI PUSH2 0x2A35 PUSH2 0x4150 JUMP JUMPDEST JUMPDEST DUP3 PUSH1 0x3 DUP2 GT ISZERO PUSH2 0x2A49 JUMPI PUSH2 0x2A48 PUSH2 0x4150 JUMP JUMPDEST JUMPDEST SUB PUSH2 0x2A8B JUMPI DUP1 PUSH1 0x40 MLOAD PUSH32 0xD78BCE0C00000000000000000000000000000000000000000000000000000000 DUP2 MSTORE PUSH1 0x4 ADD PUSH2 0x2A82 SWAP2 SWAP1 PUSH2 0x3324 JUMP JUMPDEST PUSH1 0x40 MLOAD DUP1 SWAP2 SUB SWAP1 REVERT JUMPDEST JUMPDEST POP POP JUMP JUMPDEST PUSH2 0x2A98 PUSH2 0x27C6 JUMP JUMPDEST PUSH2 0x2AA3 DUP4 DUP4 DUP4 PUSH2 0x2D41 JUMP JUMPDEST POP POP POP JUMP JUMPDEST PUSH0 PUSH0 PUSH2 0x2AB2 PUSH2 0x1EBB JUMP JUMPDEST SWAP1 POP PUSH0 PUSH2 0x2ABD PUSH2 0x1EE2 JUMP JUMPDEST SWAP1 POP PUSH0 DUP2 MLOAD GT ISZERO PUSH2 0x2AD9 JUMPI DUP1 DUP1 MLOAD SWAP1 PUSH1 0x20 ADD KECCAK256 SWAP3 POP POP POP PUSH2 0x2B1B JUMP JUMPDEST PUSH0 DUP3 PUSH0 ADD SLOAD SWAP1 POP PUSH0 PUSH0 SHL DUP2 EQ PUSH2 0x2AF4 JUMPI DUP1 SWAP4 POP POP POP POP PUSH2 0x2B1B JUMP JUMPDEST PUSH32 0xC5D2460186F7233C927E7DB2DCC703C0E500B653CA82273B7BFAD8045D85A470 SWAP4 POP POP POP POP JUMPDEST SWAP1 JUMP JUMPDEST PUSH0 PUSH0 PUSH2 0x2B28 PUSH2 0x1EBB JUMP JUMPDEST SWAP1 POP PUSH0 PUSH2 0x2B33 PUSH2 0x1F80 JUMP JUMPDEST SWAP1 POP PUSH0 DUP2 MLOAD GT ISZERO PUSH2 0x2B4F JUMPI DUP1 DUP1 MLOAD SWAP1 PUSH1 0x20 ADD KECCAK256 SWAP3 POP POP POP PUSH2 0x2B92 JUMP JUMPDEST PUSH0 DUP3 PUSH1 0x1 ADD SLOAD SWAP1 POP PUSH0 PUSH0 SHL DUP2 EQ PUSH2 0x2B6B JUMPI DUP1 SWAP4 POP POP POP POP PUSH2 0x2B92 JUMP JUMPDEST PUSH32 0xC5D2460186F7233C927E7DB2DCC703C0E500B653CA82273B7BFAD8045D85A470 SWAP4 POP POP POP POP JUMPDEST SWAP1 JUMP JUMPDEST PUSH0 PUSH2 0x2B9E PUSH2 0x19BC JUMP JUMPDEST PUSH0 ADD PUSH1 0x8 SWAP1 SLOAD SWAP1 PUSH2 0x100 EXP SWAP1 DIV PUSH1 0xFF AND SWAP1 POP SWAP1 JUMP JUMPDEST PUSH0 DUP2 SWAP1 POP SWAP2 SWAP1 POP JUMP JUMPDEST PUSH0 DUP2 PUSH20 0xFFFFFFFFFFFFFFFFFFFFFFFFFFFFFFFFFFFFFFFF AND EXTCODESIZE SUB PUSH2 0x2C17 JUMPI DUP1 PUSH1 0x40 MLOAD PUSH32 0x4C9C8CE300000000000000000000000000000000000000000000000000000000 DUP2 MSTORE PUSH1 0x4 ADD PUSH2 0x2C0E SWAP2 SWAP1 PUSH2 0x3745 JUMP JUMPDEST PUSH1 0x40 MLOAD DUP1 SWAP2 SUB SWAP1 REVERT JUMPDEST DUP1 PUSH2 0x2C43 PUSH32 0x360894A13BA1A3210667C828492DB98DCA3E2076CC3735A920A3CA505D382BBC PUSH0 SHL PUSH2 0x2BB3 JUMP JUMPDEST PUSH0 ADD PUSH0 PUSH2 0x100 EXP DUP2 SLOAD DUP2 PUSH20 0xFFFFFFFFFFFFFFFFFFFFFFFFFFFFFFFFFFFFFFFF MUL NOT AND SWAP1 DUP4 PUSH20 0xFFFFFFFFFFFFFFFFFFFFFFFFFFFFFFFFFFFFFFFF AND MUL OR SWAP1 SSTORE POP POP JUMP JUMPDEST PUSH1 0x60 PUSH0 PUSH0 DUP5 PUSH20 0xFFFFFFFFFFFFFFFFFFFFFFFFFFFFFFFFFFFFFFFF AND DUP5 PUSH1 0x40 MLOAD PUSH2 0x2CAE SWAP2 SWAP1 PUSH2 0x41B7 JUMP JUMPDEST PUSH0 PUSH1 0x40 MLOAD DUP1 DUP4 SUB DUP2 DUP6 GAS DELEGATECALL SWAP2 POP POP RETURNDATASIZE DUP1 PUSH0 DUP2 EQ PUSH2 0x2CE6 JUMPI PUSH1 0x40 MLOAD SWAP2 POP PUSH1 0x1F NOT PUSH1 0x3F RETURNDATASIZE ADD AND DUP3 ADD PUSH1 0x40 MSTORE RETURNDATASIZE DUP3 MSTORE RETURNDATASIZE PUSH0 PUSH1 0x20 DUP5 ADD RETURNDATACOPY PUSH2 0x2CEB JUMP JUMPDEST PUSH1 0x60 SWAP2 POP JUMPDEST POP SWAP2 POP SWAP2 POP PUSH2 0x2CFB DUP6 DUP4 DUP4 PUSH2 0x2F70 JUMP JUMPDEST SWAP3 POP POP POP SWAP3 SWAP2 POP POP JUMP JUMPDEST PUSH0 CALLVALUE GT ISZERO PUSH2 0x2D3F JUMPI PUSH1 0x40 MLOAD PUSH32 0xB398979F00000000000000000000000000000000000000000000000000000000 DUP2 MSTORE PUSH1 0x4 ADD PUSH1 0x40 MLOAD DUP1 SWAP2 SUB SWAP1 REVERT JUMPDEST JUMP JUMPDEST PUSH0 PUSH2 0x2D4A PUSH2 0x1411 JUMP JUMPDEST SWAP1 POP PUSH0 PUSH20 0xFFFFFFFFFFFFFFFFFFFFFFFFFFFFFFFFFFFFFFFF AND DUP5 PUSH20 0xFFFFFFFFFFFFFFFFFFFFFFFFFFFFFFFFFFFFFFFF AND SUB PUSH2 0x2D9E JUMPI DUP2 DUP2 PUSH1 0x2 ADD PUSH0 DUP3 DUP3 SLOAD PUSH2 0x2D92 SWAP2 SWAP1 PUSH2 0x41CD JUMP JUMPDEST SWAP3 POP POP DUP2 SWAP1 SSTORE POP PUSH2 0x2E70 JUMP JUMPDEST PUSH0 DUP2 PUSH0 ADD PUSH0 DUP7 PUSH20 0xFFFFFFFFFFFFFFFFFFFFFFFFFFFFFFFFFFFFFFFF AND PUSH20 0xFFFFFFFFFFFFFFFFFFFFFFFFFFFFFFFFFFFFFFFF AND DUP2 MSTORE PUSH1 0x20 ADD SWAP1 DUP2 MSTORE PUSH1 0x20 ADD PUSH0 KECCAK256 SLOAD SWAP1 POP DUP3 DUP2 LT ISZERO PUSH2 0x2E29 JUMPI DUP5 DUP2 DUP5 PUSH1 0x40 MLOAD PUSH32 0xE450D38C00000000000000000000000000000000000000000000000000000000 DUP2 MSTORE PUSH1 0x4 ADD PUSH2 0x2E20 SWAP4 SWAP3 SWAP2 SWAP1 PUSH2 0x3CCB JUMP JUMPDEST PUSH1 0x40 MLOAD DUP1 SWAP2 SUB SWAP1 REVERT JUMPDEST DUP3 DUP2 SUB DUP3 PUSH0 ADD PUSH0 DUP8 PUSH20 0xFFFFFFFFFFFFFFFFFFFFFFFFFFFFFFFFFFFFFFFF AND PUSH20 0xFFFFFFFFFFFFFFFFFFFFFFFFFFFFFFFFFFFFFFFF AND DUP2 MSTORE PUSH1 0x20 ADD SWAP1 DUP2 MSTORE PUSH1 0x20 ADD PUSH0 KECCAK256 DUP2 SWAP1 SSTORE POP POP JUMPDEST PUSH0 PUSH20 0xFFFFFFFFFFFFFFFFFFFFFFFFFFFFFFFFFFFFFFFF AND DUP4 PUSH20 0xFFFFFFFFFFFFFFFFFFFFFFFFFFFFFFFFFFFFFFFF AND SUB PUSH2 0x2EB9 JUMPI DUP2 DUP2 PUSH1 0x2 ADD PUSH0 DUP3 DUP3 SLOAD SUB SWAP3 POP POP DUP2 SWAP1 SSTORE POP PUSH2 0x2F05 JUMP JUMPDEST DUP2 DUP2 PUSH0 ADD PUSH0 DUP6 PUSH20 0xFFFFFFFFFFFFFFFFFFFFFFFFFFFFFFFFFFFFFFFF AND PUSH20 0xFFFFFFFFFFFFFFFFFFFFFFFFFFFFFFFFFFFFFFFF AND DUP2 MSTORE PUSH1 0x20 ADD SWAP1 DUP2 MSTORE PUSH1 0x20 ADD PUSH0 KECCAK256 PUSH0 DUP3 DUP3 SLOAD ADD SWAP3 POP POP DUP2 SWAP1 SSTORE POP JUMPDEST DUP3 PUSH20 0xFFFFFFFFFFFFFFFFFFFFFFFFFFFFFFFFFFFFFFFF AND DUP5 PUSH20 0xFFFFFFFFFFFFFFFFFFFFFFFFFFFFFFFFFFFFFFFF AND PUSH32 0xDDF252AD1BE2C89B69C2B068FC378DAA952BA7F163C4A11628F55A4DF523B3EF DUP5 PUSH1 0x40 MLOAD PUSH2 0x2F62 SWAP2 SWAP1 PUSH2 0x326F JUMP JUMPDEST PUSH1 0x40 MLOAD DUP1 SWAP2 SUB SWAP1 LOG3 POP POP POP POP JUMP JUMPDEST PUSH1 0x60 DUP3 PUSH2 0x2F85 JUMPI PUSH2 0x2F80 DUP3 PUSH2 0x2FFD JUMP JUMPDEST PUSH2 0x2FF5 JUMP JUMPDEST PUSH0 DUP3 MLOAD EQ DUP1 ISZERO PUSH2 0x2FAB JUMPI POP PUSH0 DUP5 PUSH20 0xFFFFFFFFFFFFFFFFFFFFFFFFFFFFFFFFFFFFFFFF AND EXTCODESIZE EQ JUMPDEST ISZERO PUSH2 0x2FED JUMPI DUP4 PUSH1 0x40 MLOAD PUSH32 0x9996B31500000000000000000000000000000000000000000000000000000000 DUP2 MSTORE PUSH1 0x4 ADD PUSH2 0x2FE4 SWAP2 SWAP1 PUSH2 0x3745 JUMP JUMPDEST PUSH1 0x40 MLOAD DUP1 SWAP2 SUB SWAP1 REVERT JUMPDEST DUP2 SWAP1 POP PUSH2 0x2FF6 JUMP JUMPDEST JUMPDEST SWAP4 SWAP3 POP POP POP JUMP JUMPDEST PUSH0 DUP2 MLOAD GT ISZERO PUSH2 0x300F JUMPI DUP1 MLOAD DUP1 DUP3 PUSH1 0x20 ADD REVERT JUMPDEST PUSH1 0x40 MLOAD PUSH32 0xD6BDA27500000000000000000000000000000000000000000000000000000000 DUP2 MSTORE PUSH1 0x4 ADD PUSH1 0x40 MLOAD DUP1 SWAP2 SUB SWAP1 REVERT JUMPDEST PUSH0 PUSH1 0x40 MLOAD SWAP1 POP SWAP1 JUMP JUMPDEST PUSH0 PUSH0 REVERT JUMPDEST PUSH0 PUSH0 REVERT JUMPDEST PUSH0 PUSH32 0xFFFFFFFF00000000000000000000000000000000000000000000000000000000 DUP3 AND SWAP1 POP SWAP2 SWAP1 POP JUMP JUMPDEST PUSH2 0x3086 DUP2 PUSH2 0x3052 JUMP JUMPDEST DUP2 EQ PUSH2 0x3090 JUMPI PUSH0 PUSH0 REVERT JUMPDEST POP JUMP JUMPDEST PUSH0 DUP2 CALLDATALOAD SWAP1 POP PUSH2 0x30A1 DUP2 PUSH2 0x307D JUMP JUMPDEST SWAP3 SWAP2 POP POP JUMP JUMPDEST PUSH0 PUSH1 0x20 DUP3 DUP5 SUB SLT ISZERO PUSH2 0x30BC JUMPI PUSH2 0x30BB PUSH2 0x304A JUMP JUMPDEST JUMPDEST PUSH0 PUSH2 0x30C9 DUP5 DUP3 DUP6 ADD PUSH2 0x3093 JUMP JUMPDEST SWAP2 POP POP SWAP3 SWAP2 POP POP JUMP JUMPDEST PUSH0 DUP2 ISZERO ISZERO SWAP1 POP SWAP2 SWAP1 POP JUMP JUMPDEST PUSH2 0x30E6 DUP2 PUSH2 0x30D2 JUMP JUMPDEST DUP3 MSTORE POP POP JUMP JUMPDEST PUSH0 PUSH1 0x20 DUP3 ADD SWAP1 POP PUSH2 0x30FF PUSH0 DUP4 ADD DUP5 PUSH2 0x30DD JUMP JUMPDEST SWAP3 SWAP2 POP POP JUMP JUMPDEST PUSH0 DUP2 MLOAD SWAP1 POP SWAP2 SWAP1 POP JUMP JUMPDEST PUSH0 DUP3 DUP3 MSTORE PUSH1 0x20 DUP3 ADD SWAP1 POP SWAP3 SWAP2 POP POP JUMP JUMPDEST DUP3 DUP2 DUP4 MCOPY PUSH0 DUP4 DUP4 ADD MSTORE POP POP POP JUMP JUMPDEST PUSH0 PUSH1 0x1F NOT PUSH1 0x1F DUP4 ADD AND SWAP1 POP SWAP2 SWAP1 POP JUMP JUMPDEST PUSH0 PUSH2 0x3147 DUP3 PUSH2 0x3105 JUMP JUMPDEST PUSH2 0x3151 DUP2 DUP6 PUSH2 0x310F JUMP JUMPDEST SWAP4 POP PUSH2 0x3161 DUP2 DUP6 PUSH1 0x20 DUP7 ADD PUSH2 0x311F JUMP JUMPDEST PUSH2 0x316A DUP2 PUSH2 0x312D JUMP JUMPDEST DUP5 ADD SWAP2 POP POP SWAP3 SWAP2 POP POP JUMP JUMPDEST PUSH0 PUSH1 0x20 DUP3 ADD SWAP1 POP DUP2 DUP2 SUB PUSH0 DUP4 ADD MSTORE PUSH2 0x318D DUP2 DUP5 PUSH2 0x313D JUMP JUMPDEST SWAP1 POP SWAP3 SWAP2 POP POP JUMP JUMPDEST PUSH0 PUSH20 0xFFFFFFFFFFFFFFFFFFFFFFFFFFFFFFFFFFFFFFFF DUP3 AND SWAP1 POP SWAP2 SWAP1 POP JUMP JUMPDEST PUSH0 PUSH2 0x31BE DUP3 PUSH2 0x3195 JUMP JUMPDEST SWAP1 POP SWAP2 SWAP1 POP JUMP JUMPDEST PUSH2 0x31CE DUP2 PUSH2 0x31B4 JUMP JUMPDEST DUP2 EQ PUSH2 0x31D8 JUMPI PUSH0 PUSH0 REVERT JUMPDEST POP JUMP JUMPDEST PUSH0 DUP2 CALLDATALOAD SWAP1 POP PUSH2 0x31E9 DUP2 PUSH2 0x31C5 JUMP JUMPDEST SWAP3 SWAP2 POP POP JUMP JUMPDEST PUSH0 DUP2 SWAP1 POP SWAP2 SWAP1 POP JUMP JUMPDEST PUSH2 0x3201 DUP2 PUSH2 0x31EF JUMP JUMPDEST DUP2 EQ PUSH2 0x320B JUMPI PUSH0 PUSH0 REVERT JUMPDEST POP JUMP JUMPDEST PUSH0 DUP2 CALLDATALOAD SWAP1 POP PUSH2 0x321C DUP2 PUSH2 0x31F8 JUMP JUMPDEST SWAP3 SWAP2 POP POP JUMP JUMPDEST PUSH0 PUSH0 PUSH1 0x40 DUP4 DUP6 SUB SLT ISZERO PUSH2 0x3238 JUMPI PUSH2 0x3237 PUSH2 0x304A JUMP JUMPDEST JUMPDEST PUSH0 PUSH2 0x3245 DUP6 DUP3 DUP7 ADD PUSH2 0x31DB JUMP JUMPDEST SWAP3 POP POP PUSH1 0x20 PUSH2 0x3256 DUP6 DUP3 DUP7 ADD PUSH2 0x320E JUMP JUMPDEST SWAP2 POP POP SWAP3 POP SWAP3 SWAP1 POP JUMP JUMPDEST PUSH2 0x3269 DUP2 PUSH2 0x31EF JUMP JUMPDEST DUP3 MSTORE POP POP JUMP JUMPDEST PUSH0 PUSH1 0x20 DUP3 ADD SWAP1 POP PUSH2 0x3282 PUSH0 DUP4 ADD DUP5 PUSH2 0x3260 JUMP JUMPDEST SWAP3 SWAP2 POP POP JUMP JUMPDEST PUSH0 PUSH0 PUSH0 PUSH1 0x60 DUP5 DUP7 SUB SLT ISZERO PUSH2 0x329F JUMPI PUSH2 0x329E PUSH2 0x304A JUMP JUMPDEST JUMPDEST PUSH0 PUSH2 0x32AC DUP7 DUP3 DUP8 ADD PUSH2 0x31DB JUMP JUMPDEST SWAP4 POP POP PUSH1 0x20 PUSH2 0x32BD DUP7 DUP3 DUP8 ADD PUSH2 0x31DB JUMP JUMPDEST SWAP3 POP POP PUSH1 0x40 PUSH2 0x32CE DUP7 DUP3 DUP8 ADD PUSH2 0x320E JUMP JUMPDEST SWAP2 POP POP SWAP3 POP SWAP3 POP SWAP3 JUMP JUMPDEST PUSH0 PUSH1 0xFF DUP3 AND SWAP1 POP SWAP2 SWAP1 POP JUMP JUMPDEST PUSH2 0x32ED DUP2 PUSH2 0x32D8 JUMP JUMPDEST DUP3 MSTORE POP POP JUMP JUMPDEST PUSH0 PUSH1 0x20 DUP3 ADD SWAP1 POP PUSH2 0x3306 PUSH0 DUP4 ADD DUP5 PUSH2 0x32E4 JUMP JUMPDEST SWAP3 SWAP2 POP POP JUMP JUMPDEST PUSH0 DUP2 SWAP1 POP SWAP2 SWAP1 POP JUMP JUMPDEST PUSH2 0x331E DUP2 PUSH2 0x330C JUMP JUMPDEST DUP3 MSTORE POP POP JUMP JUMPDEST PUSH0 PUSH1 0x20 DUP3 ADD SWAP1 POP PUSH2 0x3337 PUSH0 DUP4 ADD DUP5 PUSH2 0x3315 JUMP JUMPDEST SWAP3 SWAP2 POP POP JUMP JUMPDEST PUSH0 PUSH0 REVERT JUMPDEST PUSH0 PUSH0 REVERT JUMPDEST PUSH32 0x4E487B7100000000000000000000000000000000000000000000000000000000 PUSH0 MSTORE PUSH1 0x41 PUSH1 0x4 MSTORE PUSH1 0x24 PUSH0 REVERT JUMPDEST PUSH2 0x337B DUP3 PUSH2 0x312D JUMP JUMPDEST DUP2 ADD DUP2 DUP2 LT PUSH8 0xFFFFFFFFFFFFFFFF DUP3 GT OR ISZERO PUSH2 0x339A JUMPI PUSH2 0x3399 PUSH2 0x3345 JUMP JUMPDEST JUMPDEST DUP1 PUSH1 0x40 MSTORE POP POP POP JUMP JUMPDEST PUSH0 PUSH2 0x33AC PUSH2 0x3041 JUMP JUMPDEST SWAP1 POP PUSH2 0x33B8 DUP3 DUP3 PUSH2 0x3372 JUMP JUMPDEST SWAP2 SWAP1 POP JUMP JUMPDEST PUSH0 PUSH8 0xFFFFFFFFFFFFFFFF DUP3 GT ISZERO PUSH2 0x33D7 JUMPI PUSH2 0x33D6 PUSH2 0x3345 JUMP JUMPDEST JUMPDEST PUSH2 0x33E0 DUP3 PUSH2 0x312D JUMP JUMPDEST SWAP1 POP PUSH1 0x20 DUP2 ADD SWAP1 POP SWAP2 SWAP1 POP JUMP JUMPDEST DUP3 DUP2 DUP4 CALLDATACOPY PUSH0 DUP4 DUP4 ADD MSTORE POP POP POP JUMP JUMPDEST PUSH0 PUSH2 0x340D PUSH2 0x3408 DUP5 PUSH2 0x33BD JUMP JUMPDEST PUSH2 0x33A3 JUMP JUMPDEST SWAP1 POP DUP3 DUP2 MSTORE PUSH1 0x20 DUP2 ADD DUP5 DUP5 DUP5 ADD GT ISZERO PUSH2 0x3429 JUMPI PUSH2 0x3428 PUSH2 0x3341 JUMP JUMPDEST JUMPDEST PUSH2 0x3434 DUP5 DUP3 DUP6 PUSH2 0x33ED JUMP JUMPDEST POP SWAP4 SWAP3 POP POP POP JUMP JUMPDEST PUSH0 DUP3 PUSH1 0x1F DUP4 ADD SLT PUSH2 0x3450 JUMPI PUSH2 0x344F PUSH2 0x333D JUMP JUMPDEST JUMPDEST DUP2 CALLDATALOAD PUSH2 0x3460 DUP5 DUP3 PUSH1 0x20 DUP7 ADD PUSH2 0x33FB JUMP JUMPDEST SWAP2 POP POP SWAP3 SWAP2 POP POP JUMP JUMPDEST PUSH0 PUSH0 PUSH0 PUSH1 0x60 DUP5 DUP7 SUB SLT ISZERO PUSH2 0x3480 JUMPI PUSH2 0x347F PUSH2 0x304A JUMP JUMPDEST JUMPDEST PUSH0 PUSH2 0x348D DUP7 DUP3 DUP8 ADD PUSH2 0x31DB JUMP JUMPDEST SWAP4 POP POP PUSH1 0x20 PUSH2 0x349E DUP7 DUP3 DUP8 ADD PUSH2 0x320E JUMP JUMPDEST SWAP3 POP POP PUSH1 0x40 DUP5 ADD CALLDATALOAD PUSH8 0xFFFFFFFFFFFFFFFF DUP2 GT ISZERO PUSH2 0x34BF JUMPI PUSH2 0x34BE PUSH2 0x304E JUMP JUMPDEST JUMPDEST PUSH2 0x34CB DUP7 DUP3 DUP8 ADD PUSH2 0x343C JUMP JUMPDEST SWAP2 POP POP SWAP3 POP SWAP3 POP SWAP3 JUMP JUMPDEST PUSH0 PUSH1 0x20 DUP3 DUP5 SUB SLT ISZERO PUSH2 0x34EA JUMPI PUSH2 0x34E9 PUSH2 0x304A JUMP JUMPDEST JUMPDEST PUSH0 PUSH2 0x34F7 DUP5 DUP3 DUP6 ADD PUSH2 0x320E JUMP JUMPDEST SWAP2 POP POP SWAP3 SWAP2 POP POP JUMP JUMPDEST PUSH0 PUSH0 PUSH1 0x40 DUP4 DUP6 SUB SLT ISZERO PUSH2 0x3516 JUMPI PUSH2 0x3515 PUSH2 0x304A JUMP JUMPDEST JUMPDEST PUSH0 PUSH2 0x3523 DUP6 DUP3 DUP7 ADD PUSH2 0x31DB JUMP JUMPDEST SWAP3 POP POP PUSH1 0x20 PUSH2 0x3534 DUP6 DUP3 DUP7 ADD PUSH2 0x31DB JUMP JUMPDEST SWAP2 POP POP SWAP3 POP SWAP3 SWAP1 POP JUMP JUMPDEST PUSH0 PUSH0 PUSH1 0x40 DUP4 DUP6 SUB SLT ISZERO PUSH2 0x3554 JUMPI PUSH2 0x3553 PUSH2 0x304A JUMP JUMPDEST JUMPDEST PUSH0 PUSH2 0x3561 DUP6 DUP3 DUP7 ADD PUSH2 0x31DB JUMP JUMPDEST SWAP3 POP POP PUSH1 0x20 DUP4 ADD CALLDATALOAD PUSH8 0xFFFFFFFFFFFFFFFF DUP2 GT ISZERO PUSH2 0x3582 JUMPI PUSH2 0x3581 PUSH2 0x304E JUMP JUMPDEST JUMPDEST PUSH2 0x358E DUP6 DUP3 DUP7 ADD PUSH2 0x343C JUMP JUMPDEST SWAP2 POP POP SWAP3 POP SWAP3 SWAP1 POP JUMP JUMPDEST PUSH0 PUSH1 0x20 DUP3 DUP5 SUB SLT ISZERO PUSH2 0x35AD JUMPI PUSH2 0x35AC PUSH2 0x304A JUMP JUMPDEST JUMPDEST PUSH0 PUSH2 0x35BA DUP5 DUP3 DUP6 ADD PUSH2 0x31DB JUMP JUMPDEST SWAP2 POP POP SWAP3 SWAP2 POP POP JUMP JUMPDEST PUSH0 PUSH32 0xFF00000000000000000000000000000000000000000000000000000000000000 DUP3 AND SWAP1 POP SWAP2 SWAP1 POP JUMP JUMPDEST PUSH2 0x35F7 DUP2 PUSH2 0x35C3 JUMP JUMPDEST DUP3 MSTORE POP POP JUMP JUMPDEST PUSH2 0x3606 DUP2 PUSH2 0x31B4 JUMP JUMPDEST DUP3 MSTORE POP POP JUMP JUMPDEST PUSH0 DUP2 MLOAD SWAP1 POP SWAP2 SWAP1 POP JUMP JUMPDEST PUSH0 DUP3 DUP3 MSTORE PUSH1 0x20 DUP3 ADD SWAP1 POP SWAP3 SWAP2 POP POP JUMP JUMPDEST PUSH0 DUP2 SWAP1 POP PUSH1 0x20 DUP3 ADD SWAP1 POP SWAP2 SWAP1 POP JUMP JUMPDEST PUSH2 0x363E DUP2 PUSH2 0x31EF JUMP JUMPDEST DUP3 MSTORE POP POP JUMP JUMPDEST PUSH0 PUSH2 0x364F DUP4 DUP4 PUSH2 0x3635 JUMP JUMPDEST PUSH1 0x20 DUP4 ADD SWAP1 POP SWAP3 SWAP2 POP POP JUMP JUMPDEST PUSH0 PUSH1 0x20 DUP3 ADD SWAP1 POP SWAP2 SWAP1 POP JUMP JUMPDEST PUSH0 PUSH2 0x3671 DUP3 PUSH2 0x360C JUMP JUMPDEST PUSH2 0x367B DUP2 DUP6 PUSH2 0x3616 JUMP JUMPDEST SWAP4 POP PUSH2 0x3686 DUP4 PUSH2 0x3626 JUMP JUMPDEST DUP1 PUSH0 JUMPDEST DUP4 DUP2 LT ISZERO PUSH2 0x36B6 JUMPI DUP2 MLOAD PUSH2 0x369D DUP9 DUP3 PUSH2 0x3644 JUMP JUMPDEST SWAP8 POP PUSH2 0x36A8 DUP4 PUSH2 0x365B JUMP JUMPDEST SWAP3 POP POP PUSH1 0x1 DUP2 ADD SWAP1 POP PUSH2 0x3689 JUMP JUMPDEST POP DUP6 SWAP4 POP POP POP POP SWAP3 SWAP2 POP POP JUMP JUMPDEST PUSH0 PUSH1 0xE0 DUP3 ADD SWAP1 POP PUSH2 0x36D6 PUSH0 DUP4 ADD DUP11 PUSH2 0x35EE JUMP JUMPDEST DUP2 DUP2 SUB PUSH1 0x20 DUP4 ADD MSTORE PUSH2 0x36E8 DUP2 DUP10 PUSH2 0x313D JUMP JUMPDEST SWAP1 POP DUP2 DUP2 SUB PUSH1 0x40 DUP4 ADD MSTORE PUSH2 0x36FC DUP2 DUP9 PUSH2 0x313D JUMP JUMPDEST SWAP1 POP PUSH2 0x370B PUSH1 0x60 DUP4 ADD DUP8 PUSH2 0x3260 JUMP JUMPDEST PUSH2 0x3718 PUSH1 0x80 DUP4 ADD DUP7 PUSH2 0x35FD JUMP JUMPDEST PUSH2 0x3725 PUSH1 0xA0 DUP4 ADD DUP6 PUSH2 0x3315 JUMP JUMPDEST DUP2 DUP2 SUB PUSH1 0xC0 DUP4 ADD MSTORE PUSH2 0x3737 DUP2 DUP5 PUSH2 0x3667 JUMP JUMPDEST SWAP1 POP SWAP9 SWAP8 POP POP POP POP POP POP POP POP JUMP JUMPDEST PUSH0 PUSH1 0x20 DUP3 ADD SWAP1 POP PUSH2 0x3758 PUSH0 DUP4 ADD DUP5 PUSH2 0x35FD JUMP JUMPDEST SWAP3 SWAP2 POP POP JUMP JUMPDEST PUSH0 PUSH0 PUSH0 PUSH0 PUSH1 0x80 DUP6 DUP8 SUB SLT ISZERO PUSH2 0x3776 JUMPI PUSH2 0x3775 PUSH2 0x304A JUMP JUMPDEST JUMPDEST PUSH0 PUSH2 0x3783 DUP8 DUP3 DUP9 ADD PUSH2 0x31DB JUMP JUMPDEST SWAP5 POP POP PUSH1 0x20 PUSH2 0x3794 DUP8 DUP3 DUP9 ADD PUSH2 0x31DB JUMP JUMPDEST SWAP4 POP POP PUSH1 0x40 PUSH2 0x37A5 DUP8 DUP3 DUP9 ADD PUSH2 0x320E JUMP JUMPDEST SWAP3 POP POP PUSH1 0x60 DUP6 ADD CALLDATALOAD PUSH8 0xFFFFFFFFFFFFFFFF DUP2 GT ISZERO PUSH2 0x37C6 JUMPI PUSH2 0x37C5 PUSH2 0x304E JUMP JUMPDEST JUMPDEST PUSH2 0x37D2 DUP8 DUP3 DUP9 ADD PUSH2 0x343C JUMP JUMPDEST SWAP2 POP POP SWAP3 SWAP6 SWAP2 SWAP5 POP SWAP3 POP JUMP JUMPDEST PUSH2 0x37E7 DUP2 PUSH2 0x32D8 JUMP JUMPDEST DUP2 EQ PUSH2 0x37F1 JUMPI PUSH0 PUSH0 REVERT JUMPDEST POP JUMP JUMPDEST PUSH0 DUP2 CALLDATALOAD SWAP1 POP PUSH2 0x3802 DUP2 PUSH2 0x37DE JUMP JUMPDEST SWAP3 SWAP2 POP POP JUMP JUMPDEST PUSH2 0x3811 DUP2 PUSH2 0x330C JUMP JUMPDEST DUP2 EQ PUSH2 0x381B JUMPI PUSH0 PUSH0 REVERT JUMPDEST POP JUMP JUMPDEST PUSH0 DUP2 CALLDATALOAD SWAP1 POP PUSH2 0x382C DUP2 PUSH2 0x3808 JUMP JUMPDEST SWAP3 SWAP2 POP POP JUMP JUMPDEST PUSH0 PUSH0 PUSH0 PUSH0 PUSH0 PUSH0 PUSH0 PUSH1 0xE0 DUP9 DUP11 SUB SLT ISZERO PUSH2 0x384D JUMPI PUSH2 0x384C PUSH2 0x304A JUMP JUMPDEST JUMPDEST PUSH0 PUSH2 0x385A DUP11 DUP3 DUP12 ADD PUSH2 0x31DB JUMP JUMPDEST SWAP8 POP POP PUSH1 0x20 PUSH2 0x386B DUP11 DUP3 DUP12 ADD PUSH2 0x31DB JUMP JUMPDEST SWAP7 POP POP PUSH1 0x40 PUSH2 0x387C DUP11 DUP3 DUP12 ADD PUSH2 0x320E JUMP JUMPDEST SWAP6 POP POP PUSH1 0x60 PUSH2 0x388D DUP11 DUP3 DUP12 ADD PUSH2 0x320E JUMP JUMPDEST SWAP5 POP POP PUSH1 0x80 PUSH2 0x389E DUP11 DUP3 DUP12 ADD PUSH2 0x37F4 JUMP JUMPDEST SWAP4 POP POP PUSH1 0xA0 PUSH2 0x38AF DUP11 DUP3 DUP12 ADD PUSH2 0x381E JUMP JUMPDEST SWAP3 POP POP PUSH1 0xC0 PUSH2 0x38C0 DUP11 DUP3 DUP12 ADD PUSH2 0x381E JUMP JUMPDEST SWAP2 POP POP SWAP3 SWAP6 SWAP9 SWAP2 SWAP5 SWAP8 POP SWAP3 SWAP6 POP JUMP JUMPDEST PUSH32 0x4E487B7100000000000000000000000000000000000000000000000000000000 PUSH0 MSTORE PUSH1 0x22 PUSH1 0x4 MSTORE PUSH1 0x24 PUSH0 REVERT JUMPDEST PUSH0 PUSH1 0x2 DUP3 DIV SWAP1 POP PUSH1 0x1 DUP3 AND DUP1 PUSH2 0x3913 JUMPI PUSH1 0x7F DUP3 AND SWAP2 POP JUMPDEST PUSH1 0x20 DUP3 LT DUP2 SUB PUSH2 0x3926 JUMPI PUSH2 0x3925 PUSH2 0x38CF JUMP JUMPDEST JUMPDEST POP SWAP2 SWAP1 POP JUMP JUMPDEST PUSH0 PUSH1 0x40 DUP3 ADD SWAP1 POP PUSH2 0x393F PUSH0 DUP4 ADD DUP6 PUSH2 0x35FD JUMP JUMPDEST PUSH2 0x394C PUSH1 0x20 DUP4 ADD DUP5 PUSH2 0x3260 JUMP JUMPDEST SWAP4 SWAP3 POP POP POP JUMP JUMPDEST PUSH32 0x4E487B7100000000000000000000000000000000000000000000000000000000 PUSH0 MSTORE PUSH1 0x11 PUSH1 0x4 MSTORE PUSH1 0x24 PUSH0 REVERT JUMPDEST PUSH0 DUP2 PUSH1 0x1 SHR SWAP1 POP SWAP2 SWAP1 POP JUMP JUMPDEST PUSH0 PUSH0 DUP3 SWAP2 POP DUP4 SWAP1 POP JUMPDEST PUSH1 0x1 DUP6 GT ISZERO PUSH2 0x39D5 JUMPI DUP1 DUP7 DIV DUP2 GT ISZERO PUSH2 0x39B1 JUMPI PUSH2 0x39B0 PUSH2 0x3953 JUMP JUMPDEST JUMPDEST PUSH1 0x1 DUP6 AND ISZERO PUSH2 0x39C0 JUMPI DUP1 DUP3 MUL SWAP2 POP JUMPDEST DUP1 DUP2 MUL SWAP1 POP PUSH2 0x39CE DUP6 PUSH2 0x3980 JUMP JUMPDEST SWAP5 POP PUSH2 0x3995 JUMP JUMPDEST SWAP5 POP SWAP5 SWAP3 POP POP POP JUMP JUMPDEST PUSH0 DUP3 PUSH2 0x39ED JUMPI PUSH1 0x1 SWAP1 POP PUSH2 0x3AA8 JUMP JUMPDEST DUP2 PUSH2 0x39FA JUMPI PUSH0 SWAP1 POP PUSH2 0x3AA8 JUMP JUMPDEST DUP2 PUSH1 0x1 DUP2 EQ PUSH2 0x3A10 JUMPI PUSH1 0x2 DUP2 EQ PUSH2 0x3A1A JUMPI PUSH2 0x3A49 JUMP JUMPDEST PUSH1 0x1 SWAP2 POP POP PUSH2 0x3AA8 JUMP JUMPDEST PUSH1 0xFF DUP5 GT ISZERO PUSH2 0x3A2C JUMPI PUSH2 0x3A2B PUSH2 0x3953 JUMP JUMPDEST JUMPDEST DUP4 PUSH1 0x2 EXP SWAP2 POP DUP5 DUP3 GT ISZERO PUSH2 0x3A43 JUMPI PUSH2 0x3A42 PUSH2 0x3953 JUMP JUMPDEST JUMPDEST POP PUSH2 0x3AA8 JUMP JUMPDEST POP PUSH1 0x20 DUP4 LT PUSH2 0x133 DUP4 LT AND PUSH1 0x4E DUP5 LT PUSH1 0xB DUP5 LT AND OR ISZERO PUSH2 0x3A7E JUMPI DUP3 DUP3 EXP SWAP1 POP DUP4 DUP2 GT ISZERO PUSH2 0x3A79 JUMPI PUSH2 0x3A78 PUSH2 0x3953 JUMP JUMPDEST JUMPDEST PUSH2 0x3AA8 JUMP JUMPDEST PUSH2 0x3A8B DUP5 DUP5 DUP5 PUSH1 0x1 PUSH2 0x398C JUMP JUMPDEST SWAP3 POP SWAP1 POP DUP2 DUP5 DIV DUP2 GT ISZERO PUSH2 0x3AA2 JUMPI PUSH2 0x3AA1 PUSH2 0x3953 JUMP JUMPDEST JUMPDEST DUP2 DUP2 MUL SWAP1 POP JUMPDEST SWAP4 SWAP3 POP POP POP JUMP JUMPDEST PUSH0 PUSH2 0x3AB9 DUP3 PUSH2 0x31EF JUMP JUMPDEST SWAP2 POP PUSH2 0x3AC4 DUP4 PUSH2 0x32D8 JUMP JUMPDEST SWAP3 POP PUSH2 0x3AF1 PUSH32 0xFFFFFFFFFFFFFFFFFFFFFFFFFFFFFFFFFFFFFFFFFFFFFFFFFFFFFFFFFFFFFFFF DUP5 DUP5 PUSH2 0x39DE JUMP JUMPDEST SWAP1 POP SWAP3 SWAP2 POP POP JUMP JUMPDEST PUSH0 PUSH2 0x3B03 DUP3 PUSH2 0x31EF JUMP JUMPDEST SWAP2 POP PUSH2 0x3B0E DUP4 PUSH2 0x31EF JUMP JUMPDEST SWAP3 POP DUP3 DUP3 MUL PUSH2 0x3B1C DUP2 PUSH2 0x31EF JUMP JUMPDEST SWAP2 POP DUP3 DUP3 DIV DUP5 EQ DUP4 ISZERO OR PUSH2 0x3B33 JUMPI PUSH2 0x3B32 PUSH2 0x3953 JUMP JUMPDEST JUMPDEST POP SWAP3 SWAP2 POP POP JUMP JUMPDEST PUSH0 DUP2 SWAP1 POP SWAP2 SWAP1 POP JUMP JUMPDEST PUSH0 PUSH8 0xFFFFFFFFFFFFFFFF DUP3 AND SWAP1 POP SWAP2 SWAP1 POP JUMP JUMPDEST PUSH0 DUP2 SWAP1 POP SWAP2 SWAP1 POP JUMP JUMPDEST PUSH0 PUSH2 0x3B79 PUSH2 0x3B74 PUSH2 0x3B6F DUP5 PUSH2 0x3B3A JUMP JUMPDEST PUSH2 0x3B56 JUMP JUMPDEST PUSH2 0x3B43 JUMP JUMPDEST SWAP1 POP SWAP2 SWAP1 POP JUMP JUMPDEST PUSH2 0x3B89 DUP2 PUSH2 0x3B5F JUMP JUMPDEST DUP3 MSTORE POP POP JUMP JUMPDEST PUSH0 PUSH1 0x20 DUP3 ADD SWAP1 POP PUSH2 0x3BA2 PUSH0 DUP4 ADD DUP5 PUSH2 0x3B80 JUMP JUMPDEST SWAP3 SWAP2 POP POP JUMP JUMPDEST PUSH32 0x4549503731323A20556E696E697469616C697A65640000000000000000000000 PUSH0 DUP3 ADD MSTORE POP JUMP JUMPDEST PUSH0 PUSH2 0x3BDC PUSH1 0x15 DUP4 PUSH2 0x310F JUMP JUMPDEST SWAP2 POP PUSH2 0x3BE7 DUP3 PUSH2 0x3BA8 JUMP JUMPDEST PUSH1 0x20 DUP3 ADD SWAP1 POP SWAP2 SWAP1 POP JUMP JUMPDEST PUSH0 PUSH1 0x20 DUP3 ADD SWAP1 POP DUP2 DUP2 SUB PUSH0 DUP4 ADD MSTORE PUSH2 0x3C09 DUP2 PUSH2 0x3BD0 JUMP JUMPDEST SWAP1 POP SWAP2 SWAP1 POP JUMP JUMPDEST PUSH0 PUSH1 0x60 DUP3 ADD SWAP1 POP PUSH2 0x3C23 PUSH0 DUP4 ADD DUP7 PUSH2 0x35FD JUMP JUMPDEST PUSH2 0x3C30 PUSH1 0x20 DUP4 ADD DUP6 PUSH2 0x35FD JUMP JUMPDEST PUSH2 0x3C3D PUSH1 0x40 DUP4 ADD DUP5 PUSH2 0x3260 JUMP JUMPDEST SWAP5 SWAP4 POP POP POP POP JUMP JUMPDEST PUSH0 PUSH1 0xC0 DUP3 ADD SWAP1 POP PUSH2 0x3C58 PUSH0 DUP4 ADD DUP10 PUSH2 0x3315 JUMP JUMPDEST PUSH2 0x3C65 PUSH1 0x20 DUP4 ADD DUP9 PUSH2 0x35FD JUMP JUMPDEST PUSH2 0x3C72 PUSH1 0x40 DUP4 ADD DUP8 PUSH2 0x35FD JUMP JUMPDEST PUSH2 0x3C7F PUSH1 0x60 DUP4 ADD DUP7 PUSH2 0x3260 JUMP JUMPDEST PUSH2 0x3C8C PUSH1 0x80 DUP4 ADD DUP6 PUSH2 0x3260 JUMP JUMPDEST PUSH2 0x3C99 PUSH1 0xA0 DUP4 ADD DUP5 PUSH2 0x3260 JUMP JUMPDEST SWAP8 SWAP7 POP POP POP POP POP POP POP JUMP JUMPDEST PUSH0 PUSH1 0x40 DUP3 ADD SWAP1 POP PUSH2 0x3CB7 PUSH0 DUP4 ADD DUP6 PUSH2 0x35FD JUMP JUMPDEST PUSH2 0x3CC4 PUSH1 0x20 DUP4 ADD DUP5 PUSH2 0x35FD JUMP JUMPDEST SWAP4 SWAP3 POP POP POP JUMP JUMPDEST PUSH0 PUSH1 0x60 DUP3 ADD SWAP1 POP PUSH2 0x3CDE PUSH0 DUP4 ADD DUP7 PUSH2 0x35FD JUMP JUMPDEST PUSH2 0x3CEB PUSH1 0x20 DUP4 ADD DUP6 PUSH2 0x3260 JUMP JUMPDEST PUSH2 0x3CF8 PUSH1 0x40 DUP4 ADD DUP5 PUSH2 0x3260 JUMP JUMPDEST SWAP5 SWAP4 POP POP POP POP JUMP JUMPDEST PUSH0 DUP2 MLOAD SWAP1 POP SWAP2 SWAP1 POP JUMP JUMPDEST PUSH0 DUP3 DUP3 MSTORE PUSH1 0x20 DUP3 ADD SWAP1 POP SWAP3 SWAP2 POP POP JUMP JUMPDEST PUSH0 PUSH2 0x3D24 DUP3 PUSH2 0x3D00 JUMP JUMPDEST PUSH2 0x3D2E DUP2 DUP6 PUSH2 0x3D0A JUMP JUMPDEST SWAP4 POP PUSH2 0x3D3E DUP2 DUP6 PUSH1 0x20 DUP7 ADD PUSH2 0x311F JUMP JUMPDEST PUSH2 0x3D47 DUP2 PUSH2 0x312D JUMP JUMPDEST DUP5 ADD SWAP2 POP POP SWAP3 SWAP2 POP POP JUMP JUMPDEST PUSH0 PUSH1 0x80 DUP3 ADD SWAP1 POP PUSH2 0x3D65 PUSH0 DUP4 ADD DUP8 PUSH2 0x35FD JUMP JUMPDEST PUSH2 0x3D72 PUSH1 0x20 DUP4 ADD DUP7 PUSH2 0x35FD JUMP JUMPDEST PUSH2 0x3D7F PUSH1 0x40 DUP4 ADD DUP6 PUSH2 0x3260 JUMP JUMPDEST DUP2 DUP2 SUB PUSH1 0x60 DUP4 ADD MSTORE PUSH2 0x3D91 DUP2 DUP5 PUSH2 0x3D1A JUMP JUMPDEST SWAP1 POP SWAP6 SWAP5 POP POP POP POP POP JUMP JUMPDEST PUSH0 DUP2 MLOAD SWAP1 POP PUSH2 0x3DAA DUP2 PUSH2 0x307D JUMP JUMPDEST SWAP3 SWAP2 POP POP JUMP JUMPDEST PUSH0 PUSH1 0x20 DUP3 DUP5 SUB SLT ISZERO PUSH2 0x3DC5 JUMPI PUSH2 0x3DC4 PUSH2 0x304A JUMP JUMPDEST JUMPDEST PUSH0 PUSH2 0x3DD2 DUP5 DUP3 DUP6 ADD PUSH2 0x3D9C JUMP JUMPDEST SWAP2 POP POP SWAP3 SWAP2 POP POP JUMP JUMPDEST PUSH0 DUP2 MLOAD SWAP1 POP PUSH2 0x3DE9 DUP2 PUSH2 0x3808 JUMP JUMPDEST SWAP3 SWAP2 POP POP JUMP JUMPDEST PUSH0 PUSH1 0x20 DUP3 DUP5 SUB SLT ISZERO PUSH2 0x3E04 JUMPI PUSH2 0x3E03 PUSH2 0x304A JUMP JUMPDEST JUMPDEST PUSH0 PUSH2 0x3E11 DUP5 DUP3 DUP6 ADD PUSH2 0x3DDB JUMP JUMPDEST SWAP2 POP POP SWAP3 SWAP2 POP POP JUMP JUMPDEST PUSH0 PUSH1 0x60 DUP3 ADD SWAP1 POP PUSH2 0x3E2D PUSH0 DUP4 ADD DUP7 PUSH2 0x35FD JUMP JUMPDEST PUSH2 0x3E3A PUSH1 0x20 DUP4 ADD DUP6 PUSH2 0x3260 JUMP JUMPDEST DUP2 DUP2 SUB PUSH1 0x40 DUP4 ADD MSTORE PUSH2 0x3E4C DUP2 DUP5 PUSH2 0x3D1A JUMP JUMPDEST SWAP1 POP SWAP5 SWAP4 POP POP POP POP JUMP JUMPDEST PUSH0 PUSH1 0xA0 DUP3 ADD SWAP1 POP PUSH2 0x3E69 PUSH0 DUP4 ADD DUP9 PUSH2 0x3315 JUMP JUMPDEST PUSH2 0x3E76 PUSH1 0x20 DUP4 ADD DUP8 PUSH2 0x3315 JUMP JUMPDEST PUSH2 0x3E83 PUSH1 0x40 DUP4 ADD DUP7 PUSH2 0x3315 JUMP JUMPDEST PUSH2 0x3E90 PUSH1 0x60 DUP4 ADD DUP6 PUSH2 0x3260 JUMP JUMPDEST PUSH2 0x3E9D PUSH1 0x80 DUP4 ADD DUP5 PUSH2 0x35FD JUMP JUMPDEST SWAP7 SWAP6 POP POP POP POP POP POP JUMP JUMPDEST PUSH0 DUP2 SWAP1 POP DUP2 PUSH0 MSTORE PUSH1 0x20 PUSH0 KECCAK256 SWAP1 POP SWAP2 SWAP1 POP JUMP JUMPDEST PUSH0 PUSH1 0x20 PUSH1 0x1F DUP4 ADD DIV SWAP1 POP SWAP2 SWAP1 POP JUMP JUMPDEST PUSH0 DUP3 DUP3 SHL SWAP1 POP SWAP3 SWAP2 POP POP JUMP JUMPDEST PUSH0 PUSH1 0x8 DUP4 MUL PUSH2 0x3F03 PUSH32 0xFFFFFFFFFFFFFFFFFFFFFFFFFFFFFFFFFFFFFFFFFFFFFFFFFFFFFFFFFFFFFFFF DUP3 PUSH2 0x3EC8 JUMP JUMPDEST PUSH2 0x3F0D DUP7 DUP4 PUSH2 0x3EC8 JUMP JUMPDEST SWAP6 POP DUP1 NOT DUP5 AND SWAP4 POP DUP1 DUP7 AND DUP5 OR SWAP3 POP POP POP SWAP4 SWAP3 POP POP POP JUMP JUMPDEST PUSH0 PUSH2 0x3F3F PUSH2 0x3F3A PUSH2 0x3F35 DUP5 PUSH2 0x31EF JUMP JUMPDEST PUSH2 0x3B56 JUMP JUMPDEST PUSH2 0x31EF JUMP JUMPDEST SWAP1 POP SWAP2 SWAP1 POP JUMP JUMPDEST PUSH0 DUP2 SWAP1 POP SWAP2 SWAP1 POP JUMP JUMPDEST PUSH2 0x3F58 DUP4 PUSH2 0x3F25 JUMP JUMPDEST PUSH2 0x3F6C PUSH2 0x3F64 DUP3 PUSH2 0x3F46 JUMP JUMPDEST DUP5 DUP5 SLOAD PUSH2 0x3ED4 JUMP JUMPDEST DUP3 SSTORE POP POP POP POP JUMP JUMPDEST PUSH0 PUSH0 SWAP1 POP SWAP1 JUMP JUMPDEST PUSH2 0x3F83 PUSH2 0x3F74 JUMP JUMPDEST PUSH2 0x3F8E DUP2 DUP5 DUP5 PUSH2 0x3F4F JUMP JUMPDEST POP POP POP JUMP JUMPDEST JUMPDEST DUP2 DUP2 LT ISZERO PUSH2 0x3FB1 JUMPI PUSH2 0x3FA6 PUSH0 DUP3 PUSH2 0x3F7B JUMP JUMPDEST PUSH1 0x1 DUP2 ADD SWAP1 POP PUSH2 0x3F94 JUMP JUMPDEST POP POP JUMP JUMPDEST PUSH1 0x1F DUP3 GT ISZERO PUSH2 0x3FF6 JUMPI PUSH2 0x3FC7 DUP2 PUSH2 0x3EA7 JUMP JUMPDEST PUSH2 0x3FD0 DUP5 PUSH2 0x3EB9 JUMP JUMPDEST DUP2 ADD PUSH1 0x20 DUP6 LT ISZERO PUSH2 0x3FDF JUMPI DUP2 SWAP1 POP JUMPDEST PUSH2 0x3FF3 PUSH2 0x3FEB DUP6 PUSH2 0x3EB9 JUMP JUMPDEST DUP4 ADD DUP3 PUSH2 0x3F93 JUMP JUMPDEST POP POP JUMPDEST POP POP POP JUMP JUMPDEST PUSH0 DUP3 DUP3 SHR SWAP1 POP SWAP3 SWAP2 POP POP JUMP JUMPDEST PUSH0 PUSH2 0x4016 PUSH0 NOT DUP5 PUSH1 0x8 MUL PUSH2 0x3FFB JUMP JUMPDEST NOT DUP1 DUP4 AND SWAP2 POP POP SWAP3 SWAP2 POP POP JUMP JUMPDEST PUSH0 PUSH2 0x402E DUP4 DUP4 PUSH2 0x4007 JUMP JUMPDEST SWAP2 POP DUP3 PUSH1 0x2 MUL DUP3 OR SWAP1 POP SWAP3 SWAP2 POP POP JUMP JUMPDEST PUSH2 0x4047 DUP3 PUSH2 0x3105 JUMP JUMPDEST PUSH8 0xFFFFFFFFFFFFFFFF DUP2 GT ISZERO PUSH2 0x4060 JUMPI PUSH2 0x405F PUSH2 0x3345 JUMP JUMPDEST JUMPDEST PUSH2 0x406A DUP3 SLOAD PUSH2 0x38FC JUMP JUMPDEST PUSH2 0x4075 DUP3 DUP3 DUP6 PUSH2 0x3FB5 JUMP JUMPDEST PUSH0 PUSH1 0x20 SWAP1 POP PUSH1 0x1F DUP4 GT PUSH1 0x1 DUP2 EQ PUSH2 0x40A6 JUMPI PUSH0 DUP5 ISZERO PUSH2 0x4094 JUMPI DUP3 DUP8 ADD MLOAD SWAP1 POP JUMPDEST PUSH2 0x409E DUP6 DUP3 PUSH2 0x4023 JUMP JUMPDEST DUP7 SSTORE POP PUSH2 0x4105 JUMP JUMPDEST PUSH1 0x1F NOT DUP5 AND PUSH2 0x40B4 DUP7 PUSH2 0x3EA7 JUMP JUMPDEST PUSH0 JUMPDEST DUP3 DUP2 LT ISZERO PUSH2 0x40DB JUMPI DUP5 DUP10 ADD MLOAD DUP3 SSTORE PUSH1 0x1 DUP3 ADD SWAP2 POP PUSH1 0x20 DUP6 ADD SWAP5 POP PUSH1 0x20 DUP2 ADD SWAP1 POP PUSH2 0x40B6 JUMP JUMPDEST DUP7 DUP4 LT ISZERO PUSH2 0x40F8 JUMPI DUP5 DUP10 ADD MLOAD PUSH2 0x40F4 PUSH1 0x1F DUP10 AND DUP3 PUSH2 0x4007 JUMP JUMPDEST DUP4 SSTORE POP JUMPDEST PUSH1 0x1 PUSH1 0x2 DUP9 MUL ADD DUP9 SSTORE POP POP POP JUMPDEST POP POP POP POP POP POP JUMP JUMPDEST PUSH0 PUSH1 0x80 DUP3 ADD SWAP1 POP PUSH2 0x4120 PUSH0 DUP4 ADD DUP8 PUSH2 0x3315 JUMP JUMPDEST PUSH2 0x412D PUSH1 0x20 DUP4 ADD DUP7 PUSH2 0x32E4 JUMP JUMPDEST PUSH2 0x413A PUSH1 0x40 DUP4 ADD DUP6 PUSH2 0x3315 JUMP JUMPDEST PUSH2 0x4147 PUSH1 0x60 DUP4 ADD DUP5 PUSH2 0x3315 JUMP JUMPDEST SWAP6 SWAP5 POP POP POP POP POP JUMP JUMPDEST PUSH32 0x4E487B7100000000000000000000000000000000000000000000000000000000 PUSH0 MSTORE PUSH1 0x21 PUSH1 0x4 MSTORE PUSH1 0x24 PUSH0 REVERT JUMPDEST PUSH0 DUP2 SWAP1 POP SWAP3 SWAP2 POP POP JUMP JUMPDEST PUSH0 PUSH2 0x4191 DUP3 PUSH2 0x3D00 JUMP JUMPDEST PUSH2 0x419B DUP2 DUP6 PUSH2 0x417D JUMP JUMPDEST SWAP4 POP PUSH2 0x41AB DUP2 DUP6 PUSH1 0x20 DUP7 ADD PUSH2 0x311F JUMP JUMPDEST DUP1 DUP5 ADD SWAP2 POP POP SWAP3 SWAP2 POP POP JUMP JUMPDEST PUSH0 PUSH2 0x41C2 DUP3 DUP5 PUSH2 0x4187 JUMP JUMPDEST SWAP2 POP DUP2 SWAP1 POP SWAP3 SWAP2 POP POP JUMP JUMPDEST PUSH0 PUSH2 0x41D7 DUP3 PUSH2 0x31EF JUMP JUMPDEST SWAP2 POP PUSH2 0x41E2 DUP4 PUSH2 0x31EF JUMP JUMPDEST SWAP3 POP DUP3 DUP3 ADD SWAP1 POP DUP1 DUP3 GT ISZERO PUSH2 0x41FA JUMPI PUSH2 0x41F9 PUSH2 0x3953 JUMP JUMPDEST JUMPDEST SWAP3 SWAP2 POP POP JUMP INVALID LOG2 PUSH5 0x6970667358 0x22 SLT KECCAK256 PUSH15 0x7E786718971CFF7F640B15A5B0465A 0x2B PUSH27 0x83C5319CF521EF132DCAAD47C2BB64736F6C634300081E00330000 "
		},
		"gasEstimates": {
			"creation": {
				"codeDepositCost": "3390000",
				"executionCost": "infinite",
				"totalCost": "infinite"
			},
			"external": {
				"DOMAIN_SEPARATOR()": "infinite",
				"UPGRADE_INTERFACE_VERSION()": "infinite",
				"allowance(address,address)": "infinite",
				"approve(address,uint256)": "infinite",
				"approveAndCall(address,uint256)": "infinite",
				"approveAndCall(address,uint256,bytes)": "infinite",
				"balanceOf(address)": "2948",
				"burn(uint256)": "infinite",
				"burnFrom(address,uint256)": "infinite",
				"decimals()": "428",
				"eip712Domain()": "infinite",
				"initialize(address,address)": "infinite",
				"mint(address,uint256)": "infinite",
				"name()": "infinite",
				"nonces(address)": "2967",
				"owner()": "2677",
				"pause()": "infinite",
				"paused()": "2570",
				"permit(address,address,uint256,uint256,uint8,bytes32,bytes32)": "infinite",
				"proxiableUUID()": "infinite",
				"renounceOwnership()": "infinite",
				"supportsInterface(bytes4)": "764",
				"symbol()": "infinite",
				"totalSupply()": "2530",
				"transfer(address,uint256)": "infinite",
				"transferAndCall(address,uint256)": "infinite",
				"transferAndCall(address,uint256,bytes)": "infinite",
				"transferFrom(address,address,uint256)": "infinite",
				"transferFromAndCall(address,address,uint256)": "infinite",
				"transferFromAndCall(address,address,uint256,bytes)": "infinite",
				"transferOwnership(address)": "infinite",
				"unpause()": "infinite",
				"upgradeToAndCall(address,bytes)": "infinite"
			},
			"internal": {
				"_authorizeUpgrade(address)": "infinite",
				"_update(address,address,uint256)": "infinite"
			}
		},
		"methodIdentifiers": {
			"DOMAIN_SEPARATOR()": "3644e515",
			"UPGRADE_INTERFACE_VERSION()": "ad3cb1cc",
			"allowance(address,address)": "dd62ed3e",
			"approve(address,uint256)": "095ea7b3",
			"approveAndCall(address,uint256)": "3177029f",
			"approveAndCall(address,uint256,bytes)": "cae9ca51",
			"balanceOf(address)": "70a08231",
			"burn(uint256)": "42966c68",
			"burnFrom(address,uint256)": "79cc6790",
			"decimals()": "313ce567",
			"eip712Domain()": "84b0196e",
			"initialize(address,address)": "485cc955",
			"mint(address,uint256)": "40c10f19",
			"name()": "06fdde03",
			"nonces(address)": "7ecebe00",
			"owner()": "8da5cb5b",
			"pause()": "8456cb59",
			"paused()": "5c975abb",
			"permit(address,address,uint256,uint256,uint8,bytes32,bytes32)": "d505accf",
			"proxiableUUID()": "52d1902d",
			"renounceOwnership()": "715018a6",
			"supportsInterface(bytes4)": "01ffc9a7",
			"symbol()": "95d89b41",
			"totalSupply()": "18160ddd",
			"transfer(address,uint256)": "a9059cbb",
			"transferAndCall(address,uint256)": "1296ee62",
			"transferAndCall(address,uint256,bytes)": "4000aea0",
			"transferFrom(address,address,uint256)": "23b872dd",
			"transferFromAndCall(address,address,uint256)": "d8fbe994",
			"transferFromAndCall(address,address,uint256,bytes)": "c1d34b89",
			"transferOwnership(address)": "f2fde38b",
			"unpause()": "3f4ba83a",
			"upgradeToAndCall(address,bytes)": "4f1ef286"
		}
	},
	"abi": [
		{
			"inputs": [],
			"stateMutability": "nonpayable",
			"type": "constructor"
		},
		{
			"inputs": [
				{
					"internalType": "address",
					"name": "target",
					"type": "address"
				}
			],
			"name": "AddressEmptyCode",
			"type": "error"
		},
		{
			"inputs": [],
			"name": "ECDSAInvalidSignature",
			"type": "error"
		},
		{
			"inputs": [
				{
					"internalType": "uint256",
					"name": "length",
					"type": "uint256"
				}
			],
			"name": "ECDSAInvalidSignatureLength",
			"type": "error"
		},
		{
			"inputs": [
				{
					"internalType": "bytes32",
					"name": "s",
					"type": "bytes32"
				}
			],
			"name": "ECDSAInvalidSignatureS",
			"type": "error"
		},
		{
			"inputs": [
				{
					"internalType": "address",
					"name": "spender",
					"type": "address"
				},
				{
					"internalType": "uint256",
					"name": "value",
					"type": "uint256"
				}
			],
			"name": "ERC1363ApproveFailed",
			"type": "error"
		},
		{
			"inputs": [
				{
					"internalType": "address",
					"name": "receiver",
					"type": "address"
				}
			],
			"name": "ERC1363InvalidReceiver",
			"type": "error"
		},
		{
			"inputs": [
				{
					"internalType": "address",
					"name": "spender",
					"type": "address"
				}
			],
			"name": "ERC1363InvalidSpender",
			"type": "error"
		},
		{
			"inputs": [
				{
					"internalType": "address",
					"name": "receiver",
					"type": "address"
				},
				{
					"internalType": "uint256",
					"name": "value",
					"type": "uint256"
				}
			],
			"name": "ERC1363TransferFailed",
			"type": "error"
		},
		{
			"inputs": [
				{
					"internalType": "address",
					"name": "sender",
					"type": "address"
				},
				{
					"internalType": "address",
					"name": "receiver",
					"type": "address"
				},
				{
					"internalType": "uint256",
					"name": "value",
					"type": "uint256"
				}
			],
			"name": "ERC1363TransferFromFailed",
			"type": "error"
		},
		{
			"inputs": [
				{
					"internalType": "address",
					"name": "implementation",
					"type": "address"
				}
			],
			"name": "ERC1967InvalidImplementation",
			"type": "error"
		},
		{
			"inputs": [],
			"name": "ERC1967NonPayable",
			"type": "error"
		},
		{
			"inputs": [
				{
					"internalType": "address",
					"name": "spender",
					"type": "address"
				},
				{
					"internalType": "uint256",
					"name": "allowance",
					"type": "uint256"
				},
				{
					"internalType": "uint256",
					"name": "needed",
					"type": "uint256"
				}
			],
			"name": "ERC20InsufficientAllowance",
			"type": "error"
		},
		{
			"inputs": [
				{
					"internalType": "address",
					"name": "sender",
					"type": "address"
				},
				{
					"internalType": "uint256",
					"name": "balance",
					"type": "uint256"
				},
				{
					"internalType": "uint256",
					"name": "needed",
					"type": "uint256"
				}
			],
			"name": "ERC20InsufficientBalance",
			"type": "error"
		},
		{
			"inputs": [
				{
					"internalType": "address",
					"name": "approver",
					"type": "address"
				}
			],
			"name": "ERC20InvalidApprover",
			"type": "error"
		},
		{
			"inputs": [
				{
					"internalType": "address",
					"name": "receiver",
					"type": "address"
				}
			],
			"name": "ERC20InvalidReceiver",
			"type": "error"
		},
		{
			"inputs": [
				{
					"internalType": "address",
					"name": "sender",
					"type": "address"
				}
			],
			"name": "ERC20InvalidSender",
			"type": "error"
		},
		{
			"inputs": [
				{
					"internalType": "address",
					"name": "spender",
					"type": "address"
				}
			],
			"name": "ERC20InvalidSpender",
			"type": "error"
		},
		{
			"inputs": [
				{
					"internalType": "uint256",
					"name": "deadline",
					"type": "uint256"
				}
			],
			"name": "ERC2612ExpiredSignature",
			"type": "error"
		},
		{
			"inputs": [
				{
					"internalType": "address",
					"name": "signer",
					"type": "address"
				},
				{
					"internalType": "address",
					"name": "owner",
					"type": "address"
				}
			],
			"name": "ERC2612InvalidSigner",
			"type": "error"
		},
		{
			"inputs": [],
			"name": "EnforcedPause",
			"type": "error"
		},
		{
			"inputs": [],
			"name": "ExpectedPause",
			"type": "error"
		},
		{
			"inputs": [],
			"name": "FailedCall",
			"type": "error"
		},
		{
			"inputs": [
				{
					"internalType": "address",
					"name": "account",
					"type": "address"
				},
				{
					"internalType": "uint256",
					"name": "currentNonce",
					"type": "uint256"
				}
			],
			"name": "InvalidAccountNonce",
			"type": "error"
		},
		{
			"inputs": [],
			"name": "InvalidInitialization",
			"type": "error"
		},
		{
			"inputs": [],
			"name": "NotInitializing",
			"type": "error"
		},
		{
			"inputs": [
				{
					"internalType": "address",
					"name": "owner",
					"type": "address"
				}
			],
			"name": "OwnableInvalidOwner",
			"type": "error"
		},
		{
			"inputs": [
				{
					"internalType": "address",
					"name": "account",
					"type": "address"
				}
			],
			"name": "OwnableUnauthorizedAccount",
			"type": "error"
		},
		{
			"inputs": [],
			"name": "UUPSUnauthorizedCallContext",
			"type": "error"
		},
		{
			"inputs": [
				{
					"internalType": "bytes32",
					"name": "slot",
					"type": "bytes32"
				}
			],
			"name": "UUPSUnsupportedProxiableUUID",
			"type": "error"
		},
		{
			"anonymous": false,
			"inputs": [
				{
					"indexed": true,
					"internalType": "address",
					"name": "owner",
					"type": "address"
				},
				{
					"indexed": true,
					"internalType": "address",
					"name": "spender",
					"type": "address"
				},
				{
					"indexed": false,
					"internalType": "uint256",
					"name": "value",
					"type": "uint256"
				}
			],
			"name": "Approval",
			"type": "event"
		},
		{
			"anonymous": false,
			"inputs": [],
			"name": "EIP712DomainChanged",
			"type": "event"
		},
		{
			"anonymous": false,
			"inputs": [
				{
					"indexed": false,
					"internalType": "uint64",
					"name": "version",
					"type": "uint64"
				}
			],
			"name": "Initialized",
			"type": "event"
		},
		{
			"anonymous": false,
			"inputs": [
				{
					"indexed": true,
					"internalType": "address",
					"name": "previousOwner",
					"type": "address"
				},
				{
					"indexed": true,
					"internalType": "address",
					"name": "newOwner",
					"type": "address"
				}
			],
			"name": "OwnershipTransferred",
			"type": "event"
		},
		{
			"anonymous": false,
			"inputs": [
				{
					"indexed": false,
					"internalType": "address",
					"name": "account",
					"type": "address"
				}
			],
			"name": "Paused",
			"type": "event"
		},
		{
			"anonymous": false,
			"inputs": [
				{
					"indexed": true,
					"internalType": "address",
					"name": "from",
					"type": "address"
				},
				{
					"indexed": true,
					"internalType": "address",
					"name": "to",
					"type": "address"
				},
				{
					"indexed": false,
					"internalType": "uint256",
					"name": "value",
					"type": "uint256"
				}
			],
			"name": "Transfer",
			"type": "event"
		},
		{
			"anonymous": false,
			"inputs": [
				{
					"indexed": false,
					"internalType": "address",
					"name": "account",
					"type": "address"
				}
			],
			"name": "Unpaused",
			"type": "event"
		},
		{
			"anonymous": false,
			"inputs": [
				{
					"indexed": true,
					"internalType": "address",
					"name": "implementation",
					"type": "address"
				}
			],
			"name": "Upgraded",
			"type": "event"
		},
		{
			"inputs": [],
			"name": "DOMAIN_SEPARATOR",
			"outputs": [
				{
					"internalType": "bytes32",
					"name": "",
					"type": "bytes32"
				}
			],
			"stateMutability": "view",
			"type": "function"
		},
		{
			"inputs": [],
			"name": "UPGRADE_INTERFACE_VERSION",
			"outputs": [
				{
					"internalType": "string",
					"name": "",
					"type": "string"
				}
			],
			"stateMutability": "view",
			"type": "function"
		},
		{
			"inputs": [
				{
					"internalType": "address",
					"name": "owner",
					"type": "address"
				},
				{
					"internalType": "address",
					"name": "spender",
					"type": "address"
				}
			],
			"name": "allowance",
			"outputs": [
				{
					"internalType": "uint256",
					"name": "",
					"type": "uint256"
				}
			],
			"stateMutability": "view",
			"type": "function"
		},
		{
			"inputs": [
				{
					"internalType": "address",
					"name": "spender",
					"type": "address"
				},
				{
					"internalType": "uint256",
					"name": "value",
					"type": "uint256"
				}
			],
			"name": "approve",
			"outputs": [
				{
					"internalType": "bool",
					"name": "",
					"type": "bool"
				}
			],
			"stateMutability": "nonpayable",
			"type": "function"
		},
		{
			"inputs": [
				{
					"internalType": "address",
					"name": "spender",
					"type": "address"
				},
				{
					"internalType": "uint256",
					"name": "value",
					"type": "uint256"
				}
			],
			"name": "approveAndCall",
			"outputs": [
				{
					"internalType": "bool",
					"name": "",
					"type": "bool"
				}
			],
			"stateMutability": "nonpayable",
			"type": "function"
		},
		{
			"inputs": [
				{
					"internalType": "address",
					"name": "spender",
					"type": "address"
				},
				{
					"internalType": "uint256",
					"name": "value",
					"type": "uint256"
				},
				{
					"internalType": "bytes",
					"name": "data",
					"type": "bytes"
				}
			],
			"name": "approveAndCall",
			"outputs": [
				{
					"internalType": "bool",
					"name": "",
					"type": "bool"
				}
			],
			"stateMutability": "nonpayable",
			"type": "function"
		},
		{
			"inputs": [
				{
					"internalType": "address",
					"name": "account",
					"type": "address"
				}
			],
			"name": "balanceOf",
			"outputs": [
				{
					"internalType": "uint256",
					"name": "",
					"type": "uint256"
				}
			],
			"stateMutability": "view",
			"type": "function"
		},
		{
			"inputs": [
				{
					"internalType": "uint256",
					"name": "value",
					"type": "uint256"
				}
			],
			"name": "burn",
			"outputs": [],
			"stateMutability": "nonpayable",
			"type": "function"
		},
		{
			"inputs": [
				{
					"internalType": "address",
					"name": "account",
					"type": "address"
				},
				{
					"internalType": "uint256",
					"name": "value",
					"type": "uint256"
				}
			],
			"name": "burnFrom",
			"outputs": [],
			"stateMutability": "nonpayable",
			"type": "function"
		},
		{
			"inputs": [],
			"name": "decimals",
			"outputs": [
				{
					"internalType": "uint8",
					"name": "",
					"type": "uint8"
				}
			],
			"stateMutability": "view",
			"type": "function"
		},
		{
			"inputs": [],
			"name": "eip712Domain",
			"outputs": [
				{
					"internalType": "bytes1",
					"name": "fields",
					"type": "bytes1"
				},
				{
					"internalType": "string",
					"name": "name",
					"type": "string"
				},
				{
					"internalType": "string",
					"name": "version",
					"type": "string"
				},
				{
					"internalType": "uint256",
					"name": "chainId",
					"type": "uint256"
				},
				{
					"internalType": "address",
					"name": "verifyingContract",
					"type": "address"
				},
				{
					"internalType": "bytes32",
					"name": "salt",
					"type": "bytes32"
				},
				{
					"internalType": "uint256[]",
					"name": "extensions",
					"type": "uint256[]"
				}
			],
			"stateMutability": "view",
			"type": "function"
		},
		{
			"inputs": [
				{
					"internalType": "address",
					"name": "recipient",
					"type": "address"
				},
				{
					"internalType": "address",
					"name": "initialOwner",
					"type": "address"
				}
			],
			"name": "initialize",
			"outputs": [],
			"stateMutability": "nonpayable",
			"type": "function"
		},
		{
			"inputs": [
				{
					"internalType": "address",
					"name": "to",
					"type": "address"
				},
				{
					"internalType": "uint256",
					"name": "amount",
					"type": "uint256"
				}
			],
			"name": "mint",
			"outputs": [],
			"stateMutability": "nonpayable",
			"type": "function"
		},
		{
			"inputs": [],
			"name": "name",
			"outputs": [
				{
					"internalType": "string",
					"name": "",
					"type": "string"
				}
			],
			"stateMutability": "view",
			"type": "function"
		},
		{
			"inputs": [
				{
					"internalType": "address",
					"name": "owner",
					"type": "address"
				}
			],
			"name": "nonces",
			"outputs": [
				{
					"internalType": "uint256",
					"name": "",
					"type": "uint256"
				}
			],
			"stateMutability": "view",
			"type": "function"
		},
		{
			"inputs": [],
			"name": "owner",
			"outputs": [
				{
					"internalType": "address",
					"name": "",
					"type": "address"
				}
			],
			"stateMutability": "view",
			"type": "function"
		},
		{
			"inputs": [],
			"name": "pause",
			"outputs": [],
			"stateMutability": "nonpayable",
			"type": "function"
		},
		{
			"inputs": [],
			"name": "paused",
			"outputs": [
				{
					"internalType": "bool",
					"name": "",
					"type": "bool"
				}
			],
			"stateMutability": "view",
			"type": "function"
		},
		{
			"inputs": [
				{
					"internalType": "address",
					"name": "owner",
					"type": "address"
				},
				{
					"internalType": "address",
					"name": "spender",
					"type": "address"
				},
				{
					"internalType": "uint256",
					"name": "value",
					"type": "uint256"
				},
				{
					"internalType": "uint256",
					"name": "deadline",
					"type": "uint256"
				},
				{
					"internalType": "uint8",
					"name": "v",
					"type": "uint8"
				},
				{
					"internalType": "bytes32",
					"name": "r",
					"type": "bytes32"
				},
				{
					"internalType": "bytes32",
					"name": "s",
					"type": "bytes32"
				}
			],
			"name": "permit",
			"outputs": [],
			"stateMutability": "nonpayable",
			"type": "function"
		},
		{
			"inputs": [],
			"name": "proxiableUUID",
			"outputs": [
				{
					"internalType": "bytes32",
					"name": "",
					"type": "bytes32"
				}
			],
			"stateMutability": "view",
			"type": "function"
		},
		{
			"inputs": [],
			"name": "renounceOwnership",
			"outputs": [],
			"stateMutability": "nonpayable",
			"type": "function"
		},
		{
			"inputs": [
				{
					"internalType": "bytes4",
					"name": "interfaceId",
					"type": "bytes4"
				}
			],
			"name": "supportsInterface",
			"outputs": [
				{
					"internalType": "bool",
					"name": "",
					"type": "bool"
				}
			],
			"stateMutability": "view",
			"type": "function"
		},
		{
			"inputs": [],
			"name": "symbol",
			"outputs": [
				{
					"internalType": "string",
					"name": "",
					"type": "string"
				}
			],
			"stateMutability": "view",
			"type": "function"
		},
		{
			"inputs": [],
			"name": "totalSupply",
			"outputs": [
				{
					"internalType": "uint256",
					"name": "",
					"type": "uint256"
				}
			],
			"stateMutability": "view",
			"type": "function"
		},
		{
			"inputs": [
				{
					"internalType": "address",
					"name": "to",
					"type": "address"
				},
				{
					"internalType": "uint256",
					"name": "value",
					"type": "uint256"
				}
			],
			"name": "transfer",
			"outputs": [
				{
					"internalType": "bool",
					"name": "",
					"type": "bool"
				}
			],
			"stateMutability": "nonpayable",
			"type": "function"
		},
		{
			"inputs": [
				{
					"internalType": "address",
					"name": "to",
					"type": "address"
				},
				{
					"internalType": "uint256",
					"name": "value",
					"type": "uint256"
				}
			],
			"name": "transferAndCall",
			"outputs": [
				{
					"internalType": "bool",
					"name": "",
					"type": "bool"
				}
			],
			"stateMutability": "nonpayable",
			"type": "function"
		},
		{
			"inputs": [
				{
					"internalType": "address",
					"name": "to",
					"type": "address"
				},
				{
					"internalType": "uint256",
					"name": "value",
					"type": "uint256"
				},
				{
					"internalType": "bytes",
					"name": "data",
					"type": "bytes"
				}
			],
			"name": "transferAndCall",
			"outputs": [
				{
					"internalType": "bool",
					"name": "",
					"type": "bool"
				}
			],
			"stateMutability": "nonpayable",
			"type": "function"
		},
		{
			"inputs": [
				{
					"internalType": "address",
					"name": "from",
					"type": "address"
				},
				{
					"internalType": "address",
					"name": "to",
					"type": "address"
				},
				{
					"internalType": "uint256",
					"name": "value",
					"type": "uint256"
				}
			],
			"name": "transferFrom",
			"outputs": [
				{
					"internalType": "bool",
					"name": "",
					"type": "bool"
				}
			],
			"stateMutability": "nonpayable",
			"type": "function"
		},
		{
			"inputs": [
				{
					"internalType": "address",
					"name": "from",
					"type": "address"
				},
				{
					"internalType": "address",
					"name": "to",
					"type": "address"
				},
				{
					"internalType": "uint256",
					"name": "value",
					"type": "uint256"
				},
				{
					"internalType": "bytes",
					"name": "data",
					"type": "bytes"
				}
			],
			"name": "transferFromAndCall",
			"outputs": [
				{
					"internalType": "bool",
					"name": "",
					"type": "bool"
				}
			],
			"stateMutability": "nonpayable",
			"type": "function"
		},
		{
			"inputs": [
				{
					"internalType": "address",
					"name": "from",
					"type": "address"
				},
				{
					"internalType": "address",
					"name": "to",
					"type": "address"
				},
				{
					"internalType": "uint256",
					"name": "value",
					"type": "uint256"
				}
			],
			"name": "transferFromAndCall",
			"outputs": [
				{
					"internalType": "bool",
					"name": "",
					"type": "bool"
				}
			],
			"stateMutability": "nonpayable",
			"type": "function"
		},
		{
			"inputs": [
				{
					"internalType": "address",
					"name": "newOwner",
					"type": "address"
				}
			],
			"name": "transferOwnership",
			"outputs": [],
			"stateMutability": "nonpayable",
			"type": "function"
		},
		{
			"inputs": [],
			"name": "unpause",
			"outputs": [],
			"stateMutability": "nonpayable",
			"type": "function"
		},
		{
			"inputs": [
				{
					"internalType": "address",
					"name": "newImplementation",
					"type": "address"
				},
				{
					"internalType": "bytes",
					"name": "data",
					"type": "bytes"
				}
			],
			"name": "upgradeToAndCall",
			"outputs": [],
			"stateMutability": "payable",
			"type": "function"
		}
	]
}